{
  "_format": "hh-sol-artifact-1",
  "contractName": "MintableBaseToken",
  "sourceName": "contracts/tokens/MintableBaseToken.sol",
  "abi": [
    {
      "inputs": [
        {
          "internalType": "string",
          "name": "_name",
          "type": "string"
        },
        {
          "internalType": "string",
          "name": "_symbol",
          "type": "string"
        },
        {
          "internalType": "uint256",
          "name": "_initialSupply",
          "type": "uint256"
        }
      ],
      "stateMutability": "nonpayable",
      "type": "constructor"
    },
    {
      "inputs": [],
      "name": "AccountAlreadyMarked",
      "type": "error"
    },
    {
      "inputs": [],
      "name": "AccountNotMarked",
      "type": "error"
    },
    {
      "inputs": [],
      "name": "InsufficientAllowance",
      "type": "error"
    },
    {
      "inputs": [],
      "name": "InsufficientBalance",
      "type": "error"
    },
    {
      "inputs": [],
      "name": "InvalidHandler",
      "type": "error"
    },
    {
      "inputs": [],
      "name": "OnlyAdmin",
      "type": "error"
    },
    {
      "inputs": [],
      "name": "OnlyMinter",
      "type": "error"
    },
    {
      "inputs": [],
      "name": "ZeroAddress",
      "type": "error"
    },
    {
      "anonymous": false,
      "inputs": [
        {
          "indexed": true,
          "internalType": "address",
          "name": "owner",
          "type": "address"
        },
        {
          "indexed": true,
          "internalType": "address",
          "name": "spender",
          "type": "address"
        },
        {
          "indexed": false,
          "internalType": "uint256",
          "name": "value",
          "type": "uint256"
        }
      ],
      "name": "Approval",
      "type": "event"
    },
    {
      "anonymous": false,
      "inputs": [
        {
          "indexed": true,
          "internalType": "address",
          "name": "previousOwner",
          "type": "address"
        },
        {
          "indexed": true,
          "internalType": "address",
          "name": "newOwner",
          "type": "address"
        }
      ],
      "name": "OwnershipTransferred",
      "type": "event"
    },
    {
      "anonymous": false,
      "inputs": [
        {
          "indexed": true,
          "internalType": "address",
          "name": "from",
          "type": "address"
        },
        {
          "indexed": true,
          "internalType": "address",
          "name": "to",
          "type": "address"
        },
        {
          "indexed": false,
          "internalType": "uint256",
          "name": "value",
          "type": "uint256"
        }
      ],
      "name": "Transfer",
      "type": "event"
    },
    {
      "inputs": [
        {
          "internalType": "address",
          "name": "_account",
          "type": "address"
        }
      ],
      "name": "addAdmin",
      "outputs": [],
      "stateMutability": "nonpayable",
      "type": "function"
    },
    {
      "inputs": [
        {
          "internalType": "address",
          "name": "_account",
          "type": "address"
        }
      ],
      "name": "addNonStakingAccount",
      "outputs": [],
      "stateMutability": "nonpayable",
      "type": "function"
    },
    {
      "inputs": [
        {
          "internalType": "address",
          "name": "",
          "type": "address"
        }
      ],
      "name": "admins",
      "outputs": [
        {
          "internalType": "bool",
          "name": "",
          "type": "bool"
        }
      ],
      "stateMutability": "view",
      "type": "function"
    },
    {
      "inputs": [
        {
          "internalType": "address",
          "name": "_owner",
          "type": "address"
        },
        {
          "internalType": "address",
          "name": "_spender",
          "type": "address"
        }
      ],
      "name": "allowance",
      "outputs": [
        {
          "internalType": "uint256",
          "name": "",
          "type": "uint256"
        }
      ],
      "stateMutability": "view",
      "type": "function"
    },
    {
      "inputs": [
        {
          "internalType": "address",
          "name": "",
          "type": "address"
        },
        {
          "internalType": "address",
          "name": "",
          "type": "address"
        }
      ],
      "name": "allowances",
      "outputs": [
        {
          "internalType": "uint256",
          "name": "",
          "type": "uint256"
        }
      ],
      "stateMutability": "view",
      "type": "function"
    },
    {
      "inputs": [
        {
          "internalType": "address",
          "name": "_spender",
          "type": "address"
        },
        {
          "internalType": "uint256",
          "name": "_amount",
          "type": "uint256"
        }
      ],
      "name": "approve",
      "outputs": [
        {
          "internalType": "bool",
          "name": "",
          "type": "bool"
        }
      ],
      "stateMutability": "nonpayable",
      "type": "function"
    },
    {
      "inputs": [
        {
          "internalType": "address",
          "name": "_account",
          "type": "address"
        }
      ],
      "name": "balanceOf",
      "outputs": [
        {
          "internalType": "uint256",
          "name": "",
          "type": "uint256"
        }
      ],
      "stateMutability": "view",
      "type": "function"
    },
    {
      "inputs": [
        {
          "internalType": "address",
          "name": "",
          "type": "address"
        }
      ],
      "name": "balances",
      "outputs": [
        {
          "internalType": "uint256",
          "name": "",
          "type": "uint256"
        }
      ],
      "stateMutability": "view",
      "type": "function"
    },
    {
      "inputs": [
        {
          "internalType": "address",
          "name": "_account",
          "type": "address"
        },
        {
          "internalType": "uint256",
          "name": "_amount",
          "type": "uint256"
        }
      ],
      "name": "burn",
      "outputs": [],
      "stateMutability": "nonpayable",
      "type": "function"
    },
    {
      "inputs": [
        {
          "internalType": "address",
          "name": "_receiver",
          "type": "address"
        }
      ],
      "name": "claim",
      "outputs": [],
      "stateMutability": "nonpayable",
      "type": "function"
    },
    {
      "inputs": [],
      "name": "decimals",
      "outputs": [
        {
          "internalType": "uint8",
          "name": "",
          "type": "uint8"
        }
      ],
      "stateMutability": "pure",
      "type": "function"
    },
    {
      "inputs": [],
      "name": "inPrivateTransferMode",
      "outputs": [
        {
          "internalType": "bool",
          "name": "",
          "type": "bool"
        }
      ],
      "stateMutability": "view",
      "type": "function"
    },
    {
      "inputs": [
        {
          "internalType": "address",
          "name": "",
          "type": "address"
        }
      ],
      "name": "isHandler",
      "outputs": [
        {
          "internalType": "bool",
          "name": "",
          "type": "bool"
        }
      ],
      "stateMutability": "view",
      "type": "function"
    },
    {
      "inputs": [
        {
          "internalType": "address",
          "name": "",
          "type": "address"
        }
      ],
      "name": "isMinter",
      "outputs": [
        {
          "internalType": "bool",
          "name": "",
          "type": "bool"
        }
      ],
      "stateMutability": "view",
      "type": "function"
    },
    {
      "inputs": [
        {
          "internalType": "address",
          "name": "_account",
          "type": "address"
        },
        {
          "internalType": "uint256",
          "name": "_amount",
          "type": "uint256"
        }
      ],
      "name": "mint",
      "outputs": [],
      "stateMutability": "nonpayable",
      "type": "function"
    },
    {
      "inputs": [],
      "name": "name",
      "outputs": [
        {
          "internalType": "string",
          "name": "",
          "type": "string"
        }
      ],
      "stateMutability": "view",
      "type": "function"
    },
    {
      "inputs": [
        {
          "internalType": "address",
          "name": "",
          "type": "address"
        }
      ],
      "name": "nonStakingAccounts",
      "outputs": [
        {
          "internalType": "bool",
          "name": "",
          "type": "bool"
        }
      ],
      "stateMutability": "view",
      "type": "function"
    },
    {
      "inputs": [],
      "name": "nonStakingSupply",
      "outputs": [
        {
          "internalType": "uint256",
          "name": "",
          "type": "uint256"
        }
      ],
      "stateMutability": "view",
      "type": "function"
    },
    {
      "inputs": [],
      "name": "owner",
      "outputs": [
        {
          "internalType": "address",
          "name": "",
          "type": "address"
        }
      ],
      "stateMutability": "view",
      "type": "function"
    },
    {
      "inputs": [
        {
          "internalType": "address",
          "name": "_account",
          "type": "address"
        },
        {
          "internalType": "address",
          "name": "_receiver",
          "type": "address"
        }
      ],
      "name": "recoverClaim",
      "outputs": [],
      "stateMutability": "nonpayable",
      "type": "function"
    },
    {
      "inputs": [
        {
          "internalType": "address",
          "name": "_account",
          "type": "address"
        }
      ],
      "name": "removeAdmin",
      "outputs": [],
      "stateMutability": "nonpayable",
      "type": "function"
    },
    {
      "inputs": [
        {
          "internalType": "address",
          "name": "_account",
          "type": "address"
        }
      ],
      "name": "removeNonStakingAccount",
      "outputs": [],
      "stateMutability": "nonpayable",
      "type": "function"
    },
    {
      "inputs": [],
      "name": "renounceOwnership",
      "outputs": [],
      "stateMutability": "nonpayable",
      "type": "function"
    },
    {
      "inputs": [
        {
          "internalType": "address",
          "name": "_handler",
          "type": "address"
        },
        {
          "internalType": "bool",
          "name": "_isActive",
          "type": "bool"
        }
      ],
      "name": "setHandler",
      "outputs": [],
      "stateMutability": "nonpayable",
      "type": "function"
    },
    {
      "inputs": [
        {
          "internalType": "bool",
          "name": "_inPrivateTransferMode",
          "type": "bool"
        }
      ],
      "name": "setInPrivateTransferMode",
      "outputs": [],
      "stateMutability": "nonpayable",
      "type": "function"
    },
    {
      "inputs": [
        {
          "internalType": "string",
          "name": "_name",
          "type": "string"
        },
        {
          "internalType": "string",
          "name": "_symbol",
          "type": "string"
        }
      ],
      "name": "setInfo",
      "outputs": [],
      "stateMutability": "nonpayable",
      "type": "function"
    },
    {
      "inputs": [
        {
          "internalType": "address",
          "name": "_minter",
          "type": "address"
        },
        {
          "internalType": "bool",
          "name": "_isActive",
          "type": "bool"
        }
      ],
      "name": "setMinter",
      "outputs": [],
      "stateMutability": "nonpayable",
      "type": "function"
    },
    {
      "inputs": [
        {
          "internalType": "address[]",
          "name": "_yieldTrackers",
          "type": "address[]"
        }
      ],
      "name": "setYieldTrackers",
      "outputs": [],
      "stateMutability": "nonpayable",
      "type": "function"
    },
    {
      "inputs": [
        {
          "internalType": "address",
          "name": "_account",
          "type": "address"
        }
      ],
      "name": "stakedBalance",
      "outputs": [
        {
          "internalType": "uint256",
          "name": "",
          "type": "uint256"
        }
      ],
      "stateMutability": "view",
      "type": "function"
    },
    {
      "inputs": [],
      "name": "symbol",
      "outputs": [
        {
          "internalType": "string",
          "name": "",
          "type": "string"
        }
      ],
      "stateMutability": "view",
      "type": "function"
    },
    {
      "inputs": [],
      "name": "totalStaked",
      "outputs": [
        {
          "internalType": "uint256",
          "name": "",
          "type": "uint256"
        }
      ],
      "stateMutability": "view",
      "type": "function"
    },
    {
      "inputs": [],
      "name": "totalSupply",
      "outputs": [
        {
          "internalType": "uint256",
          "name": "",
          "type": "uint256"
        }
      ],
      "stateMutability": "view",
      "type": "function"
    },
    {
      "inputs": [
        {
          "internalType": "address",
          "name": "_recipient",
          "type": "address"
        },
        {
          "internalType": "uint256",
          "name": "_amount",
          "type": "uint256"
        }
      ],
      "name": "transfer",
      "outputs": [
        {
          "internalType": "bool",
          "name": "",
          "type": "bool"
        }
      ],
      "stateMutability": "nonpayable",
      "type": "function"
    },
    {
      "inputs": [
        {
          "internalType": "address",
          "name": "_sender",
          "type": "address"
        },
        {
          "internalType": "address",
          "name": "_recipient",
          "type": "address"
        },
        {
          "internalType": "uint256",
          "name": "_amount",
          "type": "uint256"
        }
      ],
      "name": "transferFrom",
      "outputs": [
        {
          "internalType": "bool",
          "name": "",
          "type": "bool"
        }
      ],
      "stateMutability": "nonpayable",
      "type": "function"
    },
    {
      "inputs": [
        {
          "internalType": "address",
          "name": "newOwner",
          "type": "address"
        }
      ],
      "name": "transferOwnership",
      "outputs": [],
      "stateMutability": "nonpayable",
      "type": "function"
    },
    {
      "inputs": [
        {
          "internalType": "address",
          "name": "_token",
          "type": "address"
        },
        {
          "internalType": "address",
          "name": "_account",
          "type": "address"
        },
        {
          "internalType": "uint256",
          "name": "_amount",
          "type": "uint256"
        }
      ],
      "name": "withdrawToken",
      "outputs": [],
      "stateMutability": "nonpayable",
      "type": "function"
    },
    {
      "inputs": [
        {
          "internalType": "uint256",
          "name": "",
          "type": "uint256"
        }
      ],
      "name": "yieldTrackers",
      "outputs": [
        {
          "internalType": "address",
          "name": "",
          "type": "address"
        }
      ],
      "stateMutability": "view",
      "type": "function"
    }
  ],
  "bytecode": "0x608060409080825234620004ba5762001e918038038091620000228285620004bf565b8339810190606081830312620004ba5780516001600160401b039290838111620004ba578162000054918401620004f9565b60209182840151858111620004ba57869162000072918601620004f9565b93015160008054336001600160a01b03198216811783559296919591926001600160a01b03929183167f8be0079c531659141344cd1fd0a4f28419497f9722a3daafe3b4186f6b6457e08880a3835193838511620004a6576001948554918683811c931680156200049b575b88841014620003a5578190601f9384811162000448575b508890848311600114620003e4578a92620003d8575b5050600019600383901b1c191690861b1785555b815191848311620003c4576002548681811c91168015620003b9575b88821014620003a557908183859493116200034f575b5087918311600114620002e9578892620002dd575b5050600019600383901b1c191690841b176002555b3315620002cc5784835b6200021c575b505050507fddf252ad1be2c89b69c2b068fc378daa952ba7f163c4a11628f55a4df523b3ef90620001bf8460035462000570565b60035533835260058152848320620001d985825462000570565b90553383526008815260ff858420541662000205575b84519384523393a3516118fc9081620005958239f35b620002138460045462000570565b600455620001ef565b60078054821015620002c55786528181868820015416803b15620002c15786895191635fd6196560e01b8352818360049233848301528160249586925af18015620002b75762000291575b50505060001981146200027d5783018362000185565b634e487b7160e01b86526011600452602486fd5b858311620002a6575050885238808062000267565b634e487b7160e01b89526041905287fd5b8b513d8b823e3d90fd5b8680fd5b506200018b565b865163d92e233d60e01b8152600490fd5b01519050388062000166565b600289528789208794509190601f1984168a5b8a8282106200033857505084116200031e575b505050811b016002556200017b565b015160001960f88460031b161c191690553880806200030f565b8385015186558a97909501949384019301620002fc565b90919250600289528789208380860160051c8201928a87106200039b575b9186958a929594930160051c01915b8281106200038c57505062000151565b8b81558695508991016200037c565b925081926200036d565b634e487b7160e01b89526022600452602489fd5b90607f16906200013b565b634e487b7160e01b88526041600452602488fd5b0151905038806200010b565b888b52898b208994509190601f1984168c5b8c82821062000431575050841162000417575b505050811b0185556200011f565b015160001960f88460031b161c1916905538808062000409565b8385015186558c97909501949384019301620003f6565b909150878a52888a208480850160051c8201928b861062000491575b918a91869594930160051c01915b82811062000482575050620000f5565b8c81558594508a910162000472565b9250819262000464565b92607f1692620000de565b634e487b7160e01b87526041600452602487fd5b600080fd5b601f909101601f19168101906001600160401b03821190821017620004e357604052565b634e487b7160e01b600052604160045260246000fd5b919080601f84011215620004ba578251906001600160401b038211620004e3576040519160209162000535601f8301601f1916840185620004bf565b818452828287010111620004ba5760005b8181106200055c57508260009394955001015290565b858101830151848201840152820162000546565b919082018092116200057e57565b634e487b7160e01b600052601160045260246000fdfe60406080815260048036101561001457600080fd5b600091823560e01c806301e33667146110e257806306fdde031461105b578063095ea7b3146110315780631785f53c14610ff157806318160ddd14610fd25780631e83409a14610f1257806323b872dd14610eed578063276eab4e14610db157806327e235e314610a79578063313ce56714610d9557806340c10f1914610cc2578063429b62e514610c8457806346ea87af14610c4657806352cd38d914610bea57806355b6ed5c146103345780635a47a1a714610ba95780636021726714610b835780636228907714610af45780637048027514610ab157806370a0823114610a79578063715018a614610a31578063817b1cd214610a035780638da5cb5b146109db5780639554381a1461099d57806395d89b41146108c0578063996f11ee146107de5780639cb7de4b1461078c5780639dc29fac1461069b578063a9059cbb1461066a578063a923fc401461042e578063aa271e1a146103f0578063c93be636146103d2578063cf456ae71461037d578063dd62ed3e14610334578063dfbaefb11461030b578063f2fde38b1461025a5763fb30d916146101b757600080fd5b34610256576020366003190112610256576101d06112a2565b338452600960205260ff828520541615610248576001600160a01b03811680855260086020528285205490919060ff1615610239579061021361023493926117cc565b8452600860205280842060ff19815416905560056020528320548254611534565b905580f35b50505163701382a760e01b8152fd5b5051634755657960e01b8152fd5b8280fd5b509034610256576020366003190112610256576102756112a2565b9061027e611466565b6001600160a01b039182169283156102b957505082546001600160a01b0319811683178455166000805160206118878339815191528380a380f35b906020608492519162461bcd60e51b8352820152602660248201527f4f776e61626c653a206e6577206f776e657220697320746865207a65726f206160448201526564647265737360d01b6064820152fd5b83823461033057816003193601126103305760ff6020925460a01c1690519015158152f35b5080fd5b838234610330578060031936011261033057806020926103526112a2565b61035a6112bd565b6001600160a01b0391821683526006865283832091168252845220549051908152f35b8382346103305780600319360112610330576103cf9061039b6112a2565b906103a46113f5565b916103ad611466565b60018060a01b03168452600b60205283209060ff801983541691151516179055565b80f35b50903461025657826003193601126102565760209250549051908152f35b8382346103305760203660031901126103305760209160ff9082906001600160a01b0361041b6112a2565b168152600b855220541690519015158152f35b503461025657366003190112610330576001600160401b0381358181116106665761045c903690840161141f565b60243582811161066257610473903690850161141f565b61047b611466565b8151938385116105b757600194806104938754611308565b94601f95868111610634575b506020908683116001146105d55789926105ca575b5050600019600383901b1c191690861b1785555b81519384116105b757506104dd600254611308565b82811161057e575b50602091831160011461051f579282939183928694610514575b50501b916000199060031b1c19161760025580f35b0151925038806104ff565b60028552818520919083601f198116875b878282106105655750501061054c575b505050811b0160025580f35b015160001960f88460031b161c19169055388080610540565b8486015187559095019460209485019487935001610530565b6105a89060028752602087208480870160051c820192602088106105ae575b0160051c01906114be565b386104e5565b9250819261059d565b634e487b7160e01b865260419052602485fd5b0151905038806104b4565b888a52818a208994509190601f1984168b5b81811061061c57508411610603575b505050811b0185556104c8565b015160001960f88460031b161c191690553880806105f6565b8284015185558b9690940193602093840193016105e7565b61065c90898b5260208b208880860160051c820192602087106105ae570160051c01906114be565b3861049f565b8480fd5b8380fd5b83823461033057806003193601126103305760209061069461068a6112a2565b602435903361162a565b5160018152f35b508290346103305780600319360112610330576106b66112a2565b9060243590338452600b60205260ff81852054161561077d576001600160a01b03831692831561076d576106e9906117cc565b828452600560205281818520541061075e576000805160206118a78339815191529160209185968587526005845281872083815403905561072c83600354611534565b6003558587526008845260ff828820541661074b575b5051908152a380f35b610756838254611534565b905587610742565b51631e9acf1760e31b81528490fd5b815163d92e233d60e01b81528690fd5b51639cdc2ed560e01b81528490fd5b8382346103305780600319360112610330576103cf906107aa6112a2565b906107b36113f5565b916107bc611466565b60018060a01b03168452600a60205283209060ff801983541691151516179055565b5090346102565781600319360112610256576107f86112a2565b906108016112bd565b923385526020926009845260ff82872054161561024857855b6007548110156108bc5761085385878985610834866113c4565b929054928a8a51978896879586936310e059a160e11b85528401611550565b039360039190911b1c6001600160a01b03165af180156108b257908691610885575b505061088090611541565b61081a565b813d83116108ab575b6108988183611342565b810103126108a7578438610875565b8680fd5b503d61088e565b84513d8a823e3d90fd5b8680f35b838234610330578160031936011261033057805190826002546108e281611308565b80855290600190818116908115610975575060011461091c575b50505061090e82610918940383611342565b519182918261137b565b0390f35b60028352602095507f405787fa12a823e0f2b7631cc41b3ba8828b3321ca811111fa75cd3aa3bb5ace5b82841061096257505050826109189461090e92820101946108fc565b8054868501880152928601928101610946565b610918975061090e9450602092508693915060ff191682840152151560051b820101946108fc565b8382346103305760203660031901126103305760209160ff9082906001600160a01b036109c86112a2565b1681526008855220541690519015158152f35b838234610330578160031936011261033057905490516001600160a01b039091168152602090f35b508234610a2e5780600319360112610a2e5750610a27602092600354905490611534565b9051908152f35b80fd5b8334610a2e5780600319360112610a2e57610a4a611466565b80546001600160a01b03198116825581906001600160a01b03166000805160206118878339815191528280a380f35b8382346103305760203660031901126103305760209181906001600160a01b03610aa16112a2565b1681526005845220549051908152f35b83823461033057602036600319011261033057610acc6112a2565b610ad4611466565b6001600160a01b0316825260096020528120805460ff1916600117905580f35b503461025657602036600319011261025657610b0e6112a2565b338452600960205260ff828520541615610248576001600160a01b03811680855260086020528285205490919060ff16610b745790610b5061023493926117cc565b84526008602052808420600160ff1982541617905560056020528320548254611511565b50505163b539f46760e01b8152fd5b83823461033057602036600319011261033057602090610a27610ba46112a2565b6115f8565b505034610330576020366003190112610330573580151580910361033057610bcf611466565b815460ff60a01b191660a09190911b60ff60a01b1617815580f35b50903461025657602036600319011261025657356007548110156102565760079092527fa66cc928b5edb82af9bd49922954155ab7b0942694bea4ce44661d9a8736c6889091015490516001600160a01b039091168152602090f35b8382346103305760203660031901126103305760209160ff9082906001600160a01b03610c716112a2565b168152600a855220541690519015158152f35b8382346103305760203660031901126103305760209160ff9082906001600160a01b03610caf6112a2565b1681526009855220541690519015158152f35b509034610256578160031936011261025657610cdc6112a2565b9160243591338552600b60205260ff828620541615610d87576001600160a01b038416938415610d7857926000805160206118a783398151915292602092610d2488966117cc565b610d3083600354611511565b60035586865260058452818620610d48848254611511565b90558686526008845260ff8287205416610d65575051908152a380f35b610d70838254611511565b905538610742565b50905163d92e233d60e01b8152fd5b9051639cdc2ed560e01b8152fd5b8382346103305781600319360112610330576020905160128152f35b50346102565760209081600319360112610666576001600160401b03928035848111610ee95736602382011215610ee9578082013590858211610ed6578160051b935191610e0186860184611342565b82528482016024819583010191368311610ed257602401905b828210610eaf57505050610e2c611466565b51938411610e9c57600160401b8411610e9c575060075483600755808410610e81575b50906007845280842090845b848110610e66578580f35b83516001600160a01b03168382015592810192600101610e5b565b60078552828520610e969181019085016114be565b38610e4f565b634e487b7160e01b855260419052602484fd5b81356001600160a01b0381168103610ece578152908601908601610e1a565b8980fd5b8880fd5b634e487b7160e01b875260418352602487fd5b8580fd5b83823461033057602090610f09610f03366112d3565b9161156a565b90519015158152f35b503461025657826020918260031936011261033057610f2f6112a2565b93825b600754811015610fce57610f6985610f49836113c4565b929054898888519586809581946310e059a160e11b8352338c8401611550565b039360039190911b1c6001600160a01b03165af18015610fc457908691610f9b575b5050610f9690611541565b610f32565b813d8311610fbd575b610fae8183611342565b81010312610666578438610f8b565b503d610fa4565b84513d87823e3d90fd5b8380f35b8382346103305781600319360112610330576020906003549051908152f35b8382346103305760203660031901126103305761100c6112a2565b611014611466565b6001600160a01b0316825260096020528120805460ff1916905580f35b8382346103305780600319360112610330576020906106946110516112a2565b602435903361175c565b83823461033057816003193601126103305780519082600180549061107f82611308565b8086529181811690811561097557506001146110a75750505061090e82610918940383611342565b80955082526020948583205b8284106110cf57505050826109189461090e92820101946108fc565b80548685018801529286019281016110b3565b5034610256576110f1366112d3565b906110fd939293611466565b825163a9059cbb60e01b60208083019182526001600160a01b03938416602484015260448084019590955293825292946080820193921691906001600160401b038085118286101761128f5760c082019081118582101761128f5785528584527f5361666545524332303a206c6f772d6c6576656c2063616c6c206661696c656460a0820152823b1561124c576111c39392889283809351925af13d15611244573d906111a982611404565b916111b686519384611342565b82523d888784013e6114d5565b8051806111ce578580f35b8184918101031261066257820151801590811503610662576111f05780808580f35b5162461bcd60e51b815291820152602a60248201527f5361666545524332303a204552433230206f7065726174696f6e20646964206e6044820152691bdd081cdd58d8d9595960b21b606482015260849150fd5b6060906114d5565b845162461bcd60e51b8152808801879052601d60248201527f416464726573733a2063616c6c20746f206e6f6e2d636f6e74726163740000006044820152606490fd5b634e487b7160e01b895260418852602489fd5b600435906001600160a01b03821682036112b857565b600080fd5b602435906001600160a01b03821682036112b857565b60609060031901126112b8576001600160a01b039060043582811681036112b8579160243590811681036112b8579060443590565b90600182811c92168015611338575b602083101461132257565b634e487b7160e01b600052602260045260246000fd5b91607f1691611317565b601f909101601f19168101906001600160401b0382119082101761136557604052565b634e487b7160e01b600052604160045260246000fd5b6020808252825181830181905290939260005b8281106113b057505060409293506000838284010152601f8019910116010190565b81810186015184820160400152850161138e565b6007548110156113df57600760005260206000200190600090565b634e487b7160e01b600052603260045260246000fd5b6024359081151582036112b857565b6001600160401b03811161136557601f01601f191660200190565b81601f820112156112b85780359061143682611404565b926114446040519485611342565b828452602083830101116112b857816000926020809301838601378301015290565b6000546001600160a01b0316330361147a57565b606460405162461bcd60e51b815260206004820152602060248201527f4f776e61626c653a2063616c6c6572206973206e6f7420746865206f776e65726044820152fd5b8181106114c9575050565b600081556001016114be565b909190156114e1575090565b8151156114f15750805190602001fd5b60405162461bcd60e51b815290819061150d906004830161137b565b0390fd5b9190820180921161151e57565b634e487b7160e01b600052601160045260246000fd5b9190820391821161151e57565b600019811461151e5760010190565b6001600160a01b0391821681529116602082015260400190565b929190600093338552600a60205260409460ff86822054166115ec576001600160a01b0382168082526006602090815287832033845290528682205485116115db576115d695968286926115d194526006602052818120338252602052205403338361175c565b61162a565b600190565b86516313be252b60e01b8152600490fd5b506115d693945061162a565b6001600160a01b031660009081526008602052604090205460ff1661162557600560205260406000205490565b600090565b916001600160a01b03808416929083158015611752575b6117405760009460ff865460a01c1661171a575b61165e906117cc565b611667826117cc565b8385526005602052604091838387205410611709579160ff816000805160206118a78339815191529593602095888a5260058752828a2086815403905516978881528181206116b7868254611511565b9055878152600886528282822054166116f5575b888152600886522054166116e1575b51908152a3565b6116ed82600454611511565b6004556116da565b61170185600454611534565b6004556116cb565b8251631e9acf1760e31b8152600490fd5b338652600a60205260ff6040872054166116555760405163d8f59fa560e01b8152600490fd5b60405163d92e233d60e01b8152600490fd5b5080821615611641565b90916001600160a01b0391821691821580156117c2575b611740577f8c5be1e5ebec7d5bd14f71427d1e84f3dd0314c0f7b2291e5b200ac8c7c3b925916020918460005260068352604060002095169485600052825280604060002055604051908152a3565b5080841615611773565b6000915b600754831015611881576117e3836113c4565b90546001600160a01b03949160031b1c8416803b156112b8576000946040908682518094635fd6196560e01b82526004938916848301528160249a8b925af1801561187657611843575b50505061183c91929350611541565b91906117d0565b6001600160401b038311611862575052919250829161183c388061182d565b60418791634e487b7160e01b600052526000fd5b82513d6000823e3d90fd5b91505056fe8be0079c531659141344cd1fd0a4f28419497f9722a3daafe3b4186f6b6457e0ddf252ad1be2c89b69c2b068fc378daa952ba7f163c4a11628f55a4df523b3efa2646970667358221220b725dc9774c0f728ab2437e44f80c9f52cd57a1ef03214daa8107fb75659357264736f6c63430008110033",
  "linkReferences": {},
  "deployedLinkReferences": {}
}