{
  "_format": "hh-sol-artifact-1",
  "contractName": "OrderBookReader",
  "sourceName": "contracts/core/OrderBookReader.sol",
  "abi": [
    {
      "inputs": [
        {
          "internalType": "address payable",
          "name": "_orderBookAddress",
          "type": "address"
        },
        {
          "internalType": "address",
          "name": "_account",
          "type": "address"
        },
        {
          "internalType": "uint256[]",
          "name": "_indices",
          "type": "uint256[]"
        }
      ],
      "name": "getDecreaseOrders",
      "outputs": [
        {
          "internalType": "uint256[]",
          "name": "",
          "type": "uint256[]"
        },
        {
          "internalType": "address[]",
          "name": "",
          "type": "address[]"
        }
      ],
      "stateMutability": "view",
      "type": "function"
    },
    {
      "inputs": [
        {
          "internalType": "address payable",
          "name": "_orderBookAddress",
          "type": "address"
        },
        {
          "internalType": "address",
          "name": "_account",
          "type": "address"
        },
        {
          "internalType": "uint256[]",
          "name": "_indices",
          "type": "uint256[]"
        }
      ],
      "name": "getIncreaseOrders",
      "outputs": [
        {
          "internalType": "uint256[]",
          "name": "",
          "type": "uint256[]"
        },
        {
          "internalType": "address[]",
          "name": "",
          "type": "address[]"
        }
      ],
      "stateMutability": "view",
      "type": "function"
    },
    {
      "inputs": [
        {
          "internalType": "address payable",
          "name": "_orderBookAddress",
          "type": "address"
        },
        {
          "internalType": "address",
          "name": "_account",
          "type": "address"
        },
        {
          "internalType": "uint256[]",
          "name": "_indices",
          "type": "uint256[]"
        }
      ],
      "name": "getSwapOrders",
      "outputs": [
        {
          "internalType": "uint256[]",
          "name": "",
          "type": "uint256[]"
        },
        {
          "internalType": "address[]",
          "name": "",
          "type": "address[]"
        }
      ],
      "stateMutability": "view",
      "type": "function"
    }
  ],
  "bytecode": "0x6080806040523461001657610bb0908161001c8239f35b600080fdfe6080604052600436101561001257600080fd5b60003560e01c80630ce933b9146106785780632e1814691461037c5763c38ccd501461003d57600080fd5b346103505761004b36610991565b604051929161005984610926565b600080855260208501526001600160a01b03166040840152600560608401526003608084015280516100939061008e90610aaf565b610ad3565b916100a761008e6080860151845190610ac0565b915b84518151811015610369576101206100c46100f59284610b05565b5160208801819052604080890151905163d3bab1d160e01b815293849283926001600160a01b031660048401610b50565b03816001600160a01b0387165afa90811561035d5760008092600092600094600080918c6000946000966102be575b5061013981606061013f935191015190610ac0565b8d610b05565b528b5160608d015161015091610ac0565b60018101811161029a57600161016791018c610b05565b52156102b75760015b6101808b5160608d015190610ac0565b9060028201821161029a57600260ff61019c921692018b610b05565b526101ad8a5160608c015190610ac0565b60038101811161029a5760036101c491018a610b05565b52156102b05760015b6101dd895160608b015190610ac0565b9060048201821161029a57600460ff6101f99216920189610b05565b5261021361020d895160808b015190610ac0565b87610b05565b6001600160a01b0390911690528651608088015161023091610ac0565b60018101811161029a576001610247910186610b05565b6001600160a01b0390911690528551608087015161026491610ac0565b60028101811161029a57600261027b910185610b05565b6001600160a01b039091169052845161029390610b6b565b85526100a9565b634e487b7160e01b600052601160045260246000fd5b60006101cd565b6000610170565b98505050505050505050610120813d61012011610355575b816102e46101209383610957565b81010312610350576102f581610b2f565b9060208101518761030860408401610b2f565b9361031560608501610b2f565b9360808101519561032860a08301610b43565b9061013f61013961034060e060c08701519601610b43565b9597929899939495969150610124565b600080fd5b3d91506102d6565b6040513d6000823e3d90fd5b60405180610378868883610a34565b0390f35b346103505761038a36610991565b6040519161039783610926565b600080845260208401526001600160a01b03166040830152600560608301526003608083015280516103cc9061008e90610aaf565b6103df61008e6080850151845190610ac0565b915b83518151811015610667576101206103fc61042d9284610b05565b5160208701819052604080880151905163686a066b60e11b815293849283926001600160a01b031660048401610b50565b03816001600160a01b038a165afa801561035d57600080916000936000806000916000936000956105d7575b5061047461046e8d6060815191015190610ac0565b8b610b05565b526104858b5160608d015190610ac0565b60018101811161029a57600161049c91018a610b05565b526104ad8a5160608c015190610ac0565b60028101811161029a5760026104c4910189610b05565b52156105d05760015b6104dd895160608b015190610ac0565b9060038201821161029a57600360ff6104f99216920188610b05565b52156105c95760015b610512885160608a015190610ac0565b9060048201821161029a57600460ff61052e9216920187610b05565b5261054261020d885160808a015190610ac0565b6001600160a01b0390911690528551608087015161055f91610ac0565b60018101811161029a576001610576910186610b05565b6001600160a01b0390911690528451608086015161059391610ac0565b60028101811161029a5760026105aa910185610b05565b6001600160a01b03909116905283516105c290610b6b565b84526103e1565b6000610502565b60006104cd565b975050505050505050610120813d6101201161065f575b816105fc6101209383610957565b810103126103505761060d81610b2f565b9061061a60208201610b2f565b61062660408301610b2f565b9160608101519360808201519160a081015161065060e061064960c08501610b43565b9301610b43565b9294959693909192938d610459565b3d91506105ee565b505061037860405192839283610a34565b346103505761068636610991565b6040519161069383610926565b600080845260208401526001600160a01b03166040830152600560608301526002608083015280516106c89061008e90610aaf565b6106db61008e6080850151845190610ac0565b915b83518151811015610667576101006106f86107299284610b05565b51602087018190526040808801519051630130197760e11b815293849283926001600160a01b031660048401610b50565b03816001600160a01b038a165afa801561035d57600090600092600093600080916000936000956108a5575b5061077061076a8c6060815191015190610ac0565b8a610b05565b526107818a5160608c015190610ac0565b60018101811161029a576001610798910189610b05565b521561089e5760015b6107b1895160608b015190610ac0565b9060028201821161029a57600260ff6107cd9216920188610b05565b526107de885160608a015190610ac0565b60038101811161029a5760036107f5910187610b05565b52156108975760015b61080e8751606089015190610ac0565b9060048201821161029a57600460ff61082a9216920186610b05565b5261084461083e8751608089015190610ac0565b86610b05565b6001600160a01b0390911690528451608086015161086191610ac0565b60018101811161029a576001610878910185610b05565b6001600160a01b039091169052835161089090610b6b565b84526106dd565b60006107fe565b60006107a1565b9650505050505050610100813d6101001161091e575b816108c96101009383610957565b81010312610350576108da81610b2f565b6020820151906108ec60408401610b2f565b906060840151936108ff60808201610b43565b61091060c060a08401519301610b43565b92949395909192938c610755565b3d91506108bb565b60a081019081106001600160401b0382111761094157604052565b634e487b7160e01b600052604160045260246000fd5b601f909101601f19168101906001600160401b0382119082101761094157604052565b6001600160401b0381116109415760051b60200190565b6060600319820112610350576001600160a01b039160043583811681036103505792602435908116810361035057916044356001600160401b0381116103505781602382011215610350578060040135916109eb8361097a565b926109f96040519485610957565b80845260209260248486019260051b82010192831161035057602401905b828210610a25575050505090565b81358152908301908301610a17565b6040810190604081528251809252606081019160208094019060005b818110610a9b575050508281830391015281808451928381520193019160005b828110610a7e575050505090565b83516001600160a01b031685529381019392810192600101610a70565b825185529385019391850191600101610a50565b908160050291600583040361029a57565b8181029291811591840414171561029a57565b90610add8261097a565b610aea6040519182610957565b8281528092610afb601f199161097a565b0190602036910137565b8051821015610b195760209160051b010190565b634e487b7160e01b600052603260045260246000fd5b51906001600160a01b038216820361035057565b5190811515820361035057565b6001600160a01b039091168152602081019190915260400190565b600019811461029a576001019056fea2646970667358221220eabbe5dbe4e419816bfcd463e69a4bb3fbb7ed5115fe2cc183c9a339f39cc12064736f6c63430008110033",
  "linkReferences": {},
  "deployedLinkReferences": {}
}