{
  "_format": "hh-sol-artifact-1",
  "contractName": "Reader",
  "sourceName": "contracts/peripherals/Reader.sol",
  "abi": [
    {
      "anonymous": false,
      "inputs": [
        {
          "indexed": true,
          "internalType": "address",
          "name": "previousOwner",
          "type": "address"
        },
        {
          "indexed": true,
          "internalType": "address",
          "name": "newOwner",
          "type": "address"
        }
      ],
      "name": "OwnershipTransferred",
      "type": "event"
    },
    {
      "inputs": [],
      "name": "BASIS_POINTS_DIVISOR",
      "outputs": [
        {
          "internalType": "uint16",
          "name": "",
          "type": "uint16"
        }
      ],
      "stateMutability": "view",
      "type": "function"
    },
    {
      "inputs": [],
      "name": "POSITION_PROPS_LENGTH",
      "outputs": [
        {
          "internalType": "uint8",
          "name": "",
          "type": "uint8"
        }
      ],
      "stateMutability": "view",
      "type": "function"
    },
    {
      "inputs": [],
      "name": "PRICE_PRECISION",
      "outputs": [
        {
          "internalType": "uint128",
          "name": "",
          "type": "uint128"
        }
      ],
      "stateMutability": "view",
      "type": "function"
    },
    {
      "inputs": [],
      "name": "USD_DECIMALS",
      "outputs": [
        {
          "internalType": "uint8",
          "name": "",
          "type": "uint8"
        }
      ],
      "stateMutability": "view",
      "type": "function"
    },
    {
      "inputs": [
        {
          "internalType": "address",
          "name": "_vault",
          "type": "address"
        },
        {
          "internalType": "address[]",
          "name": "_tokens",
          "type": "address[]"
        }
      ],
      "name": "getFees",
      "outputs": [
        {
          "internalType": "uint256[]",
          "name": "amounts",
          "type": "uint256[]"
        }
      ],
      "stateMutability": "view",
      "type": "function"
    },
    {
      "inputs": [
        {
          "internalType": "address",
          "name": "_vault",
          "type": "address"
        },
        {
          "internalType": "address",
          "name": "_weth",
          "type": "address"
        },
        {
          "internalType": "address[]",
          "name": "_tokens",
          "type": "address[]"
        }
      ],
      "name": "getFundingRates",
      "outputs": [
        {
          "internalType": "uint256[]",
          "name": "fundingRates",
          "type": "uint256[]"
        }
      ],
      "stateMutability": "view",
      "type": "function"
    },
    {
      "inputs": [
        {
          "internalType": "address",
          "name": "_vault",
          "type": "address"
        },
        {
          "internalType": "address",
          "name": "_account",
          "type": "address"
        },
        {
          "internalType": "address[]",
          "name": "_collateralTokens",
          "type": "address[]"
        },
        {
          "internalType": "address[]",
          "name": "_indexTokens",
          "type": "address[]"
        },
        {
          "internalType": "bool[]",
          "name": "_isLong",
          "type": "bool[]"
        }
      ],
      "name": "getPositions",
      "outputs": [
        {
          "internalType": "uint256[]",
          "name": "amounts",
          "type": "uint256[]"
        }
      ],
      "stateMutability": "view",
      "type": "function"
    },
    {
      "inputs": [
        {
          "internalType": "address",
          "name": "_account",
          "type": "address"
        },
        {
          "internalType": "address[]",
          "name": "_tokens",
          "type": "address[]"
        }
      ],
      "name": "getTokenBalances",
      "outputs": [
        {
          "internalType": "uint256[]",
          "name": "balances",
          "type": "uint256[]"
        }
      ],
      "stateMutability": "view",
      "type": "function"
    },
    {
      "inputs": [
        {
          "internalType": "address",
          "name": "_account",
          "type": "address"
        },
        {
          "internalType": "address[]",
          "name": "_tokens",
          "type": "address[]"
        }
      ],
      "name": "getTokenBalancesWithSupplies",
      "outputs": [
        {
          "internalType": "uint256[]",
          "name": "balances",
          "type": "uint256[]"
        }
      ],
      "stateMutability": "view",
      "type": "function"
    },
    {
      "inputs": [],
      "name": "hasMaxGlobalShortSizes",
      "outputs": [
        {
          "internalType": "bool",
          "name": "",
          "type": "bool"
        }
      ],
      "stateMutability": "view",
      "type": "function"
    },
    {
      "inputs": [],
      "name": "owner",
      "outputs": [
        {
          "internalType": "address",
          "name": "",
          "type": "address"
        }
      ],
      "stateMutability": "view",
      "type": "function"
    },
    {
      "inputs": [],
      "name": "renounceOwnership",
      "outputs": [],
      "stateMutability": "nonpayable",
      "type": "function"
    },
    {
      "inputs": [
        {
          "internalType": "bool",
          "name": "_hasMaxGlobalShortSizes",
          "type": "bool"
        }
      ],
      "name": "setConfig",
      "outputs": [],
      "stateMutability": "nonpayable",
      "type": "function"
    },
    {
      "inputs": [
        {
          "internalType": "address",
          "name": "newOwner",
          "type": "address"
        }
      ],
      "name": "transferOwnership",
      "outputs": [],
      "stateMutability": "nonpayable",
      "type": "function"
    }
  ],
  "bytecode": "0x6080806040523461005b5760008054336001600160a01b0319821681178355916001600160a01b03909116907f8be0079c531659141344cd1fd0a4f28419497f9722a3daafe3b4186f6b6457e09080a36111d990816100618239f35b600080fdfe608080604052600436101561001357600080fd5b60003560e01c908163126082cf14610f1b575080632e3e334214610d635780632f6ee69514610d47578063715018a614610d0057806386d4d0f514610c505780638da5cb5b14610c2757806395082d2514610bff57806395a7535a146107865780639b0183c314610741578063ad7e549714610725578063c6f1d676146106ff578063d802178e14610622578063dc383cab1461016d5763f2fde38b146100b957600080fd5b34610168576020366003190112610168576100d2610f36565b6100da61109d565b6001600160a01b03908116908115610114576000548260018060a01b031982161760005516600080516020611184833981519152600080a3005b60405162461bcd60e51b815260206004820152602660248201527f4f776e61626c653a206e6577206f776e657220697320746865207a65726f206160448201526564647265737360d01b6064820152608490fd5b600080fd5b346101685760a036600319011261016857610186610f36565b61018e610f4c565b906001600160401b03604435818111610168576101af903690600401610fb2565b91606435828111610168576101c8903690600401610fb2565b916084351161016857366023608435011215610168576101ed60843560040135610f9b565b6101fa6040519182610f62565b608435600401358152602081013660246084356004013560051b60843501011161016857602460843501905b60246084356004013560051b6084350101821061060757505061025161024c8551611160565b6110f5565b9460005b85518110156105f5576001600160a01b036102708288611136565b51166001600160a01b036102848388611136565b51166102908386611136565b51604051634a3f088d60e01b81526001600160a01b038681166004830152602482019490945260448101929092521515606482015290610100908290608490829089165afa908115610571576000906000806000916000948d600095600098610584575b50610308906103028a611160565b90611136565b5261031287611160565b60018101811161051357610329906001018e611136565b5261033386611160565b60028101811161051357600261034a91018d611136565b5261035485611160565b60038101811161051357600361036b91018c611136565b521561057d5760015b61037d84611160565b9060048201821161051357600460ff610399921692018b611136565b526103a383611160565b6005810181116105135760056103ba91018a611136565b526103c482611160565b6006810181116105135760066103db910189611136565b526103ee6103e882611160565b88611136565b51906103f981611160565b600281018111610513576002610410910189611136565b519161041b82611160565b60068101811161051357600661043291018a611136565b51908361044b575b50506104469150611127565b610255565b6001600160a01b0361045d848a611136565b51169361046a8488611136565b5115159160405195635c07eaab60e01b87526004870152602486015260448501526064840152608483015260408260a48160018060a01b0389165afa91821561057157600090600093610530575b50156105295760015b6104ca82611160565b9060078201821161051357600760ff6104e6921692018a611136565b526104f081611160565b916008830183116105135761050b600861044694018a611136565b52888061043a565b634e487b7160e01b600052601160045260246000fd5b60006104c1565b9250506040823d604011610569575b8161054c60409383610f62565b8101031261016857602061055f83611176565b92015191896104b8565b3d915061053f565b6040513d6000823e3d90fd5b6000610374565b975050505050505050610100813d610100116105ed575b816105a96101009383610f62565b8101031261016857808891516020820151604083015160608401519060a08501519261030860e06105dc60c08901611176565b9701519591929394969597906102f4565b3d915061059b565b604051806106038982611062565b0390f35b81351515823503610168578135815260209182019101610226565b346101685761063036611020565b9061063b82516110f5565b60005b83518110156106f1576001600160a01b03908161065b8287611136565b51169182156106df576040519283916370a0823160e01b83528616600483015281602460209384935afa908115610571576000916106af575b506106aa92506106a48285611136565b52611127565b61063e565b905082813d83116106d8575b6106c58183610f62565b81010312610168576106aa915186610694565b503d6106bb565b506106aa915083316106a48285611136565b604051806106038482611062565b3461016857600036600319011261016857602060ff60005460a01c166040519015158152f35b3461016857600036600319011261016857602060405160098152f35b34610168576020366003190112610168576004358015158091036101685761076761109d565b6000805460ff60a01b191660a09290921b60ff60a01b16919091179055005b346101685760603660031901126101685761079f610f36565b6107a7610f4c565b906044356001600160401b038111610168576107c7903690600401610fb2565b9182519260019184831b600295808204871490151715610513576107eb84916110f5565b946001600160a01b03908116936000925b61080e57604051806106038982611062565b8051831015610bfa57816108228483611136565b5116928315610bf2575b6040516342b60b0360e01b81529383166004850181905293602090602490828183818c5afa90811561057157600091610bbd575b5015610b665760405163134ca63b60e01b815282816004818c5afa90811561057157600091610b39575b505b60405163c3c7b9e960e01b815260048101889052838184818d5afa918215610571578391600093610b06575b50848b604051938480926352f55eed60e01b82528d60048301525afa91821561057157600092610ad7575b508115908115610a72575b505050506040519563c65bc7b160e01b808852816004890152838884818d5afa8015610571578b98600091610a41575b50610937575b5050505061093190611127565b926107fc565b90919293949596506040519163549d656160e11b8352806004840152848385818d5afa92831561057157600093610a12575b506040519182526004820152838184818c5afa938415610571576000946109e2575b505082018092116109ce5782881b908382048b14841517156109ce578882018092116109ce575091610931916109c4899695948b611136565b52908a8080610924565b634e487b7160e01b60009081526011600452fd5b9080929450813d8311610a0b575b6109fa8183610f62565b810103126101685751918b8061098b565b503d6109f0565b9092508481813d8311610a3a575b610a2a8183610f62565b810103126101685751918d610969565b503d610a20565b809950858092503d8311610a6b575b610a5a8183610f62565b81010312610168578a97518e61091e565b503d610a50565b838102938185041490151715610aad57610ac257848b1b918d8684041486151715610aad570490610aa3908c611136565b528b8080806108ee565b83634e487b7160e01b60005260116004526000fd5b82634e487b7160e01b60005260126004526000fd5b9091508481813d8311610aff575b610aef8183610f62565b810103126101685751908e6108e3565b503d610ae5565b85809294508193503d8311610b32575b610b208183610f62565b8101031261016857829051918e6108b8565b503d610b16565b90508281813d8311610b5f575b610b508183610f62565b8101031261016857518c61088a565b503d610b46565b60405163c4f718bf60e01b815282816004818c5afa90811561057157600091610b90575b5061088c565b90508281813d8311610bb6575b610ba78183610f62565b8101031261016857518c610b8a565b503d610b9d565b90508281813d8311610beb575b610bd48183610f62565b8101031261016857610be590611176565b8c610860565b503d610bca565b84935061082c565b6105f5565b346101685760003660031901126101685760405168327cb2734119d3b7a9601e1b8152602090f35b34610168576000366003190112610168576000546040516001600160a01b039091168152602090f35b3461016857610c5e36611020565b90610c6982516110f5565b60005b83518110156106f1576001600160a01b039081610c898287611136565b5116604051928391631ce9cb8f60e01b83526004830152816024602093849389165afa90811561057157600091610cd0575b50610ccb92506106a48285611136565b610c6c565b905082813d8311610cf9575b610ce68183610f62565b8101031261016857610ccb915186610cbb565b503d610cdc565b3461016857600036600319011261016857610d1961109d565b600080546001600160a01b0319811682556001600160a01b03166000805160206111848339815191528280a3005b34610168576000366003190112610168576020604051601e8152f35b3461016857610d7136611020565b908151600181811b60029280820484149015171561051357610d92906110f5565b926000825b610daa575b604051806106038782611062565b8551811015610f16576001600160a01b0380610dc68389611136565b5116908115610edc576040516370a0823160e01b8152908416600482015260209160249083838381845afa92831561057157600093610ead575b5084871b92858404891486151715610e98576004918591610e21868d611136565b526040516318160ddd60e01b815292839182905afa93841561057157600094610e68575b50508582018092116109ce575091610e62916106a4869489611136565b90610d97565b9080929450813d8311610e91575b610e808183610f62565b810103126101685751918980610e45565b503d610e76565b82634e487b7160e01b60005260116004526000fd5b9092508381813d8311610ed5575b610ec58183610f62565b810103126101685751918a610e00565b503d610ebb565b505080831b823182158383048714171561051357610efa8288611136565b5283810180911161051357839160006106a4610e629389611136565b610d9c565b34610168576000366003190112610168578061271060209252f35b600435906001600160a01b038216820361016857565b602435906001600160a01b038216820361016857565b601f909101601f19168101906001600160401b03821190821017610f8557604052565b634e487b7160e01b600052604160045260246000fd5b6001600160401b038111610f855760051b60200190565b81601f8201121561016857803591610fc983610f9b565b92610fd76040519485610f62565b808452602092838086019260051b820101928311610168578301905b828210611001575050505090565b81356001600160a01b0381168103610168578152908301908301610ff3565b906040600319830112610168576004356001600160a01b03811681036101685791602435906001600160401b0382116101685761105f91600401610fb2565b90565b6020908160408183019282815285518094520193019160005b828110611089575050505090565b83518552938101939281019260010161107b565b6000546001600160a01b031633036110b157565b606460405162461bcd60e51b815260206004820152602060248201527f4f776e61626c653a2063616c6c6572206973206e6f7420746865206f776e65726044820152fd5b906110ff82610f9b565b61110c6040519182610f62565b828152809261111d601f1991610f9b565b0190602036910137565b60001981146105135760010190565b805182101561114a5760209160051b010190565b634e487b7160e01b600052603260045260246000fd5b9060098202918083046009149015171561051357565b519081151582036101685756fe8be0079c531659141344cd1fd0a4f28419497f9722a3daafe3b4186f6b6457e0a264697066735822122047dd1a16c4ec490cfcb3d61576709733b0e64e20648babddc404d6ec0ff6b45b64736f6c63430008110033",
  "linkReferences": {},
  "deployedLinkReferences": {}
}