{
  "_format": "hh-sol-artifact-1",
  "contractName": "RewardTracker",
  "sourceName": "contracts/staking/RewardTracker.sol",
  "abi": [
    {
      "inputs": [
        {
          "internalType": "string",
          "name": "_name",
          "type": "string"
        },
        {
          "internalType": "string",
          "name": "_symbol",
          "type": "string"
        }
      ],
      "stateMutability": "nonpayable",
      "type": "constructor"
    },
    {
      "inputs": [],
      "name": "ActionNotEnabled",
      "type": "error"
    },
    {
      "inputs": [],
      "name": "AlreadyInitialized",
      "type": "error"
    },
    {
      "inputs": [],
      "name": "InsufficientAllowance",
      "type": "error"
    },
    {
      "inputs": [],
      "name": "InsufficientBalance",
      "type": "error"
    },
    {
      "inputs": [],
      "name": "InvalidAmount",
      "type": "error"
    },
    {
      "inputs": [],
      "name": "InvalidDepositToken",
      "type": "error"
    },
    {
      "inputs": [],
      "name": "InvalidHandler",
      "type": "error"
    },
    {
      "inputs": [],
      "name": "ZeroAddress",
      "type": "error"
    },
    {
      "inputs": [],
      "name": "ZeroAmount",
      "type": "error"
    },
    {
      "anonymous": false,
      "inputs": [
        {
          "indexed": true,
          "internalType": "address",
          "name": "owner",
          "type": "address"
        },
        {
          "indexed": true,
          "internalType": "address",
          "name": "spender",
          "type": "address"
        },
        {
          "indexed": false,
          "internalType": "uint256",
          "name": "value",
          "type": "uint256"
        }
      ],
      "name": "Approval",
      "type": "event"
    },
    {
      "anonymous": false,
      "inputs": [
        {
          "indexed": false,
          "internalType": "address",
          "name": "receiver",
          "type": "address"
        },
        {
          "indexed": false,
          "internalType": "uint256",
          "name": "amount",
          "type": "uint256"
        }
      ],
      "name": "Claim",
      "type": "event"
    },
    {
      "anonymous": false,
      "inputs": [
        {
          "indexed": true,
          "internalType": "address",
          "name": "previousOwner",
          "type": "address"
        },
        {
          "indexed": true,
          "internalType": "address",
          "name": "newOwner",
          "type": "address"
        }
      ],
      "name": "OwnershipTransferred",
      "type": "event"
    },
    {
      "anonymous": false,
      "inputs": [
        {
          "indexed": true,
          "internalType": "address",
          "name": "from",
          "type": "address"
        },
        {
          "indexed": true,
          "internalType": "address",
          "name": "to",
          "type": "address"
        },
        {
          "indexed": false,
          "internalType": "uint256",
          "name": "value",
          "type": "uint256"
        }
      ],
      "name": "Transfer",
      "type": "event"
    },
    {
      "inputs": [],
      "name": "BASIS_POINTS_DIVISOR",
      "outputs": [
        {
          "internalType": "uint16",
          "name": "",
          "type": "uint16"
        }
      ],
      "stateMutability": "view",
      "type": "function"
    },
    {
      "inputs": [],
      "name": "PRECISION",
      "outputs": [
        {
          "internalType": "uint128",
          "name": "",
          "type": "uint128"
        }
      ],
      "stateMutability": "view",
      "type": "function"
    },
    {
      "inputs": [
        {
          "internalType": "address",
          "name": "_owner",
          "type": "address"
        },
        {
          "internalType": "address",
          "name": "_spender",
          "type": "address"
        }
      ],
      "name": "allowance",
      "outputs": [
        {
          "internalType": "uint256",
          "name": "",
          "type": "uint256"
        }
      ],
      "stateMutability": "view",
      "type": "function"
    },
    {
      "inputs": [
        {
          "internalType": "address",
          "name": "",
          "type": "address"
        },
        {
          "internalType": "address",
          "name": "",
          "type": "address"
        }
      ],
      "name": "allowances",
      "outputs": [
        {
          "internalType": "uint256",
          "name": "",
          "type": "uint256"
        }
      ],
      "stateMutability": "view",
      "type": "function"
    },
    {
      "inputs": [
        {
          "internalType": "address",
          "name": "_spender",
          "type": "address"
        },
        {
          "internalType": "uint256",
          "name": "_amount",
          "type": "uint256"
        }
      ],
      "name": "approve",
      "outputs": [
        {
          "internalType": "bool",
          "name": "",
          "type": "bool"
        }
      ],
      "stateMutability": "nonpayable",
      "type": "function"
    },
    {
      "inputs": [
        {
          "internalType": "address",
          "name": "",
          "type": "address"
        }
      ],
      "name": "averageStakedAmounts",
      "outputs": [
        {
          "internalType": "uint256",
          "name": "",
          "type": "uint256"
        }
      ],
      "stateMutability": "view",
      "type": "function"
    },
    {
      "inputs": [
        {
          "internalType": "address",
          "name": "_account",
          "type": "address"
        }
      ],
      "name": "balanceOf",
      "outputs": [
        {
          "internalType": "uint256",
          "name": "",
          "type": "uint256"
        }
      ],
      "stateMutability": "view",
      "type": "function"
    },
    {
      "inputs": [
        {
          "internalType": "address",
          "name": "",
          "type": "address"
        }
      ],
      "name": "balances",
      "outputs": [
        {
          "internalType": "uint256",
          "name": "",
          "type": "uint256"
        }
      ],
      "stateMutability": "view",
      "type": "function"
    },
    {
      "inputs": [
        {
          "internalType": "address",
          "name": "_receiver",
          "type": "address"
        }
      ],
      "name": "claim",
      "outputs": [
        {
          "internalType": "uint256",
          "name": "",
          "type": "uint256"
        }
      ],
      "stateMutability": "nonpayable",
      "type": "function"
    },
    {
      "inputs": [
        {
          "internalType": "address",
          "name": "_account",
          "type": "address"
        },
        {
          "internalType": "address",
          "name": "_receiver",
          "type": "address"
        }
      ],
      "name": "claimForAccount",
      "outputs": [
        {
          "internalType": "uint256",
          "name": "",
          "type": "uint256"
        }
      ],
      "stateMutability": "nonpayable",
      "type": "function"
    },
    {
      "inputs": [
        {
          "internalType": "address",
          "name": "_account",
          "type": "address"
        }
      ],
      "name": "claimable",
      "outputs": [
        {
          "internalType": "uint256",
          "name": "",
          "type": "uint256"
        }
      ],
      "stateMutability": "view",
      "type": "function"
    },
    {
      "inputs": [
        {
          "internalType": "address",
          "name": "",
          "type": "address"
        }
      ],
      "name": "claimableReward",
      "outputs": [
        {
          "internalType": "uint256",
          "name": "",
          "type": "uint256"
        }
      ],
      "stateMutability": "view",
      "type": "function"
    },
    {
      "inputs": [],
      "name": "cumulativeRewardPerToken",
      "outputs": [
        {
          "internalType": "uint256",
          "name": "",
          "type": "uint256"
        }
      ],
      "stateMutability": "view",
      "type": "function"
    },
    {
      "inputs": [
        {
          "internalType": "address",
          "name": "",
          "type": "address"
        }
      ],
      "name": "cumulativeRewards",
      "outputs": [
        {
          "internalType": "uint256",
          "name": "",
          "type": "uint256"
        }
      ],
      "stateMutability": "view",
      "type": "function"
    },
    {
      "inputs": [],
      "name": "decimals",
      "outputs": [
        {
          "internalType": "uint8",
          "name": "",
          "type": "uint8"
        }
      ],
      "stateMutability": "pure",
      "type": "function"
    },
    {
      "inputs": [
        {
          "internalType": "address",
          "name": "",
          "type": "address"
        },
        {
          "internalType": "address",
          "name": "",
          "type": "address"
        }
      ],
      "name": "depositBalances",
      "outputs": [
        {
          "internalType": "uint256",
          "name": "",
          "type": "uint256"
        }
      ],
      "stateMutability": "view",
      "type": "function"
    },
    {
      "inputs": [],
      "name": "distributor",
      "outputs": [
        {
          "internalType": "address",
          "name": "",
          "type": "address"
        }
      ],
      "stateMutability": "view",
      "type": "function"
    },
    {
      "inputs": [],
      "name": "inPrivateClaimingMode",
      "outputs": [
        {
          "internalType": "bool",
          "name": "",
          "type": "bool"
        }
      ],
      "stateMutability": "view",
      "type": "function"
    },
    {
      "inputs": [],
      "name": "inPrivateStakingMode",
      "outputs": [
        {
          "internalType": "bool",
          "name": "",
          "type": "bool"
        }
      ],
      "stateMutability": "view",
      "type": "function"
    },
    {
      "inputs": [],
      "name": "inPrivateTransferMode",
      "outputs": [
        {
          "internalType": "bool",
          "name": "",
          "type": "bool"
        }
      ],
      "stateMutability": "view",
      "type": "function"
    },
    {
      "inputs": [
        {
          "internalType": "address[]",
          "name": "_depositTokens",
          "type": "address[]"
        },
        {
          "internalType": "address",
          "name": "_distributor",
          "type": "address"
        }
      ],
      "name": "initialize",
      "outputs": [],
      "stateMutability": "nonpayable",
      "type": "function"
    },
    {
      "inputs": [
        {
          "internalType": "address",
          "name": "",
          "type": "address"
        }
      ],
      "name": "isDepositToken",
      "outputs": [
        {
          "internalType": "bool",
          "name": "",
          "type": "bool"
        }
      ],
      "stateMutability": "view",
      "type": "function"
    },
    {
      "inputs": [
        {
          "internalType": "address",
          "name": "",
          "type": "address"
        }
      ],
      "name": "isHandler",
      "outputs": [
        {
          "internalType": "bool",
          "name": "",
          "type": "bool"
        }
      ],
      "stateMutability": "view",
      "type": "function"
    },
    {
      "inputs": [],
      "name": "isInitialized",
      "outputs": [
        {
          "internalType": "bool",
          "name": "",
          "type": "bool"
        }
      ],
      "stateMutability": "view",
      "type": "function"
    },
    {
      "inputs": [],
      "name": "name",
      "outputs": [
        {
          "internalType": "string",
          "name": "",
          "type": "string"
        }
      ],
      "stateMutability": "view",
      "type": "function"
    },
    {
      "inputs": [],
      "name": "owner",
      "outputs": [
        {
          "internalType": "address",
          "name": "",
          "type": "address"
        }
      ],
      "stateMutability": "view",
      "type": "function"
    },
    {
      "inputs": [
        {
          "internalType": "address",
          "name": "",
          "type": "address"
        }
      ],
      "name": "previousCumulatedRewardPerToken",
      "outputs": [
        {
          "internalType": "uint256",
          "name": "",
          "type": "uint256"
        }
      ],
      "stateMutability": "view",
      "type": "function"
    },
    {
      "inputs": [],
      "name": "renounceOwnership",
      "outputs": [],
      "stateMutability": "nonpayable",
      "type": "function"
    },
    {
      "inputs": [],
      "name": "rewardToken",
      "outputs": [
        {
          "internalType": "address",
          "name": "",
          "type": "address"
        }
      ],
      "stateMutability": "view",
      "type": "function"
    },
    {
      "inputs": [
        {
          "internalType": "address",
          "name": "_depositToken",
          "type": "address"
        },
        {
          "internalType": "bool",
          "name": "_isDepositToken",
          "type": "bool"
        }
      ],
      "name": "setDepositToken",
      "outputs": [],
      "stateMutability": "nonpayable",
      "type": "function"
    },
    {
      "inputs": [
        {
          "internalType": "address",
          "name": "_handler",
          "type": "address"
        },
        {
          "internalType": "bool",
          "name": "_isActive",
          "type": "bool"
        }
      ],
      "name": "setHandler",
      "outputs": [],
      "stateMutability": "nonpayable",
      "type": "function"
    },
    {
      "inputs": [
        {
          "internalType": "bool",
          "name": "_inPrivateClaimingMode",
          "type": "bool"
        }
      ],
      "name": "setInPrivateClaimingMode",
      "outputs": [],
      "stateMutability": "nonpayable",
      "type": "function"
    },
    {
      "inputs": [
        {
          "internalType": "bool",
          "name": "_inPrivateStakingMode",
          "type": "bool"
        }
      ],
      "name": "setInPrivateStakingMode",
      "outputs": [],
      "stateMutability": "nonpayable",
      "type": "function"
    },
    {
      "inputs": [
        {
          "internalType": "bool",
          "name": "_inPrivateTransferMode",
          "type": "bool"
        }
      ],
      "name": "setInPrivateTransferMode",
      "outputs": [],
      "stateMutability": "nonpayable",
      "type": "function"
    },
    {
      "inputs": [
        {
          "internalType": "address",
          "name": "_depositToken",
          "type": "address"
        },
        {
          "internalType": "uint256",
          "name": "_amount",
          "type": "uint256"
        }
      ],
      "name": "stake",
      "outputs": [],
      "stateMutability": "nonpayable",
      "type": "function"
    },
    {
      "inputs": [
        {
          "internalType": "address",
          "name": "_fundingAccount",
          "type": "address"
        },
        {
          "internalType": "address",
          "name": "_account",
          "type": "address"
        },
        {
          "internalType": "address",
          "name": "_depositToken",
          "type": "address"
        },
        {
          "internalType": "uint256",
          "name": "_amount",
          "type": "uint256"
        }
      ],
      "name": "stakeForAccount",
      "outputs": [],
      "stateMutability": "nonpayable",
      "type": "function"
    },
    {
      "inputs": [
        {
          "internalType": "address",
          "name": "",
          "type": "address"
        }
      ],
      "name": "stakedAmounts",
      "outputs": [
        {
          "internalType": "uint256",
          "name": "",
          "type": "uint256"
        }
      ],
      "stateMutability": "view",
      "type": "function"
    },
    {
      "inputs": [],
      "name": "symbol",
      "outputs": [
        {
          "internalType": "string",
          "name": "",
          "type": "string"
        }
      ],
      "stateMutability": "view",
      "type": "function"
    },
    {
      "inputs": [],
      "name": "tokensPerInterval",
      "outputs": [
        {
          "internalType": "uint256",
          "name": "",
          "type": "uint256"
        }
      ],
      "stateMutability": "view",
      "type": "function"
    },
    {
      "inputs": [
        {
          "internalType": "address",
          "name": "",
          "type": "address"
        }
      ],
      "name": "totalDepositSupply",
      "outputs": [
        {
          "internalType": "uint256",
          "name": "",
          "type": "uint256"
        }
      ],
      "stateMutability": "view",
      "type": "function"
    },
    {
      "inputs": [],
      "name": "totalSupply",
      "outputs": [
        {
          "internalType": "uint256",
          "name": "",
          "type": "uint256"
        }
      ],
      "stateMutability": "view",
      "type": "function"
    },
    {
      "inputs": [
        {
          "internalType": "address",
          "name": "_recipient",
          "type": "address"
        },
        {
          "internalType": "uint256",
          "name": "_amount",
          "type": "uint256"
        }
      ],
      "name": "transfer",
      "outputs": [
        {
          "internalType": "bool",
          "name": "",
          "type": "bool"
        }
      ],
      "stateMutability": "nonpayable",
      "type": "function"
    },
    {
      "inputs": [
        {
          "internalType": "address",
          "name": "_sender",
          "type": "address"
        },
        {
          "internalType": "address",
          "name": "_recipient",
          "type": "address"
        },
        {
          "internalType": "uint256",
          "name": "_amount",
          "type": "uint256"
        }
      ],
      "name": "transferFrom",
      "outputs": [
        {
          "internalType": "bool",
          "name": "",
          "type": "bool"
        }
      ],
      "stateMutability": "nonpayable",
      "type": "function"
    },
    {
      "inputs": [
        {
          "internalType": "address",
          "name": "newOwner",
          "type": "address"
        }
      ],
      "name": "transferOwnership",
      "outputs": [],
      "stateMutability": "nonpayable",
      "type": "function"
    },
    {
      "inputs": [
        {
          "internalType": "address",
          "name": "_depositToken",
          "type": "address"
        },
        {
          "internalType": "uint256",
          "name": "_amount",
          "type": "uint256"
        }
      ],
      "name": "unstake",
      "outputs": [],
      "stateMutability": "nonpayable",
      "type": "function"
    },
    {
      "inputs": [
        {
          "internalType": "address",
          "name": "_account",
          "type": "address"
        },
        {
          "internalType": "address",
          "name": "_depositToken",
          "type": "address"
        },
        {
          "internalType": "uint256",
          "name": "_amount",
          "type": "uint256"
        },
        {
          "internalType": "address",
          "name": "_receiver",
          "type": "address"
        }
      ],
      "name": "unstakeForAccount",
      "outputs": [],
      "stateMutability": "nonpayable",
      "type": "function"
    },
    {
      "inputs": [],
      "name": "updateRewards",
      "outputs": [],
      "stateMutability": "nonpayable",
      "type": "function"
    },
    {
      "inputs": [
        {
          "internalType": "address",
          "name": "_token",
          "type": "address"
        },
        {
          "internalType": "address",
          "name": "_account",
          "type": "address"
        },
        {
          "internalType": "uint256",
          "name": "_amount",
          "type": "uint256"
        }
      ],
      "name": "withdrawToken",
      "outputs": [],
      "stateMutability": "nonpayable",
      "type": "function"
    }
  ],
  "bytecode": "0x6080604052346200036a576200214a803803806200001d816200036f565b9283398101906040818303126200036a5780516001600160401b0391908281116200036a578362000050918301620003ab565b90602093848201518481116200036a576200006c9201620003ab565b600160008181558154336001600160a01b031982168117845592949392906001600160a01b03167f8be0079c531659141344cd1fd0a4f28419497f9722a3daafe3b4186f6b6457e08380a382518581116200035657600654938585811c951680156200034b575b8886101462000337578190601f95868111620002e3575b5088908683116001146200027d57849262000271575b5050600019600383901b1c191690851b176006555b81519485116200025d576007548481811c9116801562000252575b878210146200023e57838111620001f5575b50859285116001146200018c57939450849291908362000180575b50501b916000199060031b1c1916176007555b604051611d2c90816200041e8239f35b0151925038806200015d565b6007815285812093958591601f198316915b88838310620001da5750505010620001c0575b505050811b0160075562000170565b015160001960f88460031b161c19169055388080620001b1565b8587015188559096019594850194879350908101906200019e565b600782528682208480880160051c82019289891062000234575b0160051c019085905b8281106200022857505062000142565b83815501859062000218565b925081926200020f565b634e487b7160e01b82526022600452602482fd5b90607f169062000130565b634e487b7160e01b81526041600452602490fd5b01519050388062000100565b600685528985208894509190601f198416865b8c828210620002cc5750508411620002b2575b505050811b0160065562000115565b015160001960f88460031b161c19169055388080620002a3565b8385015186558b9790950194938401930162000290565b909150600684528884208680850160051c8201928b86106200032d575b918991869594930160051c01915b8281106200031e575050620000ea565b8681558594508991016200030e565b9250819262000300565b634e487b7160e01b83526022600452602483fd5b94607f1694620000d3565b634e487b7160e01b82526041600452602482fd5b600080fd5b6040519190601f01601f191682016001600160401b038111838210176200039557604052565b634e487b7160e01b600052604160045260246000fd5b919080601f840112156200036a5782516001600160401b0381116200039557602090620003e1601f8201601f191683016200036f565b928184528282870101116200036a5760005b8181106200040957508260009394955001015290565b8581018301518482018401528201620003f356fe6040608081526004908136101561001557600080fd5b600091823560e01c90816301e3366714610f4d57816306fdde0314610eac578163095ea7b314610e82578163098bf59d14610e2457816310c1c10314610dec578163126082cf14610dcf57816313e82e7a14610d8457816318160ddd14610d655781631d30d5bc14610d295781631e83409a14610cc957816323b872dd14610ca457816327e235e314610904578163313ce56714610c885781633792def314610c50578163392e53cd14610c295781633cd7f70014610beb5781633e158b0c14610bc0578163402914f514610b9357816344a0841114610b5b578163462d0b2e146109e757816346ea87af146109a9578163552ce1dc1461097157816355b6ed5c146104595781635a47a1a71461093c57816370a0823114610904578163715018a6146108b9578163790b5a6c146108555781638da5cb5b1461082c57816395d89b41146107475781639cb7de4b146106f5578163a3180217146106bd578163a8d936271461062e578163a9059cbb146105fd578163aaf5eb68146105d6578163adc9772e1461058d578163b89e45b31461054f578163bfe1092814610526578163c2a672e0146104c9578163c5fa2730146104a2578163dd62ed3e14610459578163dfbaefb114610435578163e44b7558146103e0578163e9503425146103a8578163f2fde38b146102f4578163f5d9d63e146102a757508063f5fc507614610289578063f76033d3146102635763f7c618c11461023357600080fd5b3461025f578160031936011261025f5760209061024e61155f565b90516001600160a01b039091168152f35b5080fd5b503461025f578160031936011261025f5760209060ff60115460101c1690519015158152f35b503461025f578160031936011261025f57602090600b549051908152f35b9050346102f057816003193601126102f05760209282916102c6610f76565b6102ce610f91565b6001600160a01b03918216845291865283832091168252845220549051908152f35b8280fd5b9050346102f05760203660031901126102f05761030f610f76565b9061031861107c565b6001600160a01b03918216928315610356575050600180546001600160a01b03198116841790915516600080516020611cb78339815191528380a380f35b906020608492519162461bcd60e51b8352820152602660248201527f4f776e61626c653a206e6577206f776e657220697320746865207a65726f206160448201526564647265737360d01b6064820152fd5b50503461025f57602036600319011261025f5760209181906001600160a01b036103d0610f76565b168152600d845220549051908152f35b50503461025f578060031936011261025f57610432906103fe610f76565b9061040761106d565b9161041061107c565b60018060a01b03168452600360205283209060ff801983541691151516179055565b80f35b50503461025f578160031936011261025f5760209060ff6011541690519015158152f35b50503461025f578060031936011261025f5780602092610477610f76565b61047f610f91565b6001600160a01b039182168352600a865283832091168252845220549051908152f35b50503461025f578160031936011261025f5760209060ff60115460081c1690519015158152f35b9050346102f057816003193601126102f0576104e3610f76565b916104f26002855414156112fc565b6002845560ff60115460081c1661051957836105123360243586826118eb565b6001815580f35b5163dd58e5db60e01b8152fd5b50503461025f578160031936011261025f5760025490516001600160a01b039091168152602090f35b50503461025f57602036600319011261025f5760209160ff9082906001600160a01b0361057a610f76565b1681526003855220541690519015158152f35b9050346102f057816003193601126102f0576105a7610f76565b916105b66002855414156112fc565b6002845560ff60115460081c166105195783610512602435853380611793565b50503461025f578160031936011261025f575168327cb2734119d3b7a9601e1b8152602090f35b50503461025f578060031936011261025f5760209061062761061d610f76565b602435903361166c565b5160018152f35b919050346102f057826003193601126102f057600254815163a8d9362760e01b81529260209184919082906001600160a01b03165afa9182156106b357839261067c575b6020838351908152f35b9091506020813d82116106ab575b8161069760209383610fdc565b810103126102f05760209250519038610672565b3d915061068a565b81513d85823e3d90fd5b50503461025f57602036600319011261025f5760209181906001600160a01b036106e5610f76565b1681526010845220549051908152f35b50503461025f578060031936011261025f5761043290610713610f76565b9061071c61106d565b9161072561107c565b60018060a01b03168452601260205283209060ff801983541691151516179055565b919050346102f057826003193601126102f057805191836007549060019082821c928281168015610822575b602095868610821461080f57508488529081156107ed57506001146107b2575b6107ae86866107a4828b0383610fdc565b5191829182611015565b0390f35b929550600783528583205b8284106107da57505050826107ae946107a4928201019438610793565b80548685018801529286019281016107bd565b60ff191687860152505050151560051b83010192506107a4826107ae38610793565b634e487b7160e01b845260229052602483fd5b93607f1693610773565b50503461025f578160031936011261025f5760015490516001600160a01b039091168152602090f35b83346108b65760803660031901126108b65761086f610f76565b610877610f91565b906044356001600160a01b03811681036108b2576105129261089d6002865414156112fc565b600285556108a9611c8b565b60643592611793565b8380fd5b80fd5b83346108b657806003193601126108b6576108d261107c565b600180546001600160a01b0319811690915581906001600160a01b0316600080516020611cb78339815191528280a380f35b50503461025f57602036600319011261025f5760209181906001600160a01b0361092c610f76565b1681526009845220549051908152f35b83346108b65760203660031901126108b65761095661105e565b61095e61107c565b60ff801960115416911515161760115580f35b50503461025f57602036600319011261025f5760209181906001600160a01b03610999610f76565b1681526005845220549051908152f35b50503461025f57602036600319011261025f5760209160ff9082906001600160a01b036109d4610f76565b1681526012855220541690519015158152f35b83833461025f578060031936011261025f578235926001600160401b03918285116108b257366023860112156108b25784820135928311610b485760059183831b91805196602095610a3b8786018a610fdc565b88528588016024809583010191368311610b44578501905b828210610b2157505050610a65610f91565b94610a6e61107c565b60019485549860ff8a60a01c16610b125760ff60a01b19909916600160a01b1786559697889790865b610abb575b600280546001600160a01b0319166001600160a01b038a161790558880f35b80518a1015610b0d5789821b81018301516001600160a01b0316895260038352838920805460ff1916881790556000198a14610afb579886019886610a97565b634e487b7160e01b8952601185528589fd5b610a9c565b5050505162dc149f60e41b8152fd5b81356001600160a01b0381168103610b40578152908701908701610a53565b8980fd5b8880fd5b634e487b7160e01b845260418252602484fd5b50503461025f57602036600319011261025f5760209181906001600160a01b03610b83610f76565b168152600e845220549051908152f35b50503461025f57602036600319011261025f57602090610bb9610bb4610f76565b61145b565b9051908152f35b83346108b657806003193601126108b657610bdf6002825414156112fc565b60028155610512611a2d565b83346108b65760203660031901126108b657610c0561105e565b610c0d61107c565b62ff000060115491151560101b169062ff000019161760115580f35b50503461025f578160031936011261025f5760209060ff60015460a01c1690519015158152f35b50503461025f57602036600319011261025f5760209181906001600160a01b03610c78610f76565b168152600f845220549051908152f35b50503461025f578160031936011261025f576020905160128152f35b50503461025f57602090610cc0610cba36610fa7565b91611348565b90519015158152f35b83833461025f57602036600319011261025f57610ce4610f76565b92610cf36002845414156112fc565b6002835560ff60115460101c16610d1b57506001610d13602094336115e1565b925551908152f35b905163dd58e5db60e01b8152fd5b83346108b65760203660031901126108b657610d4361105e565b610d4b61107c565b61ff0060115491151560081b169061ff0019161760115580f35b50503461025f578160031936011261025f576020906008549051908152f35b50503461025f578060031936011261025f57906020916001610d13610da7610f76565b610daf610f91565b90610dbe6002875414156112fc565b60028655610dca611c8b565b6115e1565b50503461025f578160031936011261025f57602090516127108152f35b50503461025f57602036600319011261025f5760209181906001600160a01b03610e14610f76565b168152600c845220549051908152f35b83346108b65760803660031901126108b657610e3e610f76565b610e46610f91565b90606435906001600160a01b03821682036108b25761051292610e6d6002865414156112fc565b60028555610e79611c8b565b604435916118eb565b50503461025f578060031936011261025f57602090610627610ea2610f76565b6024359033611723565b919050346102f057826003193601126102f057805191836006549060019082821c928281168015610f43575b602095868610821461080f57508488529081156107ed5750600114610f08576107ae86866107a4828b0383610fdc565b929550600683528583205b828410610f3057505050826107ae946107a4928201019438610793565b8054868501880152928601928101610f13565b93607f1693610ed8565b83346108b657610432610f5f36610fa7565b91610f6861107c565b6001600160a01b03166110ef565b600435906001600160a01b0382168203610f8c57565b600080fd5b602435906001600160a01b0382168203610f8c57565b6060906003190112610f8c576001600160a01b03906004358281168103610f8c57916024359081168103610f8c579060443590565b601f909101601f19168101906001600160401b03821190821017610fff57604052565b634e487b7160e01b600052604160045260246000fd5b6020808252825181830181905290939260005b82811061104a57505060409293506000838284010152601f8019910116010190565b818101860151848201604001528501611028565b600435908115158203610f8c57565b602435908115158203610f8c57565b6001546001600160a01b0316330361109057565b606460405162461bcd60e51b815260206004820152602060248201527f4f776e61626c653a2063616c6c6572206973206e6f7420746865206f776e65726044820152fd5b6001600160a01b039091168152602081019190915260400190565b611124611129939261111660405194859263a9059cbb60e01b6020850152602484016110d4565b03601f198101845283610fdc565b61112b565b565b604080516001600160a01b03929092169290916001600160401b0381840181811183821017610fff5784526020948583527f5361666545524332303a206c6f772d6c6576656c2063616c6c206661696c656486840152803b1561127c5760008481959282898195519301915af13d1561126e573d91821161125a57906111cf92918551916111c288601f19601f8401160184610fdc565b82523d858884013e6112c0565b8051806111de575b5050505050565b8185918101031261025f57830151908115918215036108b65750611204578080806111d7565b60849250519062461bcd60e51b82526004820152602a60248201527f5361666545524332303a204552433230206f7065726174696f6e20646964206e6044820152691bdd081cdd58d8d9595960b21b6064820152fd5b634e487b7160e01b84526041600452602484fd5b6111cf9291506060906112c0565b845162461bcd60e51b815260048101879052601d60248201527f416464726573733a2063616c6c20746f206e6f6e2d636f6e74726163740000006044820152606490fd5b909190156112cc575090565b8151156112dc5750805190602001fd5b60405162461bcd60e51b81529081906112f89060048301611015565b0390fd5b1561130357565b60405162461bcd60e51b815260206004820152601f60248201527f5265656e7472616e637947756172643a207265656e7472616e742063616c6c006044820152606490fd5b929190600093338552601260205260409460ff86822054166113ca576001600160a01b038216808252600a602090815287832033845290528682205485116113b9576113b495968286926113af9452600a6020528181203382526020522054033383611723565b61166c565b600190565b86516313be252b60e01b8152600490fd5b506113b493945061166c565b68327cb2734119d3b7a9601e1b8082029291801590840490911417156113f857565b634e487b7160e01b600052601160045260246000fd5b818102929181159184041417156113f857565b811561142b570490565b634e487b7160e01b600052601260045260246000fd5b919082018092116113f857565b919082039182116113f857565b6001600160a01b039081166000818152600c602090815260408083205492959491939183156115505760048560085492600254168451928380926376f69fed60e11b82525afa908115611546578891611513575b5092611510969794926114de611503936114d86114ce611509986113d6565b91600b5492611421565b90611441565b918652600d8752600e81872054975268327cb2734119d3b7a9601e1b9520549061144e565b9061140e565b0490611441565b90565b90508581813d831161153f575b61152a8183610fdc565b8101031261153b57516115106114af565b8780fd5b503d611520565b83513d8a823e3d90fd5b50600d90935250509091205490565b60025460405163f7c618c160e01b81526001600160a01b03916020908290600490829086165afa9081156115d55760009161159b575b50905090565b6020813d82116115cd575b816115b360209383610fdc565b8101031261025f575191821682036108b657508038611595565b3d91506115a6565b6040513d6000823e3d90fd5b906115eb82611adf565b6001600160a01b038281166000908152600d6020526040812080549190559290918391908261161c575b5050505090565b82611651917f47cee97cb7acd717b3c0aa1435d004cd5b3c8c57d70dbceb4e4458bbd60e39d49561164b61155f565b166110ef565b611660604051928392836110d4565b0390a138818180611615565b6001600160a01b03908116919082158015611719575b6117075760ff601154166116fa575b6000938385526009602052806040862054106116e8576040602092600080516020611cd783398151915294868852600985528288208481540390551695868152206116dd828254611441565b9055604051908152a3565b604051631e9acf1760e31b8152600490fd5b611702611c8b565b611691565b60405163d92e233d60e01b8152600490fd5b5080821615611682565b90916001600160a01b039182169182158015611789575b611707577f8c5be1e5ebec7d5bd14f71427d1e84f3dd0314c0f7b2291e5b200ac8c7c3b9259160209184600052600a8352604060002095169485600052825280604060002055604051908152a3565b508084161561173a565b9280156118d95760018060a01b03809316936000938585526020936003855260409260ff8488205416156118c95783516323b872dd60e01b8782015290831660248201523060448201526064808201869052815260a081016001600160401b038111828210176118b5578452611809908861112b565b61181281611adf565b1694858552600c8452818520611829848254611441565b9055858552600484528185208186528452818520611848848254611441565b905584526005835280842061185e838254611441565b905584156118a55790600080516020611cd7833981519152929161188482600854611441565b6008558585526009835280852061189c838254611441565b905551908152a3565b5163d92e233d60e01b8152600490fd5b634e487b7160e01b88526041600452602488fd5b835162de080760e01b8152600490fd5b604051631f2a200560e01b8152600490fd5b93929082156118d95760018060a01b03809116906000908282526020906003825260409760ff898520541615611a1d5761192481611adf565b1690818352600c815287832054868110611a0c57866119429161144e565b828452600c82528884205560048152878320848452815287832054868110611a0c578661196e9161144e565b828452600482528884208585528252888420556005815287832061199387825461144e565b905581156119fb57818352600981528588842054106119ea57600080516020611cd7833981519152906111299798838552600982528085208881540390556119dd8860085461144e565b60085551878152a36110ef565b8751631e9acf1760e31b8152600490fd5b875163d92e233d60e01b8152600490fd5b885163162908e360e11b8152600490fd5b885162de080760e01b8152600490fd5b60025460405163e4fc6b6d60e01b815290602090829060049082906000906001600160a01b03165af19081156115d557600091611aae575b50600854600b549181151580611aa5575b611a84575b50501561112957565b611a9a9291611a956114d8926113d6565b611421565b80600b553880611a7b565b50801515611a76565b906020823d8211611ad7575b81611ac760209383610fdc565b810103126108b657505138611a65565b3d9150611aba565b60018060a01b03806002541660409182519063e4fc6b6d60e01b82526020948583600481600080985af1928315611c81578493611c52575b50600854600b549381151580611c49575b611c2b575b50508215611c23571680611b42575050505050565b808352600c85528383205490600e865268327cb2734119d3b7a9601e1b611b75611b6f878720548661144e565b8461140e565b0492818552600d8752611b8b8487872054611441565b90828652600d88528187872055600e885286862055151580611c13575b611bb3575b506111d7565b611bfa86926114d887611a95600f97888852611bf48a611a95611bd98487842054611441565b9e8f96838c899552601083528e82822054935220549061140e565b9461140e565b9084526010825284842055522055388080808080611bad565b50600c8652848420541515611ba8565b505050505050565b611c3d929491611a956114d8926113d6565b9182600b553880611b2d565b50801515611b28565b9092508581813d8311611c7a575b611c6a8183610fdc565b810103126108b257519138611b17565b503d611c60565b85513d86823e3d90fd5b33600052601260205260ff6040600020541615611ca457565b60405163d8f59fa560e01b8152600490fdfe8be0079c531659141344cd1fd0a4f28419497f9722a3daafe3b4186f6b6457e0ddf252ad1be2c89b69c2b068fc378daa952ba7f163c4a11628f55a4df523b3efa2646970667358221220f4b49d32680b8eb2baec70c4a99692219f1d393b043f4cbeb69c3c85e3f789b964736f6c63430008110033",
  "linkReferences": {},
  "deployedLinkReferences": {}
}