{
  "_format": "hh-sol-artifact-1",
  "contractName": "RewardReader",
  "sourceName": "contracts/peripherals/RewardReader.sol",
  "abi": [
    {
      "inputs": [
        {
          "internalType": "address",
          "name": "_account",
          "type": "address"
        },
        {
          "internalType": "address[]",
          "name": "_depositTokens",
          "type": "address[]"
        },
        {
          "internalType": "address[]",
          "name": "_rewardTrackers",
          "type": "address[]"
        }
      ],
      "name": "getDepositBalances",
      "outputs": [
        {
          "internalType": "uint256[]",
          "name": "",
          "type": "uint256[]"
        }
      ],
      "stateMutability": "view",
      "type": "function"
    },
    {
      "inputs": [
        {
          "internalType": "address",
          "name": "_account",
          "type": "address"
        },
        {
          "internalType": "address[]",
          "name": "_rewardTrackers",
          "type": "address[]"
        }
      ],
      "name": "getStakingInfo",
      "outputs": [
        {
          "internalType": "uint256[]",
          "name": "",
          "type": "uint256[]"
        }
      ],
      "stateMutability": "view",
      "type": "function"
    }
  ],
  "bytecode": "0x6080806040523461001657610668908161001c8239f35b600080fdfe60406080815260048036101561001457600080fd5b600091823560e01c8063575157e4146103705763937a0be81461003657600080fd5b3461036c578060031936011261036c5761004e61049d565b91602480356001600160401b0381116103685761006e9036908401610508565b948551926005938481029080820486149015171561035757610092909796976105b1565b6001600160a01b0397881697909490835b885181101561034657816100b7828b610608565b5116885163402914f560e01b81528b8682015260209182828a81845afa918215610250578892610317575b508584029184830487148515171561025a576100fe838c610608565b528a5163a8d9362760e01b815283818981855afa9081156102e05789916102ea575b506001830180841161029d57610136908c610608565b528a5163a318021760e01b81528781018e905283818b81855afa9081156102e05789916102af575b506002830180841161029d57610174908c610608565b52828d8a8d5180948193633792def360e01b83528c8301525afa90811561025057889161026c575b506003820180831161025a57856101c2868f8b958f89966101bc91610608565b52610608565b51168c51928380926318160ddd60e01b82525afa92831561025057889361021c575b505085810180911161020a57906101ff61020593928a610608565b526105e3565b6100a3565b634e487b7160e01b8752601186528787fd5b9080929350813d8311610249575b61023481836104b8565b8101031261024557519038806101e4565b8680fd5b503d61022a565b8b513d8a823e3d90fd5b634e487b7160e01b8952601188528989fd5b90508281813d8311610296575b61028381836104b8565b8101031261029257513861019c565b8780fd5b503d610279565b634e487b7160e01b8a52601189528a8afd5b90508381813d83116102d9575b6102c681836104b8565b810103126102d557513861015e565b8880fd5b503d6102bc565b8c513d8b823e3d90fd5b90508381813d8311610310575b61030181836104b8565b810103126102d5575138610120565b503d6102f7565b9091508281813d831161033f575b61032f81836104b8565b81010312610292575190386100e2565b503d610325565b8751806103538982610576565b0390f35b50634e487b7160e01b825260119052fd5b8580fd5b8280fd5b509190346104995760603660031901126104995761038c61049d565b916001600160401b039160249190823584811161036c576103b09036908301610508565b6044948535908111610495576103cc9096929636908801610508565b956103d787516105b1565b956001600160a01b0393841693855b895181101561048857816103fa828c610608565b5116826104078388610608565b51168c51918291637aeceb1f60e11b835289888401528b830152818660209485935afa91821561047e57899261044e575b505090610449916101ff828c610608565b6103e6565b90809250813d8311610477575b61046581836104b8565b81010312610292575161044938610438565b503d61045b565b8d513d8b823e3d90fd5b8a51806103538b82610576565b8380fd5b5080fd5b600435906001600160a01b03821682036104b357565b600080fd5b601f909101601f19168101906001600160401b038211908210176104db57604052565b634e487b7160e01b600052604160045260246000fd5b6001600160401b0381116104db5760051b60200190565b81601f820112156104b35780359161051f836104f1565b9261052d60405194856104b8565b808452602092838086019260051b8201019283116104b3578301905b828210610557575050505090565b81356001600160a01b03811681036104b3578152908301908301610549565b6020908160408183019282815285518094520193019160005b82811061059d575050505090565b83518552938101939281019260010161058f565b906105bb826104f1565b6105c860405191826104b8565b82815280926105d9601f19916104f1565b0190602036910137565b60001981146105f25760010190565b634e487b7160e01b600052601160045260246000fd5b805182101561061c5760209160051b010190565b634e487b7160e01b600052603260045260246000fdfea26469706673582212208ba80ff44f40acd46c7852433e2c7fc129fac8bc6936dad12e9330af20e8de2e64736f6c63430008110033",
  "linkReferences": {},
  "deployedLinkReferences": {}
}