{
  "_format": "hh-sol-artifact-1",
  "contractName": "Router",
  "sourceName": "contracts/core/Router.sol",
  "abi": [
    {
      "inputs": [
        {
          "internalType": "address",
          "name": "_vault",
          "type": "address"
        },
        {
          "internalType": "address",
          "name": "_weth",
          "type": "address"
        }
      ],
      "stateMutability": "nonpayable",
      "type": "constructor"
    },
    {
      "inputs": [],
      "name": "InsufficientAmountOut",
      "type": "error"
    },
    {
      "inputs": [],
      "name": "InvalidPath",
      "type": "error"
    },
    {
      "inputs": [],
      "name": "InvalidPlugin",
      "type": "error"
    },
    {
      "inputs": [],
      "name": "InvalidSender",
      "type": "error"
    },
    {
      "inputs": [],
      "name": "PriceTooHigh",
      "type": "error"
    },
    {
      "inputs": [],
      "name": "PriceTooLow",
      "type": "error"
    },
    {
      "inputs": [],
      "name": "UnapprovedPlugin",
      "type": "error"
    },
    {
      "anonymous": false,
      "inputs": [
        {
          "indexed": true,
          "internalType": "address",
          "name": "previousOwner",
          "type": "address"
        },
        {
          "indexed": true,
          "internalType": "address",
          "name": "newOwner",
          "type": "address"
        }
      ],
      "name": "OwnershipTransferred",
      "type": "event"
    },
    {
      "anonymous": false,
      "inputs": [
        {
          "indexed": false,
          "internalType": "address",
          "name": "account",
          "type": "address"
        },
        {
          "indexed": false,
          "internalType": "address",
          "name": "tokenIn",
          "type": "address"
        },
        {
          "indexed": false,
          "internalType": "address",
          "name": "tokenOut",
          "type": "address"
        },
        {
          "indexed": false,
          "internalType": "uint256",
          "name": "amountIn",
          "type": "uint256"
        },
        {
          "indexed": false,
          "internalType": "uint256",
          "name": "amountOut",
          "type": "uint256"
        }
      ],
      "name": "Swap",
      "type": "event"
    },
    {
      "inputs": [
        {
          "internalType": "address",
          "name": "_plugin",
          "type": "address"
        }
      ],
      "name": "addPlugin",
      "outputs": [],
      "stateMutability": "nonpayable",
      "type": "function"
    },
    {
      "inputs": [
        {
          "internalType": "address",
          "name": "_plugin",
          "type": "address"
        }
      ],
      "name": "approvePlugin",
      "outputs": [],
      "stateMutability": "nonpayable",
      "type": "function"
    },
    {
      "inputs": [
        {
          "internalType": "address",
          "name": "",
          "type": "address"
        },
        {
          "internalType": "address",
          "name": "",
          "type": "address"
        }
      ],
      "name": "approvedPlugins",
      "outputs": [
        {
          "internalType": "bool",
          "name": "",
          "type": "bool"
        }
      ],
      "stateMutability": "view",
      "type": "function"
    },
    {
      "inputs": [
        {
          "internalType": "address",
          "name": "_collateralToken",
          "type": "address"
        },
        {
          "internalType": "address",
          "name": "_indexToken",
          "type": "address"
        },
        {
          "internalType": "uint256",
          "name": "_collateralDelta",
          "type": "uint256"
        },
        {
          "internalType": "uint256",
          "name": "_sizeDelta",
          "type": "uint256"
        },
        {
          "internalType": "bool",
          "name": "_isLong",
          "type": "bool"
        },
        {
          "internalType": "address",
          "name": "_receiver",
          "type": "address"
        },
        {
          "internalType": "uint256",
          "name": "_price",
          "type": "uint256"
        }
      ],
      "name": "decreasePosition",
      "outputs": [],
      "stateMutability": "nonpayable",
      "type": "function"
    },
    {
      "inputs": [
        {
          "internalType": "address[]",
          "name": "_path",
          "type": "address[]"
        },
        {
          "internalType": "address",
          "name": "_indexToken",
          "type": "address"
        },
        {
          "internalType": "uint256",
          "name": "_collateralDelta",
          "type": "uint256"
        },
        {
          "internalType": "uint256",
          "name": "_sizeDelta",
          "type": "uint256"
        },
        {
          "internalType": "bool",
          "name": "_isLong",
          "type": "bool"
        },
        {
          "internalType": "address",
          "name": "_receiver",
          "type": "address"
        },
        {
          "internalType": "uint256",
          "name": "_price",
          "type": "uint256"
        },
        {
          "internalType": "uint256",
          "name": "_minOut",
          "type": "uint256"
        }
      ],
      "name": "decreasePositionAndSwap",
      "outputs": [],
      "stateMutability": "nonpayable",
      "type": "function"
    },
    {
      "inputs": [
        {
          "internalType": "address[]",
          "name": "_path",
          "type": "address[]"
        },
        {
          "internalType": "address",
          "name": "_indexToken",
          "type": "address"
        },
        {
          "internalType": "uint256",
          "name": "_collateralDelta",
          "type": "uint256"
        },
        {
          "internalType": "uint256",
          "name": "_sizeDelta",
          "type": "uint256"
        },
        {
          "internalType": "bool",
          "name": "_isLong",
          "type": "bool"
        },
        {
          "internalType": "address payable",
          "name": "_receiver",
          "type": "address"
        },
        {
          "internalType": "uint256",
          "name": "_price",
          "type": "uint256"
        },
        {
          "internalType": "uint256",
          "name": "_minOut",
          "type": "uint256"
        }
      ],
      "name": "decreasePositionAndSwapETH",
      "outputs": [],
      "stateMutability": "nonpayable",
      "type": "function"
    },
    {
      "inputs": [
        {
          "internalType": "address",
          "name": "_collateralToken",
          "type": "address"
        },
        {
          "internalType": "address",
          "name": "_indexToken",
          "type": "address"
        },
        {
          "internalType": "uint256",
          "name": "_collateralDelta",
          "type": "uint256"
        },
        {
          "internalType": "uint256",
          "name": "_sizeDelta",
          "type": "uint256"
        },
        {
          "internalType": "bool",
          "name": "_isLong",
          "type": "bool"
        },
        {
          "internalType": "address payable",
          "name": "_receiver",
          "type": "address"
        },
        {
          "internalType": "uint256",
          "name": "_price",
          "type": "uint256"
        }
      ],
      "name": "decreasePositionETH",
      "outputs": [],
      "stateMutability": "nonpayable",
      "type": "function"
    },
    {
      "inputs": [
        {
          "internalType": "address",
          "name": "_plugin",
          "type": "address"
        }
      ],
      "name": "denyPlugin",
      "outputs": [],
      "stateMutability": "nonpayable",
      "type": "function"
    },
    {
      "inputs": [
        {
          "internalType": "address",
          "name": "_token",
          "type": "address"
        },
        {
          "internalType": "uint256",
          "name": "_amount",
          "type": "uint256"
        }
      ],
      "name": "directPoolDeposit",
      "outputs": [],
      "stateMutability": "nonpayable",
      "type": "function"
    },
    {
      "inputs": [
        {
          "internalType": "address[]",
          "name": "_path",
          "type": "address[]"
        },
        {
          "internalType": "address",
          "name": "_indexToken",
          "type": "address"
        },
        {
          "internalType": "uint256",
          "name": "_amountIn",
          "type": "uint256"
        },
        {
          "internalType": "uint256",
          "name": "_minOut",
          "type": "uint256"
        },
        {
          "internalType": "uint256",
          "name": "_sizeDelta",
          "type": "uint256"
        },
        {
          "internalType": "bool",
          "name": "_isLong",
          "type": "bool"
        },
        {
          "internalType": "uint256",
          "name": "_price",
          "type": "uint256"
        }
      ],
      "name": "increasePosition",
      "outputs": [],
      "stateMutability": "nonpayable",
      "type": "function"
    },
    {
      "inputs": [
        {
          "internalType": "address[]",
          "name": "_path",
          "type": "address[]"
        },
        {
          "internalType": "address",
          "name": "_indexToken",
          "type": "address"
        },
        {
          "internalType": "uint256",
          "name": "_minOut",
          "type": "uint256"
        },
        {
          "internalType": "uint256",
          "name": "_sizeDelta",
          "type": "uint256"
        },
        {
          "internalType": "bool",
          "name": "_isLong",
          "type": "bool"
        },
        {
          "internalType": "uint256",
          "name": "_price",
          "type": "uint256"
        }
      ],
      "name": "increasePositionETH",
      "outputs": [],
      "stateMutability": "payable",
      "type": "function"
    },
    {
      "inputs": [],
      "name": "owner",
      "outputs": [
        {
          "internalType": "address",
          "name": "",
          "type": "address"
        }
      ],
      "stateMutability": "view",
      "type": "function"
    },
    {
      "inputs": [
        {
          "internalType": "address",
          "name": "_account",
          "type": "address"
        },
        {
          "internalType": "address",
          "name": "_collateralToken",
          "type": "address"
        },
        {
          "internalType": "address",
          "name": "_indexToken",
          "type": "address"
        },
        {
          "internalType": "uint256",
          "name": "_collateralDelta",
          "type": "uint256"
        },
        {
          "internalType": "uint256",
          "name": "_sizeDelta",
          "type": "uint256"
        },
        {
          "internalType": "bool",
          "name": "_isLong",
          "type": "bool"
        },
        {
          "internalType": "address",
          "name": "_receiver",
          "type": "address"
        }
      ],
      "name": "pluginDecreasePosition",
      "outputs": [
        {
          "internalType": "uint256",
          "name": "",
          "type": "uint256"
        }
      ],
      "stateMutability": "nonpayable",
      "type": "function"
    },
    {
      "inputs": [
        {
          "internalType": "address",
          "name": "_account",
          "type": "address"
        },
        {
          "internalType": "address",
          "name": "_collateralToken",
          "type": "address"
        },
        {
          "internalType": "address",
          "name": "_indexToken",
          "type": "address"
        },
        {
          "internalType": "uint256",
          "name": "_sizeDelta",
          "type": "uint256"
        },
        {
          "internalType": "bool",
          "name": "_isLong",
          "type": "bool"
        }
      ],
      "name": "pluginIncreasePosition",
      "outputs": [],
      "stateMutability": "nonpayable",
      "type": "function"
    },
    {
      "inputs": [
        {
          "internalType": "address",
          "name": "_token",
          "type": "address"
        },
        {
          "internalType": "address",
          "name": "_account",
          "type": "address"
        },
        {
          "internalType": "address",
          "name": "_receiver",
          "type": "address"
        },
        {
          "internalType": "uint256",
          "name": "_amount",
          "type": "uint256"
        }
      ],
      "name": "pluginTransfer",
      "outputs": [],
      "stateMutability": "nonpayable",
      "type": "function"
    },
    {
      "inputs": [
        {
          "internalType": "address",
          "name": "",
          "type": "address"
        }
      ],
      "name": "plugins",
      "outputs": [
        {
          "internalType": "bool",
          "name": "",
          "type": "bool"
        }
      ],
      "stateMutability": "view",
      "type": "function"
    },
    {
      "inputs": [
        {
          "internalType": "address",
          "name": "_plugin",
          "type": "address"
        }
      ],
      "name": "removePlugin",
      "outputs": [],
      "stateMutability": "nonpayable",
      "type": "function"
    },
    {
      "inputs": [],
      "name": "renounceOwnership",
      "outputs": [],
      "stateMutability": "nonpayable",
      "type": "function"
    },
    {
      "inputs": [
        {
          "internalType": "address[]",
          "name": "_path",
          "type": "address[]"
        },
        {
          "internalType": "uint256",
          "name": "_amountIn",
          "type": "uint256"
        },
        {
          "internalType": "uint256",
          "name": "_minOut",
          "type": "uint256"
        },
        {
          "internalType": "address",
          "name": "_receiver",
          "type": "address"
        }
      ],
      "name": "swap",
      "outputs": [],
      "stateMutability": "nonpayable",
      "type": "function"
    },
    {
      "inputs": [
        {
          "internalType": "address[]",
          "name": "_path",
          "type": "address[]"
        },
        {
          "internalType": "uint256",
          "name": "_minOut",
          "type": "uint256"
        },
        {
          "internalType": "address",
          "name": "_receiver",
          "type": "address"
        }
      ],
      "name": "swapETHToTokens",
      "outputs": [],
      "stateMutability": "payable",
      "type": "function"
    },
    {
      "inputs": [
        {
          "internalType": "address[]",
          "name": "_path",
          "type": "address[]"
        },
        {
          "internalType": "uint256",
          "name": "_amountIn",
          "type": "uint256"
        },
        {
          "internalType": "uint256",
          "name": "_minOut",
          "type": "uint256"
        },
        {
          "internalType": "address payable",
          "name": "_receiver",
          "type": "address"
        }
      ],
      "name": "swapTokensToETH",
      "outputs": [],
      "stateMutability": "nonpayable",
      "type": "function"
    },
    {
      "inputs": [
        {
          "internalType": "address",
          "name": "newOwner",
          "type": "address"
        }
      ],
      "name": "transferOwnership",
      "outputs": [],
      "stateMutability": "nonpayable",
      "type": "function"
    },
    {
      "inputs": [],
      "name": "vault",
      "outputs": [
        {
          "internalType": "address",
          "name": "",
          "type": "address"
        }
      ],
      "stateMutability": "view",
      "type": "function"
    },
    {
      "inputs": [],
      "name": "weth",
      "outputs": [
        {
          "internalType": "address",
          "name": "",
          "type": "address"
        }
      ],
      "stateMutability": "view",
      "type": "function"
    },
    {
      "stateMutability": "payable",
      "type": "receive"
    }
  ],
  "bytecode": "0x6080346100c357601f611aa538819003918201601f19168301916001600160401b038311848410176100c85780849260409485528339810103126100c357610052602061004b836100de565b92016100de565b60008054336001600160a01b0319808316821784556040519590946001600160a01b03949093859391908416907f8be0079c531659141344cd1fd0a4f28419497f9722a3daafe3b4186f6b6457e09080a316836002541617600255169060015416176001556119b290816100f38239f35b600080fd5b634e487b7160e01b600052604160045260246000fd5b51906001600160a01b03821682036100c35756fe6040608081526004908136101561003d575b361561001c57600080fd5b6001546001600160a01b0316330361003057005b51636edaef2f60e11b8152fd5b6000803560e01c80631b82787814610cda5780631f1dd17614610c425780632662166b14610b5d5780632d4ba6a714610ab55780633039e37f14610a1257806338c74dd9146109cb5780633fc8cef3146109a2578063430ed37c146109505780634b12e643146109125780635fc8500e146108815780636023e966146107b3578063715018a61461076b5780638da5cb5b1461074357806390205d8c146106f857806390b64ad314610667578063956f285e14610618578063a4d95b64146105d8578063abe68eaa1461050d578063b32755de146103fb578063b7ddc992146102bb578063cedd437514610277578063d8867fc814610234578063f2fde38b1461017d5763fbfa77cf146101515750610011565b903461017957816003193601126101795760025490516001600160a01b039091168152602090f35b5080fd5b50913461023057602036600319011261023057610198610d23565b906101a1610e71565b6001600160a01b039182169283156101de5750506000548260018060a01b03198216176000551660008051602061193d833981519152600080a380f35b906020608492519162461bcd60e51b8352820152602660248201527f4f776e61626c653a206e6577206f776e657220697320746865207a65726f206160448201526564647265737360d01b6064820152fd5b8280fd5b5090346101795760203660031901126101795761024f610d23565b610257610e71565b6001600160a01b0316825260036020528120805460ff1916600117905580f35b50913461023057602036600319011261023057610292610d23565b33845260209182528284206001600160a01b039091166000908152915220805460ff1916905580f35b8382346103f85760e03660031901126103f85781356001600160401b038111610179576102eb9036908401610dfb565b6102f3610d39565b604435906102ff610da0565b9180151590816103cd575b50600184511190816103c5575b5061036b575b8251600019810191908211610358579394506103559360c43593608435926001600160a01b039161034e91906111d5565b511661126b565b80f35b634e487b7160e01b855260118652602485fd5b61037830606435856116ef565b835160001981019081116103b2576103ad91906001600160a01b039081906103a090886111d5565b511690600254169061121c565b61031d565b634e487b7160e01b865260118752602486fd5b905086610317565b6103f2906001600160a01b03806103e3886111a2565b51169060025416903390610ec9565b8661030a565b80fd5b509060c03660031901126101795782356001600160401b038111610230576104269036908501610dfb565b61042e610d39565b90610437610d91565b6001600160a01b03939092908461044d846111a2565b51168560015416036104fe5750341515806104f1575b600183511190816104e9575b5061049a575b81516000198101949085116103b25761035595965061034e60a43595606435946111d5565b6104a730604435846116ef565b825160001981019081116104d65790856104c46104d193866111d5565b511686600254169061121c565b610475565b634e487b7160e01b875260118852602487fd5b90503861046f565b6104f9611561565b610463565b516320db826760e01b81528690fd5b509060603660031901126101795782356001600160401b038111610230576105389036908501610dfb565b90610541610d4f565b6001600160a01b039081610554856111a2565b51168260015416036105c8576105759061056c611561565b602435856116ef565b9080610580856111a2565b51855191169460001982019182116104d657916105b260008051602061195d833981519152969594926105c2946111d5565b51169251938493349133866111e9565b0390a180f35b82516320db826760e01b81528690fd5b509034610179576020366003190112610179576105f3610d23565b6105fb610e71565b6001600160a01b0316825260036020528120805460ff1916905580f35b50913461023057816003193601126102305760209282610636610d23565b9161063f610d39565b9360018060a01b0380941682528652209116600052825260ff81600020541690519015158152f35b50918291346106f457806003193601126106f4576001600160a01b03918261068d610d23565b16926106a160243582600254163387610ec9565b6002541692833b156106f057602485928385519687948593635f7bc11960e01b85528401525af19081156106e757506106d75750f35b6106e090610daf565b6103f85780f35b513d84823e3d90fd5b8480fd5b5050fd5b50346103f85760e03660031901126103f85761073f610715610d23565b61071d610d39565b610725610d91565b61072d610d65565b9160c4359360643591604435916113e3565b5080f35b509034610179578160031936011261017957905490516001600160a01b039091168152602090f35b50346103f857806003193601126103f857610784610e71565b600080546001600160a01b0319811682556001600160a01b031660008051602061193d8339815191528280a380f35b5090346101795760803660031901126101795782356001600160401b038111610230576107e39036908501610dfb565b6024356107ee610d7b565b6001600160a01b03919061082290610819838561080a886111a2565b51168660025416903390610ec9565b604435856116ef565b918061082d856111a2565b518551911694600019820191821161086e57916108606105c2949260008051602061195d833981519152989796946111d5565b5116945194859433866111e9565b634e487b7160e01b885260118952602488fd5b508234610179576101003660031901126101795780356001600160401b0381116102305761073f916108b591369101610dfb565b6108bd610d39565b906109096108c9610d91565b6108fe6108d4610d65565b946001600160a01b0392836108e8876111a2565b51169060c43592309260643591604435916113e3565b90806103a0856111a2565b60e435906116ef565b5090346101795760203660031901126101795760209160ff9082906001600160a01b0361093d610d23565b1681526003855220541690519015158152f35b50346103f85760e03660031901126103f85761035561096d610d23565b61099d610978610d39565b610980610d91565b92610989610d65565b9360c43592309260643591604435916113e3565b6115c2565b50903461017957816003193601126101795760015490516001600160a01b039091168152602090f35b509134610230576020366003190112610230576109e6610d23565b33845260209182528284206001600160a01b039091166000908152915220805460ff1916600117905580f35b50919034610230576101003660031901126102305781356001600160401b038111610ab157610a449036908401610dfb565b90610a4d610d39565b610a55610d91565b610a5d610d65565b946001600160a01b039384610a71876111a2565b5116856001541603610aa457876103558861099d89610a998a6108fe8b8b836108e8876111a2565b309060e435906116ef565b516320db826760e01b8152fd5b8380fd5b5090346101795760803660031901126101795782356001600160401b03811161023057610ae59036908501610dfb565b602435610af0610d7b565b906001600160a01b0380610b03856111a2565b5116816001541603610b4d57610b2c8282610b1d876111a2565b51168360025416903390610ec9565b610b43610b3c30604435876116ef565b93846115c2565b8061082d856111a2565b84516320db826760e01b81528790fd5b5090346101795760e036600319011261017957610b78610d23565b92610b81610d39565b90610b8a610d4f565b610b92610da0565b6001600160a01b039390919060c435908582168203610c2a57610be38892602097610bbc8c6118d6565b600254169589519b8c988997889663082a084960e41b88526084359360643593890161115f565b03925af1918215610c375791610bfe575b6020925051908152f35b90506020823d8211610c2f575b81610c1860209383610dd8565b81010312610c2a576020915190610bf4565b600080fd5b3d9150610c0b565b9051903d90823e3d90fd5b509190346102305760a03660031901126102305782610c5f610d23565b610c67610d39565b90610c70610d4f565b91610c79610d91565b610c82836118d6565b6002546001600160a01b031692833b15610cd657610cb986928851998a97889687956348d91abf60e01b875260643593870161112c565b03925af19081156106e75750610ccd575080f35b61035590610daf565b8580fd5b50346103f85760803660031901126103f857610355610cf7610d23565b610cff610d39565b610d07610d4f565b90610d11816118d6565b606435926001600160a01b0316610ec9565b600435906001600160a01b0382168203610c2a57565b602435906001600160a01b0382168203610c2a57565b604435906001600160a01b0382168203610c2a57565b60a435906001600160a01b0382168203610c2a57565b606435906001600160a01b0382168203610c2a57565b608435908115158203610c2a57565b60a435908115158203610c2a57565b6001600160401b038111610dc257604052565b634e487b7160e01b600052604160045260246000fd5b601f909101601f19168101906001600160401b03821190821017610dc257604052565b9080601f83011215610c2a578135906001600160401b038211610dc2578160051b60405193602093610e2f85840187610dd8565b85528380860192820101928311610c2a578301905b828210610e52575050505090565b81356001600160a01b0381168103610c2a578152908301908301610e44565b6000546001600160a01b03163303610e8557565b606460405162461bcd60e51b815260206004820152602060248201527f4f776e61626c653a2063616c6c6572206973206e6f7420746865206f776e65726044820152fd5b6040516323b872dd60e01b60208201526001600160a01b03928316602482015292909116604483015260648083019390935291815260a08101918183106001600160401b03841117610dc257610f2192604052610f23565b565b604080516001600160a01b039290921692919081016001600160401b03811182821017610dc2576040526020928382527f5361666545524332303a206c6f772d6c6576656c2063616c6c206661696c656484830152803b1561102d5790610fa29160008481959282888195519301915af1610f9c611072565b906110b1565b805180610fb0575b50505050565b8184918101031261017957820151908115918215036103f85750610fd657808080610faa565b6084906040519062461bcd60e51b82526004820152602a60248201527f5361666545524332303a204552433230206f7065726174696f6e20646964206e6044820152691bdd081cdd58d8d9595960b21b6064820152fd5b60405162461bcd60e51b815260048101859052601d60248201527f416464726573733a2063616c6c20746f206e6f6e2d636f6e74726163740000006044820152606490fd5b3d156110ac573d906001600160401b038211610dc257604051916110a0601f8201601f191660200184610dd8565b82523d6000602084013e565b606090565b909190156110bd575090565b8151156110cd5750805190602001fd5b6040519062461bcd60e51b82528160208060048301528251908160248401526000935b828510611113575050604492506000838284010152601f80199101168101030190fd5b84810182015186860160440152938101938593506110f0565b6001600160a01b039182168152918116602083015290911660408201526060810191909152901515608082015260a00190565b6001600160a01b039182168152918116602083015291821660408201526060810192909252608082019290925291151560a083015290911660c082015260e00190565b8051156111af5760200190565b634e487b7160e01b600052603260045260246000fd5b8051600110156111af5760400190565b80518210156111af5760209160051b010190565b6001600160a01b039182168152918116602083015290911660408201526060810191909152608081019190915260a00190565b60405163a9059cbb60e01b60208201526001600160a01b03909216602483015260448083019390935291815260808101916001600160401b03831182841017610dc257610f2192604052610f23565b9293841561135a57600254604051637092736960e11b81526001600160a01b038481166004830152909160209183916024918391165afa90811561130b57600091611329575b5011611317575b6002546001600160a01b031690813b15610c2a57600080946112f1604051978896879586946348d91abf60e01b8652336004870161112c565b03925af1801561130b576113025750565b610f2190610daf565b6040513d6000823e3d90fd5b604051636dddf41160e11b8152600490fd5b906020823d8211611352575b8161134260209383610dd8565b810103126103f8575051386112b1565b3d9150611335565b6002546040516340d3096b60e11b81526001600160a01b038481166004830152909160209183916024918391165afa90811561130b576000916113b2575b5010156112b8575b60405163127f08c960e11b8152600490fd5b906020823d82116113db575b816113cb60209383610dd8565b810103126103f857505138611398565b3d91506113be565b949091939295836000146114de576002546040516340d3096b60e11b81526001600160a01b038581166004830152909160209183916024918391165afa90811561130b576000916114ad575b50106113a0576020946114696000925b60018060a01b036002541695604051998a988997889663082a084960e41b8852336004890161115f565b03925af190811561130b5760009161147f575090565b906020823d82116114a5575b8161149860209383610dd8565b810103126103f857505190565b3d915061148b565b906020823d82116114d6575b816114c660209383610dd8565b810103126103f85750513861142f565b3d91506114b9565b600254604051637092736960e11b81526001600160a01b038581166004830152909160209183916024918391165afa90811561130b57600091611530575b50116113175760209461146960009261143f565b906020823d8211611559575b8161154960209383610dd8565b810103126103f85750513861151c565b3d915061153c565b6001546001600160a01b0390811690813b15610c2a57600060049260405193848092630d0e30db60e41b825234905af191821561130b57610f21926115b3575b5080600154163491600254169061121c565b6115bc90610daf565b386115a1565b6001546000926001600160a01b03918216803b156106f057848091602460405180948193632e1a7d4d60e01b83528960048401525af180156116e4576116d1575b5082471061168c57839283928392165af161161c611072565b501561162457565b60405162461bcd60e51b815260206004820152603a60248201527f416464726573733a20756e61626c6520746f2073656e642076616c75652c20726044820152791958da5c1a595b9d081b585e481a185d99481c995d995c9d195960321b6064820152608490fd5b60405162461bcd60e51b815260206004820152601d60248201527f416464726573733a20696e73756666696369656e742062616c616e63650000006044820152606490fd5b6116dd90949194610daf565b9238611603565b6040513d87823e3d90fd5b9291906000600285511461180d576003855114611718576040516320db826760e01b8152600490fd5b6001600160a01b038061172a876111a2565b5116602082611738896111c5565b51166064846002541693866040519586948593634998b10960e11b8552600485015260248401523060448401525af180156118025783906117cf575b611790915082611783896111c5565b511683600254169061121c565b8061179a876111c5565b5116918651600210156117bb575060606117b8959601511690611836565b90565b634e487b7160e01b81526032600452602490fd5b506020813d82116117fa575b816117e860209383610dd8565b81010312610230576117909051611774565b3d91506117db565b6040513d85823e3d90fd5b5091926117b892906001600160a01b036118328161182a846111a2565b5116926111c5565b5116905b600254604051634998b10960e11b81526001600160a01b03928316600482015292821660248401529381166044830152909260209184916064918391600091165af191821561130b576000926118a3575b5081106118915790565b604051637294b85560e11b8152600490fd5b90916020823d82116118ce575b816118bd60209383610dd8565b810103126103f85750519038611887565b3d91506118b0565b600090338252600360205260ff6040832054161561192a576001600160a01b0316815260046020908152604080832033845290915290205460ff161561191857565b60405163efd26cd560e01b8152600490fd5b60405163723bc63d60e01b8152600490fdfe8be0079c531659141344cd1fd0a4f28419497f9722a3daafe3b4186f6b6457e0cd3829a3813dc3cdd188fd3d01dcf3268c16be2fdd2dd21d0665418816e46062a26469706673582212205b3e989a03e1765d2dcf62d2ec1b536eb5e3a7e5423ac8b3350e7de795074a0164736f6c63430008110033",
  "linkReferences": {},
  "deployedLinkReferences": {}
}