{
  "_format": "hh-sol-artifact-1",
  "contractName": "VaporwaveMasterChef",
  "sourceName": "contracts/masterchef/VaporwaveChef.sol",
  "abi": [
    {
      "inputs": [
        {
          "internalType": "uint256",
          "name": "_startBlock",
          "type": "uint256"
        }
      ],
      "stateMutability": "nonpayable",
      "type": "constructor"
    },
    {
      "inputs": [],
      "name": "InvalidAllocationPoint",
      "type": "error"
    },
    {
      "inputs": [],
      "name": "InvalidAmount",
      "type": "error"
    },
    {
      "inputs": [],
      "name": "InvalidDepositFee",
      "type": "error"
    },
    {
      "inputs": [],
      "name": "InvalidRewardToken",
      "type": "error"
    },
    {
      "inputs": [],
      "name": "InvalidWithdrawAmount",
      "type": "error"
    },
    {
      "inputs": [],
      "name": "SelfReferral",
      "type": "error"
    },
    {
      "anonymous": false,
      "inputs": [
        {
          "indexed": true,
          "internalType": "address",
          "name": "user",
          "type": "address"
        },
        {
          "indexed": true,
          "internalType": "uint256",
          "name": "pid",
          "type": "uint256"
        },
        {
          "indexed": false,
          "internalType": "uint256",
          "name": "amount",
          "type": "uint256"
        }
      ],
      "name": "Deposit",
      "type": "event"
    },
    {
      "anonymous": false,
      "inputs": [
        {
          "indexed": false,
          "internalType": "address",
          "name": "rewardToken",
          "type": "address"
        },
        {
          "indexed": false,
          "internalType": "uint256",
          "name": "amount",
          "type": "uint256"
        }
      ],
      "name": "DistributeRewards",
      "type": "event"
    },
    {
      "anonymous": false,
      "inputs": [
        {
          "indexed": true,
          "internalType": "address",
          "name": "user",
          "type": "address"
        },
        {
          "indexed": true,
          "internalType": "uint256",
          "name": "pid",
          "type": "uint256"
        },
        {
          "indexed": false,
          "internalType": "uint256",
          "name": "amount",
          "type": "uint256"
        }
      ],
      "name": "EmergencyWithdraw",
      "type": "event"
    },
    {
      "anonymous": false,
      "inputs": [
        {
          "indexed": true,
          "internalType": "address",
          "name": "previousOwner",
          "type": "address"
        },
        {
          "indexed": true,
          "internalType": "address",
          "name": "newOwner",
          "type": "address"
        }
      ],
      "name": "OwnershipTransferred",
      "type": "event"
    },
    {
      "anonymous": false,
      "inputs": [
        {
          "indexed": true,
          "internalType": "address",
          "name": "referrer",
          "type": "address"
        },
        {
          "indexed": true,
          "internalType": "address",
          "name": "referral",
          "type": "address"
        }
      ],
      "name": "Referral",
      "type": "event"
    },
    {
      "anonymous": false,
      "inputs": [
        {
          "indexed": true,
          "internalType": "address",
          "name": "user",
          "type": "address"
        },
        {
          "indexed": true,
          "internalType": "uint256",
          "name": "pid",
          "type": "uint256"
        },
        {
          "indexed": false,
          "internalType": "uint256",
          "name": "amount",
          "type": "uint256"
        }
      ],
      "name": "Withdraw",
      "type": "event"
    },
    {
      "inputs": [],
      "name": "BASIS_POINTS_DIVISOR",
      "outputs": [
        {
          "internalType": "uint256",
          "name": "",
          "type": "uint256"
        }
      ],
      "stateMutability": "view",
      "type": "function"
    },
    {
      "inputs": [],
      "name": "MAX_DEPOSIT_FEE_BP",
      "outputs": [
        {
          "internalType": "uint256",
          "name": "",
          "type": "uint256"
        }
      ],
      "stateMutability": "view",
      "type": "function"
    },
    {
      "inputs": [
        {
          "internalType": "uint256",
          "name": "",
          "type": "uint256"
        },
        {
          "internalType": "address",
          "name": "",
          "type": "address"
        }
      ],
      "name": "accRewardsPerShare",
      "outputs": [
        {
          "internalType": "uint256",
          "name": "",
          "type": "uint256"
        }
      ],
      "stateMutability": "view",
      "type": "function"
    },
    {
      "inputs": [
        {
          "internalType": "uint256",
          "name": "_allocPoint",
          "type": "uint256"
        },
        {
          "internalType": "address",
          "name": "_asset",
          "type": "address"
        },
        {
          "internalType": "uint256",
          "name": "_depositFeeBP",
          "type": "uint256"
        },
        {
          "internalType": "bool",
          "name": "_withUpdate",
          "type": "bool"
        }
      ],
      "name": "add",
      "outputs": [],
      "stateMutability": "nonpayable",
      "type": "function"
    },
    {
      "inputs": [
        {
          "internalType": "uint256",
          "name": "_pid",
          "type": "uint256"
        },
        {
          "internalType": "uint256",
          "name": "_amount",
          "type": "uint256"
        },
        {
          "internalType": "address",
          "name": "_referrer",
          "type": "address"
        }
      ],
      "name": "deposit",
      "outputs": [],
      "stateMutability": "nonpayable",
      "type": "function"
    },
    {
      "inputs": [
        {
          "internalType": "address",
          "name": "_rewardToken",
          "type": "address"
        },
        {
          "internalType": "uint256",
          "name": "_amount",
          "type": "uint256"
        }
      ],
      "name": "distributeRewards",
      "outputs": [],
      "stateMutability": "nonpayable",
      "type": "function"
    },
    {
      "inputs": [
        {
          "internalType": "uint256",
          "name": "_pid",
          "type": "uint256"
        }
      ],
      "name": "emergencyWithdraw",
      "outputs": [],
      "stateMutability": "nonpayable",
      "type": "function"
    },
    {
      "inputs": [],
      "name": "feeAddress",
      "outputs": [
        {
          "internalType": "address",
          "name": "",
          "type": "address"
        }
      ],
      "stateMutability": "view",
      "type": "function"
    },
    {
      "inputs": [
        {
          "internalType": "address",
          "name": "",
          "type": "address"
        }
      ],
      "name": "isRewardToken",
      "outputs": [
        {
          "internalType": "bool",
          "name": "",
          "type": "bool"
        }
      ],
      "stateMutability": "view",
      "type": "function"
    },
    {
      "inputs": [
        {
          "internalType": "address",
          "name": "",
          "type": "address"
        }
      ],
      "name": "lastDistributionTime",
      "outputs": [
        {
          "internalType": "uint256",
          "name": "",
          "type": "uint256"
        }
      ],
      "stateMutability": "view",
      "type": "function"
    },
    {
      "inputs": [],
      "name": "massUpdatePools",
      "outputs": [],
      "stateMutability": "nonpayable",
      "type": "function"
    },
    {
      "inputs": [],
      "name": "owner",
      "outputs": [
        {
          "internalType": "address",
          "name": "",
          "type": "address"
        }
      ],
      "stateMutability": "view",
      "type": "function"
    },
    {
      "inputs": [
        {
          "internalType": "uint256",
          "name": "_pid",
          "type": "uint256"
        },
        {
          "internalType": "address",
          "name": "_user",
          "type": "address"
        }
      ],
      "name": "pendingRewards",
      "outputs": [
        {
          "internalType": "uint256[]",
          "name": "userPendingRewards",
          "type": "uint256[]"
        }
      ],
      "stateMutability": "view",
      "type": "function"
    },
    {
      "inputs": [
        {
          "internalType": "address",
          "name": "",
          "type": "address"
        }
      ],
      "name": "poolExistence",
      "outputs": [
        {
          "internalType": "bool",
          "name": "",
          "type": "bool"
        }
      ],
      "stateMutability": "view",
      "type": "function"
    },
    {
      "inputs": [
        {
          "internalType": "address",
          "name": "",
          "type": "address"
        }
      ],
      "name": "poolIdForLpAddress",
      "outputs": [
        {
          "internalType": "uint256",
          "name": "",
          "type": "uint256"
        }
      ],
      "stateMutability": "view",
      "type": "function"
    },
    {
      "inputs": [
        {
          "internalType": "uint256",
          "name": "",
          "type": "uint256"
        }
      ],
      "name": "poolInfo",
      "outputs": [
        {
          "internalType": "contract IERC20",
          "name": "asset",
          "type": "address"
        },
        {
          "internalType": "uint256",
          "name": "allocPoint",
          "type": "uint256"
        },
        {
          "internalType": "uint256",
          "name": "lastRewardBlock",
          "type": "uint256"
        },
        {
          "internalType": "uint256",
          "name": "depositFeeBP",
          "type": "uint256"
        }
      ],
      "stateMutability": "view",
      "type": "function"
    },
    {
      "inputs": [],
      "name": "poolLength",
      "outputs": [
        {
          "internalType": "uint256",
          "name": "",
          "type": "uint256"
        }
      ],
      "stateMutability": "view",
      "type": "function"
    },
    {
      "inputs": [
        {
          "internalType": "address",
          "name": "",
          "type": "address"
        },
        {
          "internalType": "uint256",
          "name": "",
          "type": "uint256"
        }
      ],
      "name": "referrals",
      "outputs": [
        {
          "internalType": "address",
          "name": "",
          "type": "address"
        }
      ],
      "stateMutability": "view",
      "type": "function"
    },
    {
      "inputs": [],
      "name": "renounceOwnership",
      "outputs": [],
      "stateMutability": "nonpayable",
      "type": "function"
    },
    {
      "inputs": [
        {
          "internalType": "uint256",
          "name": "",
          "type": "uint256"
        }
      ],
      "name": "rewardTokens",
      "outputs": [
        {
          "internalType": "address",
          "name": "",
          "type": "address"
        }
      ],
      "stateMutability": "view",
      "type": "function"
    },
    {
      "inputs": [
        {
          "internalType": "uint256",
          "name": "_pid",
          "type": "uint256"
        },
        {
          "internalType": "uint256",
          "name": "_allocPoint",
          "type": "uint256"
        },
        {
          "internalType": "bool",
          "name": "_withUpdate",
          "type": "bool"
        }
      ],
      "name": "set",
      "outputs": [],
      "stateMutability": "nonpayable",
      "type": "function"
    },
    {
      "inputs": [
        {
          "internalType": "uint256",
          "name": "_startBlock",
          "type": "uint256"
        }
      ],
      "name": "setStartBlock",
      "outputs": [],
      "stateMutability": "nonpayable",
      "type": "function"
    },
    {
      "inputs": [],
      "name": "startBlock",
      "outputs": [
        {
          "internalType": "uint256",
          "name": "",
          "type": "uint256"
        }
      ],
      "stateMutability": "view",
      "type": "function"
    },
    {
      "inputs": [],
      "name": "totalAllocPoint",
      "outputs": [
        {
          "internalType": "uint256",
          "name": "",
          "type": "uint256"
        }
      ],
      "stateMutability": "view",
      "type": "function"
    },
    {
      "inputs": [
        {
          "internalType": "address",
          "name": "newOwner",
          "type": "address"
        }
      ],
      "name": "transferOwnership",
      "outputs": [],
      "stateMutability": "nonpayable",
      "type": "function"
    },
    {
      "inputs": [
        {
          "internalType": "address",
          "name": "",
          "type": "address"
        }
      ],
      "name": "unclaimedRewards",
      "outputs": [
        {
          "internalType": "uint256",
          "name": "",
          "type": "uint256"
        }
      ],
      "stateMutability": "view",
      "type": "function"
    },
    {
      "inputs": [
        {
          "internalType": "uint256",
          "name": "_pid",
          "type": "uint256"
        }
      ],
      "name": "updatePool",
      "outputs": [],
      "stateMutability": "nonpayable",
      "type": "function"
    },
    {
      "inputs": [
        {
          "internalType": "uint256",
          "name": "",
          "type": "uint256"
        },
        {
          "internalType": "address",
          "name": "",
          "type": "address"
        }
      ],
      "name": "userInfo",
      "outputs": [
        {
          "internalType": "uint256",
          "name": "amount",
          "type": "uint256"
        },
        {
          "internalType": "uint256",
          "name": "rewardDebt",
          "type": "uint256"
        }
      ],
      "stateMutability": "view",
      "type": "function"
    },
    {
      "inputs": [
        {
          "internalType": "uint256",
          "name": "",
          "type": "uint256"
        },
        {
          "internalType": "address",
          "name": "",
          "type": "address"
        },
        {
          "internalType": "address",
          "name": "",
          "type": "address"
        }
      ],
      "name": "userRewardDebt",
      "outputs": [
        {
          "internalType": "uint256",
          "name": "",
          "type": "uint256"
        }
      ],
      "stateMutability": "view",
      "type": "function"
    },
    {
      "inputs": [
        {
          "internalType": "uint256",
          "name": "_pid",
          "type": "uint256"
        },
        {
          "internalType": "uint256",
          "name": "_amount",
          "type": "uint256"
        }
      ],
      "name": "withdraw",
      "outputs": [],
      "stateMutability": "nonpayable",
      "type": "function"
    }
  ],
  "bytecode": "0x60803461009b57601f611b6a38819003918201601f19168301916001600160401b038311848410176100a05780849260209460405283398101031261009b575160008054336001600160a01b0319821681178355604051939290916001600160a01b0316907f8be0079c531659141344cd1fd0a4f28419497f9722a3daafe3b4186f6b6457e09080a360018055600455611ab390816100b78239f35b600080fd5b634e487b7160e01b600052604160045260246000fdfe60806040908082526004908136101561001757600080fd5b600092833560e01c918263081e3eda146111da57508163126082cf146111bd5781631526fe271461115e57816317caf6f11461113f57816337caa6e71461112257816341275358146110f9578163441a3e7014610fa657816348cd4cb114610f8757816351eb05a614610f6a5781635312ea8e14610ece578163630b5ba114610eb257816364482f7914610e2d578163715018a614610de5578163770a0edf14610da25781637bb7bed114610d45578163847ec40c14610d0d5781638da5cb5b14610ce55781638dbdbe6d1461099557816393f1a40b14610949578163949813b814610911578163977dd98d146108bc578163988d7a60146107555781639bf62f7e1461071d578163a8031a1d1461056f578163b5fd73f814610531578163cbd258b5146104f3578163d18df53c146102a6578163e697b5d81461024a578163f2fde38b14610194575063f35e4a6e1461017057600080fd5b34610190576020366003190112610190576101896112a5565b8035905580f35b5080fd5b91905034610246576020366003190112610246576101b0611246565b906101b96112a5565b6001600160a01b039182169283156101f457505082546001600160a01b031981168317845516600080516020611a5e8339815191528380a380f35b906020608492519162461bcd60e51b8352820152602660248201527f4f776e61626c653a206e6577206f776e657220697320746865207a65726f206160448201526564647265737360d01b6064820152fd5b8280fd5b839034610190578060031936011261019057610264611246565b6001600160a01b039081168352600c602052818320805460243594908510156102a357506020936102949161128d565b92905490519260031b1c168152f35b80fd5b8391503461019057806003193601126101905782356102c361122b565b6102cc826111f6565b50828552600860209081528486206001600160a01b03938416808852908252858720835487516370a0823160e01b815230818c015293996024979296909594918b9083908a90829085165afa9182156104e9578a926104b6575b5060028501544311806104ad575b610382575b505050505050505090918151928392828401908385526060518092528401926080925b82811061036b57505050500390f35b83518552869550938101939281019260010161035c565b6007549654948a5b8b8d8c8b841061039e575050505050610339565b6103ea86916103ac86611272565b939054600394851b1c16948a8152600e8552818120868252855281812054948b8252600f81528282208d8352815282822090878352522054936119cc565b5080610440575b50509064e8d4a5100061040761040d938b611376565b04611687565b60605182101561042e57906104299160808260051b01526112fd565b61038a565b634e487b7160e01b8d52603289528a8dfd5b9061045361045b92600188015490611376565b905490611389565b64e8d4a510009081810291818304149015171561049b5761040761049361040d949361048d8a64e8d4a5100095611389565b906113a9565b9293506103f1565b634e487b7160e01b8f5260118b528c8ffd5b50811515610334565b9091508a81813d83116104e2575b6104ce8183611353565b810103126104de5751908b610326565b8980fd5b503d6104c4565b89513d8c823e3d90fd5b8390346101905760203660031901126101905760209160ff9082906001600160a01b0361051e611246565b1681526009855220541690519015158152f35b8390346101905760203660031901126101905760209160ff9082906001600160a01b0361055c611246565b168152600a855220541690519015158152f35b838334610190578260031936011261019057610589611246565b6001600160a01b03818116808552600a6020908152868620546024803596929392909160ff161561070f576105c0873033866113d1565b8288526002845242898920556105d5866119cc565b5060065495895b87811061061c5750897f962bc326c7b063c70721a63687e0e19450155f93c58eca94769746c0cfb02c5d8a8a6106168f51928392836113b6565b0390a180f35b848c88610628846111f6565b5091858354169051938480926370a0823160e01b8252308b8301525afa918215610705578d926106d0575b50610665600161066e92015486611376565b60035490611389565b64e8d4a51000908181029181830414901517156106be576106b28e6106998f93946106b99695611389565b92848152600e8c528181208b82528c52209182546113a9565b90556112fd565b6105dc565b634e487b7160e01b8d5260118652868dfd5b9091508881813d83116106fe575b6106e88183611353565b810103126106fa575190610665610653565b8c80fd5b503d6106de565b8e513d8f823e3d90fd5b885163dfde867160e01b8152fd5b8390346101905760203660031901126101905760209181906001600160a01b03610745611246565b168152600b845220549051908152f35b8391503461019057608036600319011261019057823561077361122b565b9060443560643580151581036108b85761078b6112a5565b82156108a8576103e882116108985761088b575b85548043116000146108865750435b6107ba836003546113a9565b6003556006546001600160a01b03948516808852600b602052868820829055865190959094916107e986611322565b8686526020860192835287860193845260608601948552600160401b8110156108735780600161081c92016006556111f6565b9590956108615790600394939291511660018060a01b031986541617855551600185015551600284015551910155825260096020528120600160ff1982541617905580f35b634e487b7160e01b8952888a52602489fd5b634e487b7160e01b895260418a52602489fd5b6107ae565b6108936116ce565b61079f565b84516305289dcb60e21b81528790fd5b8451630e03366160e31b81528790fd5b8580fd5b919050346102465760603660031901126102465760209282916108dd61122b565b6108e561125c565b91358352600f86528383206001600160a01b039182168452865283832091168252845220549051908152f35b8390346101905760203660031901126101905760209181906001600160a01b03610939611246565b168152600d845220549051908152f35b9190503461024657816003193601126102465791819261096761122b565b9035825260086020528282209060018060a01b03168252602052206001815491015482519182526020820152f35b905034610246576060366003190112610246578135906024356109b661125c565b916001946109c860028754141561163b565b600286558215610cd7576109db856116f6565b6001600160a01b03938416338114610cc85780610c4a575b506109fd856111f6565b5090825194610a0b86611322565b8083541686528783015494602095868801526002840154858801526003809401549060608801918252888b5260088752858b20338c5287528a868120948554610c3b575b848a51169288518a816024816370a0823160e01b9889825230888301525afa938415610c3057908b93929194610bf8575b50610a9190308d89339151166113d1565b6024868c5116948a519586938492835230908301525afa8015610bee578c90610bbb575b610abf9250611687565b968282511515600014610ba657610af5610afb92612710610ae4610b0296518d611376565b049283915116866005541690611694565b88611687565b83546113a9565b82555b60065492895b848110610b46575050505050907f90890809c654f11d6e72a28fa60149770a0d11ec6c92319d6ceb2bb0a4ea1a1591519283523392a3805580f35b8083610b54610ba193611272565b905490851b1c168a8d52600e89528c81898220915289528c64e8d4a51000610b808a8320548954611376565b04918c8252600f8b528982203383528b5289822091528952878d20556112fd565b610b0b565b505050610bb48683546113a9565b8255610b05565b508782813d8311610be7575b610bd18183611353565b81010312610be357610abf9151610ab5565b8b80fd5b503d610bc7565b87513d8e823e3d90fd5b8381949295503d8311610c29575b610c108183611353565b81010312610c2557610a918a92519390610a80565b8d80fd5b503d610c06565b8a51903d90823e3d90fd5b610c45338c61187b565b610a4f565b808852600c602052828820805490600160401b821015610cb55790610c7391898201815561128d565b81549060031b9087821b809233901b1691191617905533907f9d05414fb79fac216c15606de5cc06664e91a254e4d5f57664d5f1beaf7fb7ef8980a3386109f3565b634e487b7160e01b8a526041845260248afd5b509051632af47b8760e11b8152fd5b905163162908e360e11b8152fd5b839034610190578160031936011261019057905490516001600160a01b039091168152602090f35b8390346101905760203660031901126101905760209181906001600160a01b03610d35611246565b1681526002845220549051908152f35b9190503461024657602036600319011261024657356007548110156102465760079092527fa66cc928b5edb82af9bd49922954155ab7b0942694bea4ce44661d9a8736c6889091015490516001600160a01b039091168152602090f35b919050346102465781600319360112610246576020928291610dc261122b565b90358252600e85528282206001600160a01b039091168252845220549051908152f35b83346102a357806003193601126102a357610dfe6112a5565b80546001600160a01b03198116825581906001600160a01b0316600080516020611a5e8339815191528280a380f35b50503461019057606036600319011261019057356024356044358015158103610eae57610e586112a5565b610ea1575b806001610e7681610e6d866111f6565b500154946111f6565b500155808203610e84578280f35b610e93610e9892600354611687565b6113a9565b60035538808280f35b610ea96116ce565b610e5d565b8380fd5b83346102a357806003193601126102a357610ecb6116ce565b80f35b91905034610246576020366003190112610246576001903591610ef560028354141561163b565b60028255610f39610f05846111f6565b50848652600860209081528387203380895291528387208054888255950187905590548491906001600160a01b0316611694565b519081527fbb757047c2b5f3974fe26b7c10f732e7bce710b0952a71082702781e62ae059560203392a36001805580f35b50503461019057602036600319011261019057610ecb90356116f6565b9190503461024657826003193601126102465760209250549051908152f35b90503461024657806003193601126102465781359160243591610fce6002600154141561163b565b6002600155610fdc846111f6565b509184865260209260088452828720338852845282872091825486116110eb5750611006866116f6565b611010338761187b565b84806110c2575b505060075490865b82811061105a57505050907ff279e6a1f5e320cca91135676d9cb6e44ca8a08c0b88342bcdb1144f6511b56891519283523392a36001805580f35b806110676110bd92611272565b60018060a01b0391549060031b1c1664e8d4a5100061109b85548b8d52600e8a528c848a822091528a52888d205490611376565b0490898b52600f8852868b20338c528852868b20908b528752858a20556112fd565b61101f565b6110e4916110d1828554611687565b84555433906001600160a01b0316611694565b3884611017565b8351630db73cdf60e41b8152fd5b83903461019057816003193601126101905760055490516001600160a01b039091168152602090f35b839034610190578160031936011261019057602090516103e88152f35b8390346101905781600319360112610190576020906003549051908152f35b91905034610246576020366003190112610246573560065481101561024657602083600660809552209060021b019060018060a01b03825416916001810154916003600283015492015492815194855260208501528301526060820152f35b839034610190578160031936011261019057602090516127108152f35b8490346101905781600319360112610190576020906006548152f35b60065481101561121557600660005260206000209060021b0190600090565b634e487b7160e01b600052603260045260246000fd5b602435906001600160a01b038216820361124157565b600080fd5b600435906001600160a01b038216820361124157565b604435906001600160a01b038216820361124157565b60075481101561121557600760005260206000200190600090565b80548210156112155760005260206000200190600090565b6000546001600160a01b031633036112b957565b606460405162461bcd60e51b815260206004820152602060248201527f4f776e61626c653a2063616c6c6572206973206e6f7420746865206f776e65726044820152fd5b600019811461130c5760010190565b634e487b7160e01b600052601160045260246000fd5b608081019081106001600160401b0382111761133d57604052565b634e487b7160e01b600052604160045260246000fd5b601f909101601f19168101906001600160401b0382119082101761133d57604052565b8181029291811591840414171561130c57565b8115611393570490565b634e487b7160e01b600052601260045260246000fd5b9190820180921161130c57565b6001600160a01b039091168152602081019190915260400190565b6040516323b872dd60e01b60208201526001600160a01b03928316602482015292909116604483015260648083019390935291815260a08101918183106001600160401b0384111761133d576114299260405261142b565b565b604080516001600160a01b03929092169290916001600160401b038184018181118382101761133d5784526020948583527f5361666545524332303a206c6f772d6c6576656c2063616c6c206661696c656486840152803b1561157c5760008481959282898195519301915af13d1561156e573d91821161155a57906114cf92918551916114c288601f19601f8401160184611353565b82523d858884013e6115c0565b8051806114de575b5050505050565b8185918101031261019057830151908115918215036102a35750611504578080806114d7565b60849250519062461bcd60e51b82526004820152602a60248201527f5361666545524332303a204552433230206f7065726174696f6e20646964206e6044820152691bdd081cdd58d8d9595960b21b6064820152fd5b634e487b7160e01b84526041600452602484fd5b6114cf9291506060906115c0565b845162461bcd60e51b815260048101879052601d60248201527f416464726573733a2063616c6c20746f206e6f6e2d636f6e74726163740000006044820152606490fd5b909190156115cc575090565b8151156115dc5750805190602001fd5b6040519062461bcd60e51b82528160208060048301528251908160248401526000935b828510611622575050604492506000838284010152601f80199101168101030190fd5b84810182015186860160440152938101938593506115ff565b1561164257565b60405162461bcd60e51b815260206004820152601f60248201527f5265656e7472616e637947756172643a207265656e7472616e742063616c6c006044820152606490fd5b9190820391821161130c57565b6116c961142993926116bb60405194859263a9059cbb60e01b6020850152602484016113b6565b03601f198101845283611353565b61142b565b60065460005b8181106116df575050565b806116ec6116f1926116f6565b6112fd565b6116d4565b6116ff816111f6565b50600281019182544311156118765760018060a01b03908183541692604093845180916370a0823160e01b8252816004913083830152602094859160249384915afa92831561186b5760009361183c575b50821561182f576007549660005b8881106117745750505050505050505050439055565b8161177e82611272565b919054600392831b1c1690611792826119cc565b83600052600d8a528d60002055806117b6575b5050506117b1906112fd565b61175e565b906104536117c99260018c015490611376565b64e8d4a510009081810291818304149015171561181b57906117ef876117b19493611389565b908a600052600e89528c6000209060005288526118118c6000209182546113a9565b90559038806117a5565b84601187634e487b7160e01b600052526000fd5b5050505050505050439055565b90928482813d8311611864575b6118538183611353565b810103126102a35750519138611750565b503d611849565b88513d6000823e3d90fd5b505050565b6007549060005b82811061188f5750505050565b61189881611272565b919060018060a01b03928391549060031b1c1683600052602092600884526119166040918260002033600052865264e8d4a51000610407846000209289600052600e8952856000208760005289528560002054908a600052600f8a5286600020908d1660005289528560002087600052895285600020549354611376565b8061192e575b50505061192991506112fd565b611882565b81516370a0823160e01b81523060048201528581602481875afa9283156119c2575060009261198c575b5061192994508181111561197a5750611972913390611694565b38808061191c565b9050611987913390611694565b611972565b919092939482813d83116119bb575b6119a58183611353565b810103126102a357505161192993929138611958565b503d61199b565b513d6000823e3d90fd5b6040516370a0823160e01b815230600482015291906001600160a01b0316602083602481845afa928315611a5157600093611a1e575b50600052600d602052611a1a60406000205483611687565b9190565b90926020823d8211611a49575b81611a3860209383611353565b810103126102a35750519138611a02565b3d9150611a2b565b6040513d6000823e3d90fdfe8be0079c531659141344cd1fd0a4f28419497f9722a3daafe3b4186f6b6457e0a2646970667358221220ee96282c6599d1c2042cab48083fffb14429b69a3f9a2d2bb48878dc46dd382164736f6c63430008110033",
  "linkReferences": {},
  "deployedLinkReferences": {}
}