{
  "_format": "hh-sol-artifact-1",
  "contractName": "VaultReader",
  "sourceName": "contracts/peripherals/VaultReader.sol",
  "abi": [
    {
      "inputs": [
        {
          "internalType": "address",
          "name": "_vault",
          "type": "address"
        },
        {
          "internalType": "address",
          "name": "_positionManager",
          "type": "address"
        },
        {
          "internalType": "address",
          "name": "_weth",
          "type": "address"
        },
        {
          "internalType": "uint256",
          "name": "_usdAmount",
          "type": "uint256"
        },
        {
          "internalType": "address[]",
          "name": "_tokens",
          "type": "address[]"
        }
      ],
      "name": "getVaultTokenInfoV4",
      "outputs": [
        {
          "internalType": "uint256[]",
          "name": "",
          "type": "uint256[]"
        }
      ],
      "stateMutability": "view",
      "type": "function"
    }
  ],
  "bytecode": "0x6080806040523461001657610b42908161001c8239f35b600080fdfe6080604052600436101561001257600080fd5b60003560e01c63d3f3265c1461002757600080fd5b3461070a5760a036600319011261070a576004356001600160a01b038116810361070a576024356001600160a01b038116810361070a576044356001600160a01b038116900361070a57608435916001600160401b03831161070a573660238401121561070a57826004013561009c81610acb565b936100aa6040519586610a92565b8185526024602086019260051b8201019036821161070a57602401915b818310610a72575050604051633a0df78d60e11b81529290506020836004816001600160a01b0386165afa92831561071757600093610a2e575b50835191600f830292808404600f14901517156106ca5761012183610acb565b9261012f6040519485610a92565b80845261013e601f1991610acb565b0136602085013760005b85518110156109e8576001600160a01b036101638288610ae2565b511680156109df575b6040516352f55eed60e01b81526001600160a01b0382811660048301526020908290602490829088165afa908115610717576000916109ad575b5082600f810204600f14831517156106ca576101c5600f840287610ae2565b5260405163c3c7b9e960e01b81526001600160a01b0382811660048301526020908290602490829088165afa9081156107175760009161097b575b50600f830260018101106106ca5761021e6001600f85020187610ae2565b52604051635e73fe4960e01b81526001600160a01b0382811660048301526020908290602490829088165afa90811561071757600091610949575b50600f830260028101106106ca576102776002600f85020187610ae2565b52604051632c668ec160e01b81526001600160a01b03828116600483015260643560248301526020908290604490829088165afa90811561071757600091610917575b50600f830260038101106106ca576102d86003600f85020187610ae2565b52604051632acbceb560e21b81526001600160a01b0382811660048301526020908290602490829088165afa908115610717576000916108e5575b50600f830260048101106106ca576103316004600f85020187610ae2565b52604051634a993ee960e01b81526001600160a01b0382811660048301526020908290602490829088165afa908115610717576000916108b3575b50600f830260058101106106ca5761038a6005600f85020187610ae2565b5260405163e178084d60e01b81526001600160a01b0382811660048301526020908290602490829088165afa90811561071757600091610881575b50600f830260068101106106ca576103e36006600f85020187610ae2565b5260405163114f1b5560e31b81526001600160a01b0382811660048301526020908290602490829088165afa9081156107175760009161084f575b50600f830260078101106106ca5761043c6007600f85020187610ae2565b52604051634b4c692d60e11b81526001600160a01b0382811660048301526020908290602490829089165afa9081156107175760009161081d575b50600f830260088101106106ca576104956008600f85020187610ae2565b52604051630822e3a760e11b81526001600160a01b0382811660048301526020908290602490829089165afa908115610717576000916107eb575b50600f830260098101106106ca576104ee6009600f85020187610ae2565b526040516340d3096b60e11b81526001600160a01b0382811660048301526020908290602490829088165afa908115610717576000916107b9575b50600f8302600a8101106106ca57610547600a600f85020187610ae2565b52604051637092736960e11b81526001600160a01b0382811660048301526020908290602490829088165afa90811561071757600091610787575b50600f8302600b8101106106ca576105a0600b600f85020187610ae2565b5260405163783a2b6760e11b81526001600160a01b0382811660048301526020908290602490829088165afa90811561071757600091610755575b50600f8302600c8101106106ca576105f9600c600f85020187610ae2565b526040516356c8c2c160e01b81526001600160a01b03828116600483015260006024830152602090829060449082908b165afa90811561071757600091610723575b50600f8302600d8101106106ca57610659600d600f85020187610ae2565b526040516356c8c2c160e01b81526001600160a01b0391821660048201526001602482015290602090829060449082908a165afa908115610717576000916106e0575b50600e600f83020180600f8402116106ca576106b89086610ae2565b5260001981146106ca57600101610148565b634e487b7160e01b600052601160045260246000fd5b90506020813d60201161070f575b816106fb60209383610a92565b8101031261070a57513861069c565b600080fd5b3d91506106ee565b6040513d6000823e3d90fd5b90506020813d60201161074d575b8161073e60209383610a92565b8101031261070a57513861063b565b3d9150610731565b90506020813d60201161077f575b8161077060209383610a92565b8101031261070a5751386105db565b3d9150610763565b90506020813d6020116107b1575b816107a260209383610a92565b8101031261070a575138610582565b3d9150610795565b90506020813d6020116107e3575b816107d460209383610a92565b8101031261070a575138610529565b3d91506107c7565b90506020813d602011610815575b8161080660209383610a92565b8101031261070a5751386104d0565b3d91506107f9565b90506020813d602011610847575b8161083860209383610a92565b8101031261070a575138610477565b3d915061082b565b90506020813d602011610879575b8161086a60209383610a92565b8101031261070a57513861041e565b3d915061085d565b90506020813d6020116108ab575b8161089c60209383610a92565b8101031261070a5751386103c5565b3d915061088f565b90506020813d6020116108dd575b816108ce60209383610a92565b8101031261070a57513861036c565b3d91506108c1565b90506020813d60201161090f575b8161090060209383610a92565b8101031261070a575138610313565b3d91506108f3565b90506020813d602011610941575b8161093260209383610a92565b8101031261070a5751386102ba565b3d9150610925565b90506020813d602011610973575b8161096460209383610a92565b8101031261070a575138610259565b3d9150610957565b90506020813d6020116109a5575b8161099660209383610a92565b8101031261070a575138610200565b3d9150610989565b90506020813d6020116109d7575b816109c860209383610a92565b8101031261070a5751386101a6565b3d91506109bb565b5060443561016c565b8360405180916020820160208352815180915260206040840192019060005b818110610a15575050500390f35b8251845285945060209384019390920191600101610a07565b9092506020813d602011610a6a575b81610a4a60209383610a92565b8101031261070a57516001600160a01b038116810361070a579138610101565b3d9150610a3d565b82356001600160a01b038116810361070a578152602092830192016100c7565b601f909101601f19168101906001600160401b03821190821017610ab557604052565b634e487b7160e01b600052604160045260246000fd5b6001600160401b038111610ab55760051b60200190565b8051821015610af65760209160051b010190565b634e487b7160e01b600052603260045260246000fdfea2646970667358221220bd80450497c3a4d1aeb5800955cc7e6e3a7f25a85007f719a23b49e206b3061764736f6c63430008110033",
  "linkReferences": {},
  "deployedLinkReferences": {}
}