{
  "_format": "hh-sol-artifact-1",
  "contractName": "Vester",
  "sourceName": "contracts/staking/Vester.sol",
  "abi": [
    {
      "inputs": [
        {
          "internalType": "string",
          "name": "_name",
          "type": "string"
        },
        {
          "internalType": "string",
          "name": "_symbol",
          "type": "string"
        },
        {
          "internalType": "uint256",
          "name": "_vestingDuration",
          "type": "uint256"
        },
        {
          "internalType": "address",
          "name": "_esToken",
          "type": "address"
        },
        {
          "internalType": "address",
          "name": "_pairToken",
          "type": "address"
        },
        {
          "internalType": "address",
          "name": "_claimableToken",
          "type": "address"
        },
        {
          "internalType": "address",
          "name": "_rewardTracker",
          "type": "address"
        }
      ],
      "stateMutability": "nonpayable",
      "type": "constructor"
    },
    {
      "inputs": [],
      "name": "CannotTransfer",
      "type": "error"
    },
    {
      "inputs": [],
      "name": "InvalidAmount",
      "type": "error"
    },
    {
      "inputs": [],
      "name": "InvalidBurnAddress",
      "type": "error"
    },
    {
      "inputs": [],
      "name": "InvalidHandler",
      "type": "error"
    },
    {
      "inputs": [],
      "name": "InvalidMintAddress",
      "type": "error"
    },
    {
      "inputs": [],
      "name": "MaxAmountExceeded",
      "type": "error"
    },
    {
      "anonymous": false,
      "inputs": [
        {
          "indexed": true,
          "internalType": "address",
          "name": "owner",
          "type": "address"
        },
        {
          "indexed": true,
          "internalType": "address",
          "name": "spender",
          "type": "address"
        },
        {
          "indexed": false,
          "internalType": "uint256",
          "name": "value",
          "type": "uint256"
        }
      ],
      "name": "Approval",
      "type": "event"
    },
    {
      "anonymous": false,
      "inputs": [
        {
          "indexed": false,
          "internalType": "address",
          "name": "receiver",
          "type": "address"
        },
        {
          "indexed": false,
          "internalType": "uint256",
          "name": "amount",
          "type": "uint256"
        }
      ],
      "name": "Claim",
      "type": "event"
    },
    {
      "anonymous": false,
      "inputs": [
        {
          "indexed": false,
          "internalType": "address",
          "name": "account",
          "type": "address"
        },
        {
          "indexed": false,
          "internalType": "uint256",
          "name": "amount",
          "type": "uint256"
        }
      ],
      "name": "Deposit",
      "type": "event"
    },
    {
      "anonymous": false,
      "inputs": [
        {
          "indexed": true,
          "internalType": "address",
          "name": "previousOwner",
          "type": "address"
        },
        {
          "indexed": true,
          "internalType": "address",
          "name": "newOwner",
          "type": "address"
        }
      ],
      "name": "OwnershipTransferred",
      "type": "event"
    },
    {
      "anonymous": false,
      "inputs": [
        {
          "indexed": true,
          "internalType": "address",
          "name": "from",
          "type": "address"
        },
        {
          "indexed": true,
          "internalType": "address",
          "name": "to",
          "type": "address"
        },
        {
          "indexed": false,
          "internalType": "uint256",
          "name": "value",
          "type": "uint256"
        }
      ],
      "name": "PairTransfer",
      "type": "event"
    },
    {
      "anonymous": false,
      "inputs": [
        {
          "indexed": true,
          "internalType": "address",
          "name": "from",
          "type": "address"
        },
        {
          "indexed": true,
          "internalType": "address",
          "name": "to",
          "type": "address"
        },
        {
          "indexed": false,
          "internalType": "uint256",
          "name": "value",
          "type": "uint256"
        }
      ],
      "name": "Transfer",
      "type": "event"
    },
    {
      "anonymous": false,
      "inputs": [
        {
          "indexed": false,
          "internalType": "address",
          "name": "account",
          "type": "address"
        },
        {
          "indexed": false,
          "internalType": "uint256",
          "name": "claimedAmount",
          "type": "uint256"
        },
        {
          "indexed": false,
          "internalType": "uint256",
          "name": "balance",
          "type": "uint256"
        }
      ],
      "name": "Withdraw",
      "type": "event"
    },
    {
      "inputs": [
        {
          "internalType": "address",
          "name": "",
          "type": "address"
        },
        {
          "internalType": "address",
          "name": "",
          "type": "address"
        }
      ],
      "name": "allowance",
      "outputs": [
        {
          "internalType": "uint256",
          "name": "",
          "type": "uint256"
        }
      ],
      "stateMutability": "view",
      "type": "function"
    },
    {
      "inputs": [
        {
          "internalType": "address",
          "name": "",
          "type": "address"
        },
        {
          "internalType": "uint256",
          "name": "",
          "type": "uint256"
        }
      ],
      "name": "approve",
      "outputs": [
        {
          "internalType": "bool",
          "name": "",
          "type": "bool"
        }
      ],
      "stateMutability": "pure",
      "type": "function"
    },
    {
      "inputs": [
        {
          "internalType": "address",
          "name": "_account",
          "type": "address"
        }
      ],
      "name": "balanceOf",
      "outputs": [
        {
          "internalType": "uint256",
          "name": "",
          "type": "uint256"
        }
      ],
      "stateMutability": "view",
      "type": "function"
    },
    {
      "inputs": [
        {
          "internalType": "address",
          "name": "",
          "type": "address"
        }
      ],
      "name": "balances",
      "outputs": [
        {
          "internalType": "uint256",
          "name": "",
          "type": "uint256"
        }
      ],
      "stateMutability": "view",
      "type": "function"
    },
    {
      "inputs": [
        {
          "internalType": "address",
          "name": "",
          "type": "address"
        }
      ],
      "name": "bonusRewards",
      "outputs": [
        {
          "internalType": "uint256",
          "name": "",
          "type": "uint256"
        }
      ],
      "stateMutability": "view",
      "type": "function"
    },
    {
      "inputs": [],
      "name": "claim",
      "outputs": [
        {
          "internalType": "uint256",
          "name": "",
          "type": "uint256"
        }
      ],
      "stateMutability": "nonpayable",
      "type": "function"
    },
    {
      "inputs": [
        {
          "internalType": "address",
          "name": "_account",
          "type": "address"
        },
        {
          "internalType": "address",
          "name": "_receiver",
          "type": "address"
        }
      ],
      "name": "claimForAccount",
      "outputs": [
        {
          "internalType": "uint256",
          "name": "",
          "type": "uint256"
        }
      ],
      "stateMutability": "nonpayable",
      "type": "function"
    },
    {
      "inputs": [
        {
          "internalType": "address",
          "name": "_account",
          "type": "address"
        }
      ],
      "name": "claimable",
      "outputs": [
        {
          "internalType": "uint256",
          "name": "",
          "type": "uint256"
        }
      ],
      "stateMutability": "view",
      "type": "function"
    },
    {
      "inputs": [],
      "name": "claimableToken",
      "outputs": [
        {
          "internalType": "address",
          "name": "",
          "type": "address"
        }
      ],
      "stateMutability": "view",
      "type": "function"
    },
    {
      "inputs": [
        {
          "internalType": "address",
          "name": "",
          "type": "address"
        }
      ],
      "name": "claimedAmounts",
      "outputs": [
        {
          "internalType": "uint256",
          "name": "",
          "type": "uint256"
        }
      ],
      "stateMutability": "view",
      "type": "function"
    },
    {
      "inputs": [
        {
          "internalType": "address",
          "name": "",
          "type": "address"
        }
      ],
      "name": "cumulativeClaimAmounts",
      "outputs": [
        {
          "internalType": "uint256",
          "name": "",
          "type": "uint256"
        }
      ],
      "stateMutability": "view",
      "type": "function"
    },
    {
      "inputs": [
        {
          "internalType": "address",
          "name": "",
          "type": "address"
        }
      ],
      "name": "cumulativeRewardDeductions",
      "outputs": [
        {
          "internalType": "uint256",
          "name": "",
          "type": "uint256"
        }
      ],
      "stateMutability": "view",
      "type": "function"
    },
    {
      "inputs": [],
      "name": "decimals",
      "outputs": [
        {
          "internalType": "uint8",
          "name": "",
          "type": "uint8"
        }
      ],
      "stateMutability": "pure",
      "type": "function"
    },
    {
      "inputs": [
        {
          "internalType": "uint256",
          "name": "_amount",
          "type": "uint256"
        }
      ],
      "name": "deposit",
      "outputs": [],
      "stateMutability": "nonpayable",
      "type": "function"
    },
    {
      "inputs": [
        {
          "internalType": "address",
          "name": "_account",
          "type": "address"
        },
        {
          "internalType": "uint256",
          "name": "_amount",
          "type": "uint256"
        }
      ],
      "name": "depositForAccount",
      "outputs": [],
      "stateMutability": "nonpayable",
      "type": "function"
    },
    {
      "inputs": [],
      "name": "esToken",
      "outputs": [
        {
          "internalType": "address",
          "name": "",
          "type": "address"
        }
      ],
      "stateMutability": "view",
      "type": "function"
    },
    {
      "inputs": [
        {
          "internalType": "address",
          "name": "_account",
          "type": "address"
        }
      ],
      "name": "getCombinedAverageStakedAmount",
      "outputs": [
        {
          "internalType": "uint256",
          "name": "",
          "type": "uint256"
        }
      ],
      "stateMutability": "view",
      "type": "function"
    },
    {
      "inputs": [
        {
          "internalType": "address",
          "name": "_account",
          "type": "address"
        }
      ],
      "name": "getMaxVestableAmount",
      "outputs": [
        {
          "internalType": "uint256",
          "name": "",
          "type": "uint256"
        }
      ],
      "stateMutability": "view",
      "type": "function"
    },
    {
      "inputs": [
        {
          "internalType": "address",
          "name": "_account",
          "type": "address"
        },
        {
          "internalType": "uint256",
          "name": "_esAmount",
          "type": "uint256"
        }
      ],
      "name": "getPairAmount",
      "outputs": [
        {
          "internalType": "uint256",
          "name": "",
          "type": "uint256"
        }
      ],
      "stateMutability": "view",
      "type": "function"
    },
    {
      "inputs": [
        {
          "internalType": "address",
          "name": "_account",
          "type": "address"
        }
      ],
      "name": "getTotalVested",
      "outputs": [
        {
          "internalType": "uint256",
          "name": "",
          "type": "uint256"
        }
      ],
      "stateMutability": "view",
      "type": "function"
    },
    {
      "inputs": [
        {
          "internalType": "address",
          "name": "_account",
          "type": "address"
        }
      ],
      "name": "getVestedAmount",
      "outputs": [
        {
          "internalType": "uint256",
          "name": "",
          "type": "uint256"
        }
      ],
      "stateMutability": "view",
      "type": "function"
    },
    {
      "inputs": [],
      "name": "hasMaxVestableAmount",
      "outputs": [
        {
          "internalType": "bool",
          "name": "",
          "type": "bool"
        }
      ],
      "stateMutability": "view",
      "type": "function"
    },
    {
      "inputs": [],
      "name": "hasPairToken",
      "outputs": [
        {
          "internalType": "bool",
          "name": "",
          "type": "bool"
        }
      ],
      "stateMutability": "view",
      "type": "function"
    },
    {
      "inputs": [],
      "name": "hasRewardTracker",
      "outputs": [
        {
          "internalType": "bool",
          "name": "",
          "type": "bool"
        }
      ],
      "stateMutability": "view",
      "type": "function"
    },
    {
      "inputs": [
        {
          "internalType": "address",
          "name": "",
          "type": "address"
        }
      ],
      "name": "isHandler",
      "outputs": [
        {
          "internalType": "bool",
          "name": "",
          "type": "bool"
        }
      ],
      "stateMutability": "view",
      "type": "function"
    },
    {
      "inputs": [
        {
          "internalType": "address",
          "name": "",
          "type": "address"
        }
      ],
      "name": "lastVestingTimes",
      "outputs": [
        {
          "internalType": "uint256",
          "name": "",
          "type": "uint256"
        }
      ],
      "stateMutability": "view",
      "type": "function"
    },
    {
      "inputs": [],
      "name": "name",
      "outputs": [
        {
          "internalType": "string",
          "name": "",
          "type": "string"
        }
      ],
      "stateMutability": "view",
      "type": "function"
    },
    {
      "inputs": [],
      "name": "owner",
      "outputs": [
        {
          "internalType": "address",
          "name": "",
          "type": "address"
        }
      ],
      "stateMutability": "view",
      "type": "function"
    },
    {
      "inputs": [
        {
          "internalType": "address",
          "name": "",
          "type": "address"
        }
      ],
      "name": "pairAmounts",
      "outputs": [
        {
          "internalType": "uint256",
          "name": "",
          "type": "uint256"
        }
      ],
      "stateMutability": "view",
      "type": "function"
    },
    {
      "inputs": [],
      "name": "pairSupply",
      "outputs": [
        {
          "internalType": "uint256",
          "name": "",
          "type": "uint256"
        }
      ],
      "stateMutability": "view",
      "type": "function"
    },
    {
      "inputs": [],
      "name": "pairToken",
      "outputs": [
        {
          "internalType": "address",
          "name": "",
          "type": "address"
        }
      ],
      "stateMutability": "view",
      "type": "function"
    },
    {
      "inputs": [],
      "name": "renounceOwnership",
      "outputs": [],
      "stateMutability": "nonpayable",
      "type": "function"
    },
    {
      "inputs": [],
      "name": "rewardTracker",
      "outputs": [
        {
          "internalType": "address",
          "name": "",
          "type": "address"
        }
      ],
      "stateMutability": "view",
      "type": "function"
    },
    {
      "inputs": [
        {
          "internalType": "address",
          "name": "_account",
          "type": "address"
        },
        {
          "internalType": "uint256",
          "name": "_amount",
          "type": "uint256"
        }
      ],
      "name": "setBonusRewards",
      "outputs": [],
      "stateMutability": "nonpayable",
      "type": "function"
    },
    {
      "inputs": [
        {
          "internalType": "address",
          "name": "_account",
          "type": "address"
        },
        {
          "internalType": "uint256",
          "name": "_amount",
          "type": "uint256"
        }
      ],
      "name": "setCumulativeRewardDeductions",
      "outputs": [],
      "stateMutability": "nonpayable",
      "type": "function"
    },
    {
      "inputs": [
        {
          "internalType": "address",
          "name": "_handler",
          "type": "address"
        },
        {
          "internalType": "bool",
          "name": "_isActive",
          "type": "bool"
        }
      ],
      "name": "setHandler",
      "outputs": [],
      "stateMutability": "nonpayable",
      "type": "function"
    },
    {
      "inputs": [
        {
          "internalType": "bool",
          "name": "_hasMaxVestableAmount",
          "type": "bool"
        }
      ],
      "name": "setHasMaxVestableAmount",
      "outputs": [],
      "stateMutability": "nonpayable",
      "type": "function"
    },
    {
      "inputs": [
        {
          "internalType": "address",
          "name": "_account",
          "type": "address"
        },
        {
          "internalType": "uint256",
          "name": "_amount",
          "type": "uint256"
        }
      ],
      "name": "setTransferredAverageStakedAmounts",
      "outputs": [],
      "stateMutability": "nonpayable",
      "type": "function"
    },
    {
      "inputs": [
        {
          "internalType": "address",
          "name": "_account",
          "type": "address"
        },
        {
          "internalType": "uint256",
          "name": "_amount",
          "type": "uint256"
        }
      ],
      "name": "setTransferredCumulativeRewards",
      "outputs": [],
      "stateMutability": "nonpayable",
      "type": "function"
    },
    {
      "inputs": [],
      "name": "symbol",
      "outputs": [
        {
          "internalType": "string",
          "name": "",
          "type": "string"
        }
      ],
      "stateMutability": "view",
      "type": "function"
    },
    {
      "inputs": [],
      "name": "totalSupply",
      "outputs": [
        {
          "internalType": "uint256",
          "name": "",
          "type": "uint256"
        }
      ],
      "stateMutability": "view",
      "type": "function"
    },
    {
      "inputs": [
        {
          "internalType": "address",
          "name": "",
          "type": "address"
        },
        {
          "internalType": "uint256",
          "name": "",
          "type": "uint256"
        }
      ],
      "name": "transfer",
      "outputs": [
        {
          "internalType": "bool",
          "name": "",
          "type": "bool"
        }
      ],
      "stateMutability": "pure",
      "type": "function"
    },
    {
      "inputs": [
        {
          "internalType": "address",
          "name": "",
          "type": "address"
        },
        {
          "internalType": "address",
          "name": "",
          "type": "address"
        },
        {
          "internalType": "uint256",
          "name": "",
          "type": "uint256"
        }
      ],
      "name": "transferFrom",
      "outputs": [
        {
          "internalType": "bool",
          "name": "",
          "type": "bool"
        }
      ],
      "stateMutability": "pure",
      "type": "function"
    },
    {
      "inputs": [
        {
          "internalType": "address",
          "name": "newOwner",
          "type": "address"
        }
      ],
      "name": "transferOwnership",
      "outputs": [],
      "stateMutability": "nonpayable",
      "type": "function"
    },
    {
      "inputs": [
        {
          "internalType": "address",
          "name": "_sender",
          "type": "address"
        },
        {
          "internalType": "address",
          "name": "_receiver",
          "type": "address"
        }
      ],
      "name": "transferStakeValues",
      "outputs": [],
      "stateMutability": "nonpayable",
      "type": "function"
    },
    {
      "inputs": [
        {
          "internalType": "address",
          "name": "",
          "type": "address"
        }
      ],
      "name": "transferredAverageStakedAmounts",
      "outputs": [
        {
          "internalType": "uint256",
          "name": "",
          "type": "uint256"
        }
      ],
      "stateMutability": "view",
      "type": "function"
    },
    {
      "inputs": [
        {
          "internalType": "address",
          "name": "",
          "type": "address"
        }
      ],
      "name": "transferredCumulativeRewards",
      "outputs": [
        {
          "internalType": "uint256",
          "name": "",
          "type": "uint256"
        }
      ],
      "stateMutability": "view",
      "type": "function"
    },
    {
      "inputs": [],
      "name": "vestingDuration",
      "outputs": [
        {
          "internalType": "uint256",
          "name": "",
          "type": "uint256"
        }
      ],
      "stateMutability": "view",
      "type": "function"
    },
    {
      "inputs": [],
      "name": "withdraw",
      "outputs": [],
      "stateMutability": "nonpayable",
      "type": "function"
    },
    {
      "inputs": [
        {
          "internalType": "address",
          "name": "_token",
          "type": "address"
        },
        {
          "internalType": "address",
          "name": "_account",
          "type": "address"
        },
        {
          "internalType": "uint256",
          "name": "_amount",
          "type": "uint256"
        }
      ],
      "name": "withdrawToken",
      "outputs": [],
      "stateMutability": "nonpayable",
      "type": "function"
    }
  ],
  "bytecode": "0x61012060405234620004935762002316803803806200001e8162000498565b92833981019060e081830312620004935780516001600160401b0381116200049357826200004e918301620004be565b602082015190926001600160401b038211620004935762000071918301620004be565b6040820151620000846060840162000530565b90620000936080850162000530565b92620000b060c0620000a860a0880162000530565b960162000530565b600160008181558154336001600160a01b0319821681179093559298926001600160a01b0316907f8be0079c531659141344cd1fd0a4f28419497f9722a3daafe3b4186f6b6457e09080a38051906001600160401b038211620003885760025490600182811c9216801562000488575b6020831014620003675781601f84931162000424575b50602090601f8311600114620003aa576000926200039e575b50508160011b916000199060031b1c1916176002555b80516001600160401b0381116200038857600391825490600182811c921680156200037d575b6020831014620003675781601f8493116200030f575b50602090601f8311600114620002a55760009262000299575b50508160011b9160001990841b1c19161790555b60805260a05260c05260e052610100818152906001600160a01b031662000286575b604051611db09182620005468339608051828181610f160152611c9a015260a051828181610cab01528181610eb0015281816118b80152611b0e015260c0518281816105b801528181610bd801528181610c670152611936015260e0518281816103a00152611c100152518181816102d3015281816103e801528181610a0d015281816115040152818161164501526117850152f35b600160ff196006541617600655620001f0565b015190503880620001ba565b6000858152602081209350601f198516905b818110620002f65750908460019594939210620002dd575b505050811b019055620001ce565b015160001983861b60f8161c19169055388080620002cf565b92936020600181928786015181550195019301620002b7565b909150836000526020600020601f840160051c810191602085106200035c575b90601f859493920160051c01905b8181106200034c5750620001a1565b600081558493506001016200033d565b90915081906200032f565b634e487b7160e01b600052602260045260246000fd5b91607f16916200018b565b634e487b7160e01b600052604160045260246000fd5b0151905038806200014f565b60026000908152600080516020620022f68339815191529350601f198516905b8181106200040b5750908460019594939210620003f1575b505050811b0160025562000165565b015160001960f88460031b161c19169055388080620003e2565b92936020600181928786015181550195019301620003ca565b6002600052909150600080516020620022f6833981519152601f840160051c810191602085106200047d575b90601f859493920160051c01905b8181106200046d575062000136565b600081558493506001016200045e565b909150819062000450565b91607f169162000120565b600080fd5b6040519190601f01601f191682016001600160401b038111838210176200038857604052565b919080601f84011215620004935782516001600160401b0381116200038857602090620004f4601f8201601f1916830162000498565b92818452828287010111620004935760005b8181106200051c57508260009394955001015290565b858101830151848201840152820162000506565b51906001600160a01b0382168203620004935756fe60406080815260048036101561001457600080fd5b600091823560e01c806301e336671461108157806306fdde0314610fe257806308f26c7614610fbc578063095ea7b3146107335780630db9ea4a14610f8457806313e82e7a14610f395780631514617e14610efe57806315e90a4114610edf57806316ca05c514610e9b57806318160ddd14610e7d57806323b872dd14610e5c57806327e235e3146109c0578063313ce56714610e40578063342fcda914610e01578063387a785d14610dc95780633ccfd60b14610c075780633de35b7914610bc3578063402914f514610b9d57806341f2272414610b4b57806345f01ee614610b2557806346ea87af14610ae75780634e71d92d14610aab5780635d50e72914610a7357806369de9b9314610a3c5780636bcb411a146109f857806370a08231146109c057806371417b3214610988578063715018a61461093a5780637337035c146109025780637cf8f3b2146108d95780638da5cb5b146108b057806393035473146105e957806395d89b41146107cd5780639cb7de4b14610777578063a2545fa51461073f578063a9059cbb14610733578063acf077a51461070f578063b5ff136d146106d7578063b6b55f25146106a0578063b71bce2a14610668578063d0b038b714610616578063d5a73fdd146105e9578063d75abb57146105a3578063d89b700714610551578063dd62ed3e14610523578063e3ecc4b2146104d1578063f2fde38b14610419578063f421f62a146103d3578063f6d6d5aa1461038b5763f713c23014610247575b600080fd5b8291346103875781600319360112610387576102616110ad565b6102696110c3565b610277600286541415611215565b60028555610283611ccf565b61028c82611623565b60018060a01b038080931693848852602092600c84528789205516938487528686812055600d825281856024888a20549389519687938492633792def360e01b84528301527f0000000000000000000000000000000000000000000000000000000000000000165afa92831561037d578793610348575b509161031181600f94611489565b848852600d835286882055848752600e825285872055600d8152858581205552828420549084528284205582528120556001815580f35b92508183813d8311610376575b61035f818361110e565b8101031261037257915191610311610303565b8680fd5b503d610355565b86513d89823e3d90fd5b5050fd5b8382346103cf57816003193601126103cf57517f00000000000000000000000000000000000000000000000000000000000000006001600160a01b03168152602090f35b5080fd5b8382346103cf57816003193601126103cf57517f00000000000000000000000000000000000000000000000000000000000000006001600160a01b031615158152602090f35b5090346104cd5760203660031901126104cd576104346110ad565b9061043d6111bd565b6001600160a01b0391821692831561047b575050600180546001600160a01b03198116841790915516600080516020611cfb8339815191528380a380f35b906020608492519162461bcd60e51b8352820152602660248201527f4f776e61626c653a206e6577206f776e657220697320746865207a65726f206160448201526564647265737360d01b6064820152fd5b8280fd5b8382346103cf57806003193601126103cf576104eb6110ad565b6104f9600284541415611215565b60028355610505611ccf565b6001600160a01b03168252600c602052812060243590556001815580f35b8382346103cf57806003193601126103cf57906020916105416110ad565b5061054a6110c3565b5051908152f35b8382346103cf57806003193601126103cf5761056b6110ad565b610579600284541415611215565b60028355610585611ccf565b6001600160a01b03168252600e602052812060243590556001815580f35b8382346103cf57816003193601126103cf57517f00000000000000000000000000000000000000000000000000000000000000006001600160a01b031615158152602090f35b8382346103cf5760203660031901126103cf5760209061060f61060a6110ad565b6117e6565b9051908152f35b8382346103cf57806003193601126103cf576106306110ad565b61063e600284541415611215565b6002835561064a611ccf565b6001600160a01b03168252600d602052812060243590556001815580f35b8382346103cf5760203660031901126103cf5760209181906001600160a01b036106906110ad565b168152600d845220549051908152f35b5050346103cf5760203660031901126103cf576106d0906106c5600284541415611215565b600283553533611896565b6001815580f35b8382346103cf5760203660031901126103cf5760209181906001600160a01b036106ff6110ad565b1681526009845220549051908152f35b8382346103cf57816003193601126103cf5760209060ff6006541690519015158152f35b50505050610242611190565b8382346103cf5760203660031901126103cf5760209181906001600160a01b036107676110ad565b168152600f845220549051908152f35b8382346103cf57806003193601126103cf576107916110ad565b90602435918215158093036107c9576107a86111bd565b60018060a01b03168352601060205282209060ff8019835416911617905580f35b8380fd5b50346104cd57826003193601126104cd57805191836003549060019082821c9282811680156108a6575b602095868610821461089357508488529081156108715750600114610836575b6108328686610828828b038361110e565b5191829182611147565b0390f35b929550600383528583205b82841061085e575050508261083294610828928201019438610817565b8054868501880152928601928101610841565b60ff191687860152505050151560051b83010192506108288261083238610817565b634e487b7160e01b845260229052602483fd5b93607f16936107f7565b8382346103cf57816003193601126103cf5760015490516001600160a01b039091168152602090f35b8382346103cf57806003193601126103cf5760209061060f6108f96110ad565b60243590611782565b8382346103cf5760203660031901126103cf5760209181906001600160a01b0361092a6110ad565b168152600c845220549051908152f35b83346109855780600319360112610985576109536111bd565b600180546001600160a01b0319811690915581906001600160a01b0316600080516020611cfb8339815191528280a380f35b80fd5b8382346103cf5760203660031901126103cf5760209181906001600160a01b036109b06110ad565b168152600a845220549051908152f35b8382346103cf5760203660031901126103cf5760209181906001600160a01b036109e86110ad565b1681526007845220549051908152f35b8382346103cf57816003193601126103cf57517f00000000000000000000000000000000000000000000000000000000000000006001600160a01b03168152602090f35b5050346103cf5760203660031901126103cf57358015158091036103cf57610a626111bd565b60ff80196006541691161760065580f35b8382346103cf5760203660031901126103cf5760209181906001600160a01b03610a9b6110ad565b1681526008845220549051908152f35b8382346103cf57816003193601126103cf5790602091610acf600283541415611215565b600282556001610adf3333611ba1565b925551908152f35b8382346103cf5760203660031901126103cf5760209160ff9082906001600160a01b03610b126110ad565b1681526010855220541690519015158152f35b8382346103cf5760203660031901126103cf5760209061060f610b466110ad565b611623565b8382346103cf57806003193601126103cf57610b656110ad565b610b73600284541415611215565b60028355610b7f611ccf565b6001600160a01b03168252600f602052812060243590556001815580f35b8382346103cf5760203660031901126103cf5760209061060f610bbe6110ad565b6114b9565b8382346103cf57816003193601126103cf57517f00000000000000000000000000000000000000000000000000000000000000006001600160a01b03168152602090f35b5090346104cd57826003193601126104cd57610c27600284541415611215565b60028355610c353333611ba1565b503383526020916009835280842054600784528185205492610c578285611489565b15610dbb576001600160a01b03907f0000000000000000000000000000000000000000000000000000000000000000821680610d0d575b87600080516020611d3b833981519152606089898989610cd183337f00000000000000000000000000000000000000000000000000000000000000008d1661127c565b610cdb8333611810565b338752600984528682812055600a84528682812055600b84528682812055815193338552840152820152a16001815580f35b3388526008875284882054913315610dad573389526008885282868a205410610d9f575085600080516020611d3b833981519152979593610d916060989694610cd194338d5260088a528c88838183205403912055610d6e826005546114ac565b6005558c8851838152600080516020611d5b8339815191528c3392a3339061127c565b939597505081939550610c8e565b855163162908e360e11b8152fd5b855163cc8da7d960e01b8152fd5b825163162908e360e11b8152fd5b8382346103cf5760203660031901126103cf5760209181906001600160a01b03610df16110ad565b168152600e845220549051908152f35b8382346103cf57366003190112610985576106d0610e1d6110ad565b610e2b600284541415611215565b60028355610e37611ccf565b60243590611896565b8382346103cf57816003193601126103cf576020905160128152f35b5082346109855750610e6d366110d9565b5050505163cc7744d560e01b8152fd5b5090346104cd57826003193601126104cd5760209250549051908152f35b8382346103cf57816003193601126103cf57517f00000000000000000000000000000000000000000000000000000000000000006001600160a01b03168152602090f35b8382346103cf57816003193601126103cf576020906005549051908152f35b8382346103cf57816003193601126103cf57602090517f00000000000000000000000000000000000000000000000000000000000000008152f35b8382346103cf57806003193601126103cf57906020916001610adf610f5c6110ad565b610f646110c3565b90610f73600287541415611215565b60028655610f7f611ccf565b611ba1565b8382346103cf5760203660031901126103cf5760209181906001600160a01b03610fac6110ad565b168152600b845220549051908152f35b8382346103cf5760203660031901126103cf5760209061060f610fdd6110ad565b6114fa565b50346104cd57826003193601126104cd57805191836002549060019082821c928281168015611077575b60209586861082146108935750848852908115610871575060011461103c576108328686610828828b038361110e565b929550600283528583205b828410611064575050508261083294610828928201019438610817565b8054868501880152928601928101611047565b93607f169361100c565b8334610985576110aa611093366110d9565b9161109c6111bd565b6001600160a01b031661127c565b80f35b600435906001600160a01b038216820361024257565b602435906001600160a01b038216820361024257565b6060906003190112610242576001600160a01b0390600435828116810361024257916024359081168103610242579060443590565b601f909101601f19168101906001600160401b0382119082101761113157604052565b634e487b7160e01b600052604160045260246000fd5b6020808252825181830181905290939260005b82811061117c57505060409293506000838284010152601f8019910116010190565b81810186015184820160400152850161115a565b5034610242576040366003190112610242576111aa6110ad565b5060405163cc7744d560e01b8152600490fd5b6001546001600160a01b031633036111d157565b606460405162461bcd60e51b815260206004820152602060248201527f4f776e61626c653a2063616c6c6572206973206e6f7420746865206f776e65726044820152fd5b1561121c57565b60405162461bcd60e51b815260206004820152601f60248201527f5265656e7472616e637947756172643a207265656e7472616e742063616c6c006044820152606490fd5b6001600160a01b039091168152602081019190915260400190565b6112b16112b693926112a360405194859263a9059cbb60e01b602085015260248401611261565b03601f19810184528361110e565b6112b8565b565b604080516001600160a01b03929092169290916001600160401b03818401818111838210176111315784526020948583527f5361666545524332303a206c6f772d6c6576656c2063616c6c206661696c656486840152803b156114095760008481959282898195519301915af13d156113fb573d9182116113e7579061135c929185519161134f88601f19601f840116018461110e565b82523d858884013e61144d565b80518061136b575b5050505050565b818591810103126103cf5783015190811591821503610985575061139157808080611364565b60849250519062461bcd60e51b82526004820152602a60248201527f5361666545524332303a204552433230206f7065726174696f6e20646964206e6044820152691bdd081cdd58d8d9595960b21b6064820152fd5b634e487b7160e01b84526041600452602484fd5b61135c92915060609061144d565b845162461bcd60e51b815260048101879052601d60248201527f416464726573733a2063616c6c20746f206e6f6e2d636f6e74726163740000006044820152606490fd5b90919015611459575090565b8151156114695750805190602001fd5b60405162461bcd60e51b81529081906114859060048301611147565b0390fd5b9190820180921161149657565b634e487b7160e01b600052601160045260246000fd5b9190820391821161149657565b6114f79060018060a01b03811660005260096020526114f16114eb604060002054600a602052604060002054906114ac565b91611c4a565b90611489565b90565b6001600160a01b037f000000000000000000000000000000000000000000000000000000000000000081169182156115e85716600091818352602090600d82526040842054600f835260248360408720549360405192838092633792def360e01b82528960048301525afa9081156115dd5786916115aa575b509161158561158a92600e9594611489565b611489565b928452526040822054908181106115a5576114f792506114ac565b505090565b90508381813d83116115d6575b6115c1818361110e565b810103126115d25751611585611573565b8580fd5b503d6115b7565b6040513d88823e3d90fd5b505050600090565b8181029291811591840414171561149657565b811561160d570490565b634e487b7160e01b600052601260045260246000fd5b60408051633792def360e01b81526001600160a01b03928316600482018190527f00000000000000000000000000000000000000000000000000000000000000009093169291602091908282602481885afa91821561177757600092611748575b5083600052600d835280600020549261169d8484611489565b94851561173c578160249784519889809263a318021760e01b82528560048301525afa96871561173157600097611702575b50856116f76114f79897956116f795600c6114f199966116fc966000525260002054986115f0565b611603565b946115f0565b90968282813d831161172a575b611719818361110e565b8101031261098557505195856116cf565b503d61170f565b83513d6000823e3d90fd5b50505050505050600090565b90918382813d8311611770575b61175f818361110e565b810103126109855750519038611684565b503d611755565b50513d6000823e3d90fd5b907f00000000000000000000000000000000000000000000000000000000000000006001600160a01b0316156117df576117bb82611623565b9182156115e8576117cb906114fa565b9081156115e8576114f7926116f7916115f0565b5050600090565b60018060a01b031660005260076020526114f7604060002054600960205260406000205490611489565b6001600160a01b0316801561188457600091818352600760205280604084205410611872576020600080516020611d1b8339815191529183855260078252806040862054036040862055611866816004546114ac565b600455604051908152a3565b60405163162908e360e11b8152600490fd5b60405163cc8da7d960e01b8152600490fd5b91908015611872576118a783611abe565b6001600160a01b03926118de8230837f00000000000000000000000000000000000000000000000000000000000000008816611a66565b8381168015611a54576118f383600454611489565b60045560008181526020600781526040966119118689852054611489565b84845260078352888420558383600080516020611d1b833981519152848b518a8152a37f00000000000000000000000000000000000000000000000000000000000000001690816119ca575b5050505060ff600654166119a1575b61199c7fe1fffcc4923d04b559f4d29a8bfc6cda04eb5b0d3c460751c2402c5c5cc9109c93945192839283611261565b0390a1565b6119aa816114fa565b6119b3826117e6565b111561196c57835163a049dfc760e01b8152600490fd5b838352600881528783205491600782526119e78985205487611782565b928084116119f7575b505061195d565b611a13611a1d91600080516020611d5b833981519152956114ac565b8092883091611a66565b611a2981600554611489565b60055584845260088252888420611a41828254611489565b90558851908152a33880808080806119f0565b6040516357da576f60e11b8152600490fd5b6040516323b872dd60e01b60208201526001600160a01b03928316602482015292909116604483015260648083019390935291815260a08101918183106001600160401b03841117611131576112b6926040526112b8565b611ac781611c4a565b6001600160a01b038281166000818152600b602052604081204290559383156113645783611af491611810565b8352600960205260408320611b0a838254611489565b90557f00000000000000000000000000000000000000000000000000000000000000001690813b156104cd57611b5a83928392604051958680948193632770a7eb60e21b83523060048401611261565b03925af18015611b9457611b6c575050565b6001600160401b038211611b805750604052565b634e487b7160e01b81526041600452602490fd5b50604051903d90823e3d90fd5b611c35917f47cee97cb7acd717b3c0aa1435d004cd5b3c8c57d70dbceb4e4458bbd60e39d491611bd081611abe565b611bd9816114b9565b9384809360018060a01b0380851680600052600a602052611bff84604060002054611489565b90600052600a6020526040600020557f00000000000000000000000000000000000000000000000000000000000000001661127c565b611c4460405192839283611261565b0390a190565b6001600160a01b0381166000818152600b6020526040902054611c6d90426114ac565b9060005260076020526040600020549182156115e857611cbf91611c93611c98926117e6565b6115f0565b7f000000000000000000000000000000000000000000000000000000000000000090611603565b818110611cca575090565b905090565b33600052601060205260ff6040600020541615611ce857565b60405163d8f59fa560e01b8152600490fdfe8be0079c531659141344cd1fd0a4f28419497f9722a3daafe3b4186f6b6457e0ddf252ad1be2c89b69c2b068fc378daa952ba7f163c4a11628f55a4df523b3eff279e6a1f5e320cca91135676d9cb6e44ca8a08c0b88342bcdb1144f6511b568659523c479d006050ebc0d0e48fea36d1b2c5d45b2f31402ac6f8671fc84cc04a264697066735822122018b5caee3728516d9a4e2cdd830b70838d7e32206a282f177bb432e232d6619a64736f6c63430008110033405787fa12a823e0f2b7631cc41b3ba8828b3321ca811111fa75cd3aa3bb5ace",
  "linkReferences": {},
  "deployedLinkReferences": {}
}