{
  "_format": "hh-sol-artifact-1",
  "contractName": "YieldFarm",
  "sourceName": "contracts/tokens/YieldFarm.sol",
  "abi": [
    {
      "inputs": [
        {
          "internalType": "string",
          "name": "_name",
          "type": "string"
        },
        {
          "internalType": "string",
          "name": "_symbol",
          "type": "string"
        },
        {
          "internalType": "address",
          "name": "_stakingToken",
          "type": "address"
        }
      ],
      "stateMutability": "nonpayable",
      "type": "constructor"
    },
    {
      "inputs": [],
      "name": "AccountAlreadyMarked",
      "type": "error"
    },
    {
      "inputs": [],
      "name": "AccountNotMarked",
      "type": "error"
    },
    {
      "inputs": [],
      "name": "InsufficientAllowance",
      "type": "error"
    },
    {
      "inputs": [],
      "name": "InsufficientBalance",
      "type": "error"
    },
    {
      "inputs": [],
      "name": "NotWhitelisted",
      "type": "error"
    },
    {
      "inputs": [],
      "name": "OnlyAdmin",
      "type": "error"
    },
    {
      "inputs": [],
      "name": "ZeroAddress",
      "type": "error"
    },
    {
      "anonymous": false,
      "inputs": [
        {
          "indexed": true,
          "internalType": "address",
          "name": "owner",
          "type": "address"
        },
        {
          "indexed": true,
          "internalType": "address",
          "name": "spender",
          "type": "address"
        },
        {
          "indexed": false,
          "internalType": "uint256",
          "name": "value",
          "type": "uint256"
        }
      ],
      "name": "Approval",
      "type": "event"
    },
    {
      "anonymous": false,
      "inputs": [
        {
          "indexed": true,
          "internalType": "address",
          "name": "previousOwner",
          "type": "address"
        },
        {
          "indexed": true,
          "internalType": "address",
          "name": "newOwner",
          "type": "address"
        }
      ],
      "name": "OwnershipTransferred",
      "type": "event"
    },
    {
      "anonymous": false,
      "inputs": [
        {
          "indexed": true,
          "internalType": "address",
          "name": "from",
          "type": "address"
        },
        {
          "indexed": true,
          "internalType": "address",
          "name": "to",
          "type": "address"
        },
        {
          "indexed": false,
          "internalType": "uint256",
          "name": "value",
          "type": "uint256"
        }
      ],
      "name": "Transfer",
      "type": "event"
    },
    {
      "inputs": [
        {
          "internalType": "address",
          "name": "_account",
          "type": "address"
        }
      ],
      "name": "addAdmin",
      "outputs": [],
      "stateMutability": "nonpayable",
      "type": "function"
    },
    {
      "inputs": [
        {
          "internalType": "address",
          "name": "_account",
          "type": "address"
        }
      ],
      "name": "addNonStakingAccount",
      "outputs": [],
      "stateMutability": "nonpayable",
      "type": "function"
    },
    {
      "inputs": [
        {
          "internalType": "address",
          "name": "",
          "type": "address"
        }
      ],
      "name": "admins",
      "outputs": [
        {
          "internalType": "bool",
          "name": "",
          "type": "bool"
        }
      ],
      "stateMutability": "view",
      "type": "function"
    },
    {
      "inputs": [
        {
          "internalType": "address",
          "name": "_owner",
          "type": "address"
        },
        {
          "internalType": "address",
          "name": "_spender",
          "type": "address"
        }
      ],
      "name": "allowance",
      "outputs": [
        {
          "internalType": "uint256",
          "name": "",
          "type": "uint256"
        }
      ],
      "stateMutability": "view",
      "type": "function"
    },
    {
      "inputs": [
        {
          "internalType": "address",
          "name": "",
          "type": "address"
        },
        {
          "internalType": "address",
          "name": "",
          "type": "address"
        }
      ],
      "name": "allowances",
      "outputs": [
        {
          "internalType": "uint256",
          "name": "",
          "type": "uint256"
        }
      ],
      "stateMutability": "view",
      "type": "function"
    },
    {
      "inputs": [
        {
          "internalType": "address",
          "name": "",
          "type": "address"
        }
      ],
      "name": "allowlistedHandlers",
      "outputs": [
        {
          "internalType": "bool",
          "name": "",
          "type": "bool"
        }
      ],
      "stateMutability": "view",
      "type": "function"
    },
    {
      "inputs": [
        {
          "internalType": "address",
          "name": "_spender",
          "type": "address"
        },
        {
          "internalType": "uint256",
          "name": "_amount",
          "type": "uint256"
        }
      ],
      "name": "approve",
      "outputs": [
        {
          "internalType": "bool",
          "name": "",
          "type": "bool"
        }
      ],
      "stateMutability": "nonpayable",
      "type": "function"
    },
    {
      "inputs": [
        {
          "internalType": "address",
          "name": "_account",
          "type": "address"
        }
      ],
      "name": "balanceOf",
      "outputs": [
        {
          "internalType": "uint256",
          "name": "",
          "type": "uint256"
        }
      ],
      "stateMutability": "view",
      "type": "function"
    },
    {
      "inputs": [
        {
          "internalType": "address",
          "name": "",
          "type": "address"
        }
      ],
      "name": "balances",
      "outputs": [
        {
          "internalType": "uint256",
          "name": "",
          "type": "uint256"
        }
      ],
      "stateMutability": "view",
      "type": "function"
    },
    {
      "inputs": [
        {
          "internalType": "address",
          "name": "_receiver",
          "type": "address"
        }
      ],
      "name": "claim",
      "outputs": [],
      "stateMutability": "nonpayable",
      "type": "function"
    },
    {
      "inputs": [],
      "name": "decimals",
      "outputs": [
        {
          "internalType": "uint8",
          "name": "",
          "type": "uint8"
        }
      ],
      "stateMutability": "pure",
      "type": "function"
    },
    {
      "inputs": [],
      "name": "inWhitelistMode",
      "outputs": [
        {
          "internalType": "bool",
          "name": "",
          "type": "bool"
        }
      ],
      "stateMutability": "view",
      "type": "function"
    },
    {
      "inputs": [],
      "name": "name",
      "outputs": [
        {
          "internalType": "string",
          "name": "",
          "type": "string"
        }
      ],
      "stateMutability": "view",
      "type": "function"
    },
    {
      "inputs": [
        {
          "internalType": "address",
          "name": "",
          "type": "address"
        }
      ],
      "name": "nonStakingAccounts",
      "outputs": [
        {
          "internalType": "bool",
          "name": "",
          "type": "bool"
        }
      ],
      "stateMutability": "view",
      "type": "function"
    },
    {
      "inputs": [],
      "name": "nonStakingSupply",
      "outputs": [
        {
          "internalType": "uint256",
          "name": "",
          "type": "uint256"
        }
      ],
      "stateMutability": "view",
      "type": "function"
    },
    {
      "inputs": [],
      "name": "owner",
      "outputs": [
        {
          "internalType": "address",
          "name": "",
          "type": "address"
        }
      ],
      "stateMutability": "view",
      "type": "function"
    },
    {
      "inputs": [
        {
          "internalType": "address",
          "name": "_account",
          "type": "address"
        },
        {
          "internalType": "address",
          "name": "_receiver",
          "type": "address"
        }
      ],
      "name": "recoverClaim",
      "outputs": [],
      "stateMutability": "nonpayable",
      "type": "function"
    },
    {
      "inputs": [
        {
          "internalType": "address",
          "name": "_account",
          "type": "address"
        }
      ],
      "name": "removeAdmin",
      "outputs": [],
      "stateMutability": "nonpayable",
      "type": "function"
    },
    {
      "inputs": [
        {
          "internalType": "address",
          "name": "_account",
          "type": "address"
        }
      ],
      "name": "removeNonStakingAccount",
      "outputs": [],
      "stateMutability": "nonpayable",
      "type": "function"
    },
    {
      "inputs": [],
      "name": "renounceOwnership",
      "outputs": [],
      "stateMutability": "nonpayable",
      "type": "function"
    },
    {
      "inputs": [
        {
          "internalType": "bool",
          "name": "_inWhitelistMode",
          "type": "bool"
        }
      ],
      "name": "setInWhitelistMode",
      "outputs": [],
      "stateMutability": "nonpayable",
      "type": "function"
    },
    {
      "inputs": [
        {
          "internalType": "string",
          "name": "_name",
          "type": "string"
        },
        {
          "internalType": "string",
          "name": "_symbol",
          "type": "string"
        }
      ],
      "name": "setInfo",
      "outputs": [],
      "stateMutability": "nonpayable",
      "type": "function"
    },
    {
      "inputs": [
        {
          "internalType": "address",
          "name": "_handler",
          "type": "address"
        },
        {
          "internalType": "bool",
          "name": "_isWhitelisted",
          "type": "bool"
        }
      ],
      "name": "setWhitelistedHandler",
      "outputs": [],
      "stateMutability": "nonpayable",
      "type": "function"
    },
    {
      "inputs": [
        {
          "internalType": "address[]",
          "name": "_yieldTrackers",
          "type": "address[]"
        }
      ],
      "name": "setYieldTrackers",
      "outputs": [],
      "stateMutability": "nonpayable",
      "type": "function"
    },
    {
      "inputs": [
        {
          "internalType": "uint256",
          "name": "_amount",
          "type": "uint256"
        }
      ],
      "name": "stake",
      "outputs": [],
      "stateMutability": "nonpayable",
      "type": "function"
    },
    {
      "inputs": [
        {
          "internalType": "address",
          "name": "_account",
          "type": "address"
        }
      ],
      "name": "stakedBalance",
      "outputs": [
        {
          "internalType": "uint256",
          "name": "",
          "type": "uint256"
        }
      ],
      "stateMutability": "view",
      "type": "function"
    },
    {
      "inputs": [],
      "name": "stakingToken",
      "outputs": [
        {
          "internalType": "address",
          "name": "",
          "type": "address"
        }
      ],
      "stateMutability": "view",
      "type": "function"
    },
    {
      "inputs": [],
      "name": "symbol",
      "outputs": [
        {
          "internalType": "string",
          "name": "",
          "type": "string"
        }
      ],
      "stateMutability": "view",
      "type": "function"
    },
    {
      "inputs": [],
      "name": "totalStaked",
      "outputs": [
        {
          "internalType": "uint256",
          "name": "",
          "type": "uint256"
        }
      ],
      "stateMutability": "view",
      "type": "function"
    },
    {
      "inputs": [],
      "name": "totalSupply",
      "outputs": [
        {
          "internalType": "uint256",
          "name": "",
          "type": "uint256"
        }
      ],
      "stateMutability": "view",
      "type": "function"
    },
    {
      "inputs": [
        {
          "internalType": "address",
          "name": "_recipient",
          "type": "address"
        },
        {
          "internalType": "uint256",
          "name": "_amount",
          "type": "uint256"
        }
      ],
      "name": "transfer",
      "outputs": [
        {
          "internalType": "bool",
          "name": "",
          "type": "bool"
        }
      ],
      "stateMutability": "nonpayable",
      "type": "function"
    },
    {
      "inputs": [
        {
          "internalType": "address",
          "name": "_sender",
          "type": "address"
        },
        {
          "internalType": "address",
          "name": "_recipient",
          "type": "address"
        },
        {
          "internalType": "uint256",
          "name": "_amount",
          "type": "uint256"
        }
      ],
      "name": "transferFrom",
      "outputs": [
        {
          "internalType": "bool",
          "name": "",
          "type": "bool"
        }
      ],
      "stateMutability": "nonpayable",
      "type": "function"
    },
    {
      "inputs": [
        {
          "internalType": "address",
          "name": "newOwner",
          "type": "address"
        }
      ],
      "name": "transferOwnership",
      "outputs": [],
      "stateMutability": "nonpayable",
      "type": "function"
    },
    {
      "inputs": [
        {
          "internalType": "uint256",
          "name": "_amount",
          "type": "uint256"
        }
      ],
      "name": "unstake",
      "outputs": [],
      "stateMutability": "nonpayable",
      "type": "function"
    },
    {
      "inputs": [
        {
          "internalType": "address",
          "name": "_token",
          "type": "address"
        },
        {
          "internalType": "address",
          "name": "_account",
          "type": "address"
        },
        {
          "internalType": "uint256",
          "name": "_amount",
          "type": "uint256"
        }
      ],
      "name": "withdrawToken",
      "outputs": [],
      "stateMutability": "nonpayable",
      "type": "function"
    },
    {
      "inputs": [
        {
          "internalType": "uint256",
          "name": "",
          "type": "uint256"
        }
      ],
      "name": "yieldTrackers",
      "outputs": [
        {
          "internalType": "address",
          "name": "",
          "type": "address"
        }
      ],
      "stateMutability": "view",
      "type": "function"
    }
  ],
  "bytecode": "0x608060409080825234620004975762001e3d80380380916200002282856200049c565b8339810190606081830312620004975780516001600160401b03929083811162000497578162000054918401620004d6565b90602090818401518581116200049757869162000073918601620004d6565b9301516001600160a01b03808216959091869003620004975760008054336001600160a01b031980831682178455979294929183167f8be0079c531659141344cd1fd0a4f28419497f9722a3daafe3b4186f6b6457e08680a385519583871162000483576001968754918883811c9316801562000478575b8884101462000382578190601f9384811162000425575b508890848311600114620003c1578892620003b5575b5050600019600383901b1c191690881b1787555b815191848311620003a1576002548881811c9116801562000396575b888210146200038257908183859493116200032c575b5087918311600114620002c6578692620002ba575b5050600019600383901b1c191690861b176002555b3380845260098552888420805460ff19168717905515620002a95782855b620001f9575b505050338152600882527fddf252ad1be2c89b69c2b068fc378daa952ba7f163c4a11628f55a4df523b3ef8651928284523393a3600c55600d541617600d55516118ef90816200054e8239f35b60078054821015620002a25784528181868620015416803b156200029e57848a5191635fd6196560e01b8352818360049233848301528160249586925af1801562000294576200026e575b50505060001981146200025a57850185620001a6565b634e487b7160e01b84526011600452602484fd5b85831162000283575050895238808062000244565b634e487b7160e01b87526041905285fd5b8c513d89823e3d90fd5b8480fd5b50620001ac565b875163d92e233d60e01b8152600490fd5b01519050388062000173565b600287528787208994509190601f198416885b8a828210620003155750508411620002fb575b505050811b0160025562000188565b015160001960f88460031b161c19169055388080620002ec565b8385015186558c97909501949384019301620002d9565b90919250600287528787208380860160051c8201928a871062000378575b9186958c929594930160051c01915b828110620003695750506200015e565b8981558695508b910162000359565b925081926200034a565b634e487b7160e01b87526022600452602487fd5b90607f169062000148565b634e487b7160e01b86526041600452602486fd5b01519050388062000118565b8a89528989208b94509190601f1984168a5b8c8282106200040e5750508411620003f4575b505050811b0187556200012c565b015160001960f88460031b161c19169055388080620003e6565b8385015186558e97909501949384019301620003d3565b9091508988528888208480850160051c8201928b86106200046e575b918c91869594930160051c01915b8281106200045f57505062000102565b8a81558594508c91016200044f565b9250819262000441565b92607f1692620000eb565b634e487b7160e01b85526041600452602485fd5b600080fd5b601f909101601f19168101906001600160401b03821190821017620004c057604052565b634e487b7160e01b600052604160045260246000fd5b919080601f8401121562000497578251906001600160401b038211620004c0576040519160209162000512601f8301601f19168401856200049c565b818452828287010111620004975760005b8181106200053957508260009394955001015290565b85810183015184820184015282016200052356fe60406080815260048036101561001457600080fd5b600091823560e01c806301e33667146110f55780630589e58b146110b757806306fdde0314611030578063095ea7b3146110065780631785f53c14610fc657806318160ddd14610fa75780631e83409a14610ee757806323b872dd14610e74578063276eab4e14610d3857806327e235e314610a0b578063293d698714610d145780632e17de7814610c28578063313ce56714610c0c578063429b62e514610bce5780634cb5bbe314610b9757806352cd38d914610b3b57806355b6ed5c146103005780636021726714610b155780636228907714610a865780637048027514610a4357806370a0823114610a0b578063715018a6146109c357806372f702f31461099a578063817b1cd21461096c5780638da5cb5b146109445780639554381a1461090657806395d89b4114610829578063996f11ee14610747578063a694fc3a1461062a578063a9059cbb146105f9578063a923fc40146103c1578063c93be636146103a3578063d92fc87e1461034d578063dd62ed3e14610300578063f2fde38b1461024f5763fb30d916146101ac57600080fd5b3461024b57602036600319011261024b576101c5611121565b338452600960205260ff82852054161561023d576001600160a01b03811680855260086020528285205490919060ff161561022e579061020861022993926117bf565b8452600860205280842060ff198154169055600560205283205482546115b4565b905580f35b50505163701382a760e01b8152fd5b5051634755657960e01b8152fd5b8280fd5b50903461024b57602036600319011261024b5761026a611121565b906102736112d6565b6001600160a01b039182169283156102ae57505082546001600160a01b03198116831784551660008051602061187a8339815191528380a380f35b906020608492519162461bcd60e51b8352820152602660248201527f4f776e61626c653a206e6577206f776e657220697320746865207a65726f206160448201526564647265737360d01b6064820152fd5b8382346103495780600319360112610349578060209261031e611121565b61032661113c565b6001600160a01b0391821683526006865283832091168252845220549051908152f35b5080fd5b838234610349578060031936011261034957610367611121565b906024359182151580930361039f5761037e6112d6565b60018060a01b03168352600b60205282209060ff8019835416911617905580f35b8380fd5b50903461024b578260031936011261024b5760209250549051908152f35b503461024b57366003190112610349576001600160401b03813581811161039f576103ef903690840161128f565b6024358281116105f557610406903690850161128f565b61040e6112d6565b81519383851161054a57600194806104268754611187565b94601f958681116105c7575b5060209086831160011461056857899261055d575b5050600019600383901b1c191690861b1785555b815193841161054a5750610470600254611187565b828111610511575b5060209183116001146104b25792829391839286946104a7575b50501b916000199060031b1c19161760025580f35b015192503880610492565b60028552818520919083601f198116875b878282106104f8575050106104df575b505050811b0160025580f35b015160001960f88460031b161c191690553880806104d3565b84860151875590950194602094850194879350016104c3565b61053b9060028752602087208480870160051c82019260208810610541575b0160051c019061157a565b38610478565b92508192610530565b634e487b7160e01b865260419052602485fd5b015190503880610447565b888a52818a208994509190601f1984168b5b8181106105af57508411610596575b505050811b01855561045b565b015160001960f88460031b161c19169055388080610589565b8284015185558b96909401936020938401930161057a565b6105ef90898b5260208b208880860160051c82019260208710610541570160051c019061157a565b38610432565b8480fd5b838234610349578060031936011261034957602090610623610619611121565b602435903361161c565b5160018152f35b503461024b57602036600319011261024b5781359161064e6002600c54141561132e565b6002600c55600d5482516323b872dd60e01b602082015233602482015230604482015260648082018690528152906001600160a01b031660a082016001600160401b038111838210176107345784526106a7919061137a565b3315610726576106b6336117bf565b6106c283600354611591565b60035533845260056020528184206106db848254611591565b9055338452600860205260ff8285205416610713575b50519081528160008051602061189a83398151915260203393a36001600c5580f35b61071e838254611591565b9055386106f1565b905163d92e233d60e01b8152fd5b634e487b7160e01b875260418452602487fd5b50903461024b578160031936011261024b57610761611121565b9061076a61113c565b923385526020926009845260ff82872054161561023d57855b600754811015610825576107bc8587898561079d86611243565b929054928a8a51978896879586936310e059a160e11b855284016115d0565b039360039190911b1c6001600160a01b03165af1801561081b579086916107ee575b50506107e9906115c1565b610783565b813d8311610814575b61080181836111c1565b810103126108105784386107de565b8680fd5b503d6107f7565b84513d8a823e3d90fd5b8680f35b8382346103495781600319360112610349578051908260025461084b81611187565b808552906001908181169081156108de5750600114610885575b505050610877826108819403836111c1565b51918291826111fa565b0390f35b60028352602095507f405787fa12a823e0f2b7631cc41b3ba8828b3321ca811111fa75cd3aa3bb5ace5b8284106108cb5750505082610881946108779282010194610865565b80548685018801529286019281016108af565b61088197506108779450602092508693915060ff191682840152151560051b82010194610865565b8382346103495760203660031901126103495760209160ff9082906001600160a01b03610931611121565b1681526008855220541690519015158152f35b838234610349578160031936011261034957905490516001600160a01b039091168152602090f35b508234610997578060031936011261099757506109906020926003549054906115b4565b9051908152f35b80fd5b838234610349578160031936011261034957600d5490516001600160a01b039091168152602090f35b83346109975780600319360112610997576109dc6112d6565b80546001600160a01b03198116825581906001600160a01b031660008051602061187a8339815191528280a380f35b8382346103495760203660031901126103495760209181906001600160a01b03610a33611121565b1681526005845220549051908152f35b83823461034957602036600319011261034957610a5e611121565b610a666112d6565b6001600160a01b0316825260096020528120805460ff1916600117905580f35b503461024b57602036600319011261024b57610aa0611121565b338452600960205260ff82852054161561023d576001600160a01b03811680855260086020528285205490919060ff16610b065790610ae261022993926117bf565b84526008602052808420600160ff1982541617905560056020528320548254611591565b50505163b539f46760e01b8152fd5b83823461034957602036600319011261034957602090610990610b36611121565b6115ea565b50903461024b57602036600319011261024b573560075481101561024b5760079092527fa66cc928b5edb82af9bd49922954155ab7b0942694bea4ce44661d9a8736c6889091015490516001600160a01b039091168152602090f35b505034610349576020366003190112610349573580151580910361034957610bbd6112d6565b60ff8019600a5416911617600a5580f35b8382346103495760203660031901126103495760209160ff9082906001600160a01b03610bf9611121565b1681526009855220541690519015158152f35b8382346103495781600319360112610349576020905160128152f35b5082903461034957602036600319011261034957823590610c4e6002600c54141561132e565b6002600c553315610d0557610c62336117bf565b3383526005602052818184205410610cf65791610cdb9281943383526005602052818320848154039055610c98846003546115b4565b600355338352600860205260ff8284205416610ce3575b505182815260008051602061189a83398151915260203392a3600d5433906001600160a01b0316611529565b6001600c5580f35b610cee8482546115b4565b905585610caf565b51631e9acf1760e31b81528390fd5b5163d92e233d60e01b81528390fd5b83823461034957816003193601126103495760209060ff600a541690519015158152f35b503461024b576020908160031936011261039f576001600160401b03928035848111610e705736602382011215610e70578082013590858211610e5d578160051b935191610d88868601846111c1565b82528482016024819583010191368311610e5957602401905b828210610e3657505050610db36112d6565b51938411610e2357600160401b8411610e23575060075483600755808410610e08575b50906007845280842090845b848110610ded578580f35b83516001600160a01b03168382015592810192600101610de2565b60078552828520610e1d91810190850161157a565b38610dd6565b634e487b7160e01b855260419052602484fd5b81356001600160a01b0381168103610e55578152908601908601610da1565b8980fd5b8880fd5b634e487b7160e01b875260418352602487fd5b8580fd5b50903461024b57610e8436611152565b94909260018060a01b038316908183526006602052858320338452602052868684205410610ed9575091610ed48686846020999661062398965260068a528181203382528a52205403338361174f565b61161c565b85516313be252b60e01b8152fd5b503461024b57826020918260031936011261034957610f04611121565b93825b600754811015610fa357610f3e85610f1e83611243565b929054898888519586809581946310e059a160e11b8352338c84016115d0565b039360039190911b1c6001600160a01b03165af18015610f9957908691610f70575b5050610f6b906115c1565b610f07565b813d8311610f92575b610f8381836111c1565b8101031261039f578438610f60565b503d610f79565b84513d87823e3d90fd5b8380f35b8382346103495781600319360112610349576020906003549051908152f35b83823461034957602036600319011261034957610fe1611121565b610fe96112d6565b6001600160a01b0316825260096020528120805460ff1916905580f35b838234610349578060031936011261034957602090610623611026611121565b602435903361174f565b83823461034957816003193601126103495780519082600180549061105482611187565b808652918181169081156108de575060011461107c57505050610877826108819403836111c1565b80955082526020948583205b8284106110a45750505082610881946108779282010194610865565b8054868501880152928601928101611088565b8382346103495760203660031901126103495760209160ff9082906001600160a01b036110e2611121565b168152600b855220541690519015158152f35b83346109975761111e61110736611152565b916111106112d6565b6001600160a01b0316611529565b80f35b600435906001600160a01b038216820361113757565b600080fd5b602435906001600160a01b038216820361113757565b6060906003190112611137576001600160a01b0390600435828116810361113757916024359081168103611137579060443590565b90600182811c921680156111b7575b60208310146111a157565b634e487b7160e01b600052602260045260246000fd5b91607f1691611196565b601f909101601f19168101906001600160401b038211908210176111e457604052565b634e487b7160e01b600052604160045260246000fd5b6020808252825181830181905290939260005b82811061122f57505060409293506000838284010152601f8019910116010190565b81810186015184820160400152850161120d565b60075481101561125e57600760005260206000200190600090565b634e487b7160e01b600052603260045260246000fd5b6001600160401b0381116111e457601f01601f191660200190565b81601f82011215611137578035906112a682611274565b926112b460405194856111c1565b8284526020838301011161113757816000926020809301838601378301015290565b6000546001600160a01b031633036112ea57565b606460405162461bcd60e51b815260206004820152602060248201527f4f776e61626c653a2063616c6c6572206973206e6f7420746865206f776e65726044820152fd5b1561133557565b60405162461bcd60e51b815260206004820152601f60248201527f5265656e7472616e637947756172643a207265656e7472616e742063616c6c006044820152606490fd5b604080516001600160a01b03929092169290918083016001600160401b038111828210176111e45783526020938482527f5361666545524332303a206c6f772d6c6576656c2063616c6c206661696c656485830152803b156114a957906114169160008481959282898195519301915af13d156114a1573d906113fc82611274565b91611409875193846111c1565b82523d858884013e6114ed565b805180611425575b5050505050565b818591810103126103495783015190811591821503610997575061144b5780808061141e565b60849250519062461bcd60e51b82526004820152602a60248201527f5361666545524332303a204552433230206f7065726174696f6e20646964206e6044820152691bdd081cdd58d8d9595960b21b6064820152fd5b6060906114ed565b835162461bcd60e51b815260048101869052601d60248201527f416464726573733a2063616c6c20746f206e6f6e2d636f6e74726163740000006044820152606490fd5b909190156114f9575090565b8151156115095750805190602001fd5b60405162461bcd60e51b815290819061152590600483016111fa565b0390fd5b60405163a9059cbb60e01b60208201526001600160a01b03909216602483015260448083019390935291815260808101916001600160401b038311828410176111e4576115789260405261137a565b565b818110611585575050565b6000815560010161157a565b9190820180921161159e57565b634e487b7160e01b600052601160045260246000fd5b9190820391821161159e57565b600019811461159e5760010190565b6001600160a01b0391821681529116602082015260400190565b6001600160a01b031660009081526008602052604090205460ff1661161757600560205260406000205490565b600090565b6001600160a01b039283821692909183158015611745575b6117335760ff600a541661170b575b61164c906117bf565b611655816117bf565b60009383855260056020526040918383872054106116fa579160ff8160008051602061189a8339815191529593602095888a5260058752828a2086815403905516978881528181206116a8868254611591565b9055878152600886528282822054166116e6575b888152600886522054166116d2575b51908152a3565b6116de82600454611591565b6004556116cb565b6116f2856004546115b4565b6004556116bc565b8251631e9acf1760e31b8152600490fd5b33600052600b60205260ff6040600020541661164357604051630b094f2760e31b8152600490fd5b60405163d92e233d60e01b8152600490fd5b5084821615611634565b90916001600160a01b0391821691821580156117b5575b611733577f8c5be1e5ebec7d5bd14f71427d1e84f3dd0314c0f7b2291e5b200ac8c7c3b925916020918460005260068352604060002095169485600052825280604060002055604051908152a3565b5080841615611766565b6000915b600754831015611874576117d683611243565b90546001600160a01b03949160031b1c8416803b15611137576000946040908682518094635fd6196560e01b82526004938916848301528160249a8b925af1801561186957611836575b50505061182f919293506115c1565b91906117c3565b6001600160401b038311611855575052919250829161182f3880611820565b60418791634e487b7160e01b600052526000fd5b82513d6000823e3d90fd5b91505056fe8be0079c531659141344cd1fd0a4f28419497f9722a3daafe3b4186f6b6457e0ddf252ad1be2c89b69c2b068fc378daa952ba7f163c4a11628f55a4df523b3efa2646970667358221220db0fb3e002a7bf185437aa4976c6a1347e30603faff91401c870f0e07c5171b064736f6c63430008110033",
  "linkReferences": {},
  "deployedLinkReferences": {}
}