{
  "_format": "hh-sol-artifact-1",
  "contractName": "YieldToken",
  "sourceName": "contracts/tokens/YieldToken.sol",
  "abi": [
    {
      "inputs": [
        {
          "internalType": "string",
          "name": "_name",
          "type": "string"
        },
        {
          "internalType": "string",
          "name": "_symbol",
          "type": "string"
        },
        {
          "internalType": "uint256",
          "name": "_initialSupply",
          "type": "uint256"
        }
      ],
      "stateMutability": "nonpayable",
      "type": "constructor"
    },
    {
      "inputs": [],
      "name": "AccountAlreadyMarked",
      "type": "error"
    },
    {
      "inputs": [],
      "name": "AccountNotMarked",
      "type": "error"
    },
    {
      "inputs": [],
      "name": "InsufficientAllowance",
      "type": "error"
    },
    {
      "inputs": [],
      "name": "InsufficientBalance",
      "type": "error"
    },
    {
      "inputs": [],
      "name": "NotWhitelisted",
      "type": "error"
    },
    {
      "inputs": [],
      "name": "OnlyAdmin",
      "type": "error"
    },
    {
      "inputs": [],
      "name": "ZeroAddress",
      "type": "error"
    },
    {
      "anonymous": false,
      "inputs": [
        {
          "indexed": true,
          "internalType": "address",
          "name": "owner",
          "type": "address"
        },
        {
          "indexed": true,
          "internalType": "address",
          "name": "spender",
          "type": "address"
        },
        {
          "indexed": false,
          "internalType": "uint256",
          "name": "value",
          "type": "uint256"
        }
      ],
      "name": "Approval",
      "type": "event"
    },
    {
      "anonymous": false,
      "inputs": [
        {
          "indexed": true,
          "internalType": "address",
          "name": "previousOwner",
          "type": "address"
        },
        {
          "indexed": true,
          "internalType": "address",
          "name": "newOwner",
          "type": "address"
        }
      ],
      "name": "OwnershipTransferred",
      "type": "event"
    },
    {
      "anonymous": false,
      "inputs": [
        {
          "indexed": true,
          "internalType": "address",
          "name": "from",
          "type": "address"
        },
        {
          "indexed": true,
          "internalType": "address",
          "name": "to",
          "type": "address"
        },
        {
          "indexed": false,
          "internalType": "uint256",
          "name": "value",
          "type": "uint256"
        }
      ],
      "name": "Transfer",
      "type": "event"
    },
    {
      "inputs": [
        {
          "internalType": "address",
          "name": "_account",
          "type": "address"
        }
      ],
      "name": "addAdmin",
      "outputs": [],
      "stateMutability": "nonpayable",
      "type": "function"
    },
    {
      "inputs": [
        {
          "internalType": "address",
          "name": "_account",
          "type": "address"
        }
      ],
      "name": "addNonStakingAccount",
      "outputs": [],
      "stateMutability": "nonpayable",
      "type": "function"
    },
    {
      "inputs": [
        {
          "internalType": "address",
          "name": "",
          "type": "address"
        }
      ],
      "name": "admins",
      "outputs": [
        {
          "internalType": "bool",
          "name": "",
          "type": "bool"
        }
      ],
      "stateMutability": "view",
      "type": "function"
    },
    {
      "inputs": [
        {
          "internalType": "address",
          "name": "_owner",
          "type": "address"
        },
        {
          "internalType": "address",
          "name": "_spender",
          "type": "address"
        }
      ],
      "name": "allowance",
      "outputs": [
        {
          "internalType": "uint256",
          "name": "",
          "type": "uint256"
        }
      ],
      "stateMutability": "view",
      "type": "function"
    },
    {
      "inputs": [
        {
          "internalType": "address",
          "name": "",
          "type": "address"
        },
        {
          "internalType": "address",
          "name": "",
          "type": "address"
        }
      ],
      "name": "allowances",
      "outputs": [
        {
          "internalType": "uint256",
          "name": "",
          "type": "uint256"
        }
      ],
      "stateMutability": "view",
      "type": "function"
    },
    {
      "inputs": [
        {
          "internalType": "address",
          "name": "",
          "type": "address"
        }
      ],
      "name": "allowlistedHandlers",
      "outputs": [
        {
          "internalType": "bool",
          "name": "",
          "type": "bool"
        }
      ],
      "stateMutability": "view",
      "type": "function"
    },
    {
      "inputs": [
        {
          "internalType": "address",
          "name": "_spender",
          "type": "address"
        },
        {
          "internalType": "uint256",
          "name": "_amount",
          "type": "uint256"
        }
      ],
      "name": "approve",
      "outputs": [
        {
          "internalType": "bool",
          "name": "",
          "type": "bool"
        }
      ],
      "stateMutability": "nonpayable",
      "type": "function"
    },
    {
      "inputs": [
        {
          "internalType": "address",
          "name": "_account",
          "type": "address"
        }
      ],
      "name": "balanceOf",
      "outputs": [
        {
          "internalType": "uint256",
          "name": "",
          "type": "uint256"
        }
      ],
      "stateMutability": "view",
      "type": "function"
    },
    {
      "inputs": [
        {
          "internalType": "address",
          "name": "",
          "type": "address"
        }
      ],
      "name": "balances",
      "outputs": [
        {
          "internalType": "uint256",
          "name": "",
          "type": "uint256"
        }
      ],
      "stateMutability": "view",
      "type": "function"
    },
    {
      "inputs": [
        {
          "internalType": "address",
          "name": "_receiver",
          "type": "address"
        }
      ],
      "name": "claim",
      "outputs": [],
      "stateMutability": "nonpayable",
      "type": "function"
    },
    {
      "inputs": [],
      "name": "decimals",
      "outputs": [
        {
          "internalType": "uint8",
          "name": "",
          "type": "uint8"
        }
      ],
      "stateMutability": "pure",
      "type": "function"
    },
    {
      "inputs": [],
      "name": "inWhitelistMode",
      "outputs": [
        {
          "internalType": "bool",
          "name": "",
          "type": "bool"
        }
      ],
      "stateMutability": "view",
      "type": "function"
    },
    {
      "inputs": [],
      "name": "name",
      "outputs": [
        {
          "internalType": "string",
          "name": "",
          "type": "string"
        }
      ],
      "stateMutability": "view",
      "type": "function"
    },
    {
      "inputs": [
        {
          "internalType": "address",
          "name": "",
          "type": "address"
        }
      ],
      "name": "nonStakingAccounts",
      "outputs": [
        {
          "internalType": "bool",
          "name": "",
          "type": "bool"
        }
      ],
      "stateMutability": "view",
      "type": "function"
    },
    {
      "inputs": [],
      "name": "nonStakingSupply",
      "outputs": [
        {
          "internalType": "uint256",
          "name": "",
          "type": "uint256"
        }
      ],
      "stateMutability": "view",
      "type": "function"
    },
    {
      "inputs": [],
      "name": "owner",
      "outputs": [
        {
          "internalType": "address",
          "name": "",
          "type": "address"
        }
      ],
      "stateMutability": "view",
      "type": "function"
    },
    {
      "inputs": [
        {
          "internalType": "address",
          "name": "_account",
          "type": "address"
        },
        {
          "internalType": "address",
          "name": "_receiver",
          "type": "address"
        }
      ],
      "name": "recoverClaim",
      "outputs": [],
      "stateMutability": "nonpayable",
      "type": "function"
    },
    {
      "inputs": [
        {
          "internalType": "address",
          "name": "_account",
          "type": "address"
        }
      ],
      "name": "removeAdmin",
      "outputs": [],
      "stateMutability": "nonpayable",
      "type": "function"
    },
    {
      "inputs": [
        {
          "internalType": "address",
          "name": "_account",
          "type": "address"
        }
      ],
      "name": "removeNonStakingAccount",
      "outputs": [],
      "stateMutability": "nonpayable",
      "type": "function"
    },
    {
      "inputs": [],
      "name": "renounceOwnership",
      "outputs": [],
      "stateMutability": "nonpayable",
      "type": "function"
    },
    {
      "inputs": [
        {
          "internalType": "bool",
          "name": "_inWhitelistMode",
          "type": "bool"
        }
      ],
      "name": "setInWhitelistMode",
      "outputs": [],
      "stateMutability": "nonpayable",
      "type": "function"
    },
    {
      "inputs": [
        {
          "internalType": "string",
          "name": "_name",
          "type": "string"
        },
        {
          "internalType": "string",
          "name": "_symbol",
          "type": "string"
        }
      ],
      "name": "setInfo",
      "outputs": [],
      "stateMutability": "nonpayable",
      "type": "function"
    },
    {
      "inputs": [
        {
          "internalType": "address",
          "name": "_handler",
          "type": "address"
        },
        {
          "internalType": "bool",
          "name": "_isWhitelisted",
          "type": "bool"
        }
      ],
      "name": "setWhitelistedHandler",
      "outputs": [],
      "stateMutability": "nonpayable",
      "type": "function"
    },
    {
      "inputs": [
        {
          "internalType": "address[]",
          "name": "_yieldTrackers",
          "type": "address[]"
        }
      ],
      "name": "setYieldTrackers",
      "outputs": [],
      "stateMutability": "nonpayable",
      "type": "function"
    },
    {
      "inputs": [
        {
          "internalType": "address",
          "name": "_account",
          "type": "address"
        }
      ],
      "name": "stakedBalance",
      "outputs": [
        {
          "internalType": "uint256",
          "name": "",
          "type": "uint256"
        }
      ],
      "stateMutability": "view",
      "type": "function"
    },
    {
      "inputs": [],
      "name": "symbol",
      "outputs": [
        {
          "internalType": "string",
          "name": "",
          "type": "string"
        }
      ],
      "stateMutability": "view",
      "type": "function"
    },
    {
      "inputs": [],
      "name": "totalStaked",
      "outputs": [
        {
          "internalType": "uint256",
          "name": "",
          "type": "uint256"
        }
      ],
      "stateMutability": "view",
      "type": "function"
    },
    {
      "inputs": [],
      "name": "totalSupply",
      "outputs": [
        {
          "internalType": "uint256",
          "name": "",
          "type": "uint256"
        }
      ],
      "stateMutability": "view",
      "type": "function"
    },
    {
      "inputs": [
        {
          "internalType": "address",
          "name": "_recipient",
          "type": "address"
        },
        {
          "internalType": "uint256",
          "name": "_amount",
          "type": "uint256"
        }
      ],
      "name": "transfer",
      "outputs": [
        {
          "internalType": "bool",
          "name": "",
          "type": "bool"
        }
      ],
      "stateMutability": "nonpayable",
      "type": "function"
    },
    {
      "inputs": [
        {
          "internalType": "address",
          "name": "_sender",
          "type": "address"
        },
        {
          "internalType": "address",
          "name": "_recipient",
          "type": "address"
        },
        {
          "internalType": "uint256",
          "name": "_amount",
          "type": "uint256"
        }
      ],
      "name": "transferFrom",
      "outputs": [
        {
          "internalType": "bool",
          "name": "",
          "type": "bool"
        }
      ],
      "stateMutability": "nonpayable",
      "type": "function"
    },
    {
      "inputs": [
        {
          "internalType": "address",
          "name": "newOwner",
          "type": "address"
        }
      ],
      "name": "transferOwnership",
      "outputs": [],
      "stateMutability": "nonpayable",
      "type": "function"
    },
    {
      "inputs": [
        {
          "internalType": "address",
          "name": "_token",
          "type": "address"
        },
        {
          "internalType": "address",
          "name": "_account",
          "type": "address"
        },
        {
          "internalType": "uint256",
          "name": "_amount",
          "type": "uint256"
        }
      ],
      "name": "withdrawToken",
      "outputs": [],
      "stateMutability": "nonpayable",
      "type": "function"
    },
    {
      "inputs": [
        {
          "internalType": "uint256",
          "name": "",
          "type": "uint256"
        }
      ],
      "name": "yieldTrackers",
      "outputs": [
        {
          "internalType": "address",
          "name": "",
          "type": "address"
        }
      ],
      "stateMutability": "view",
      "type": "function"
    }
  ],
  "bytecode": "0x608060409080825234620004ce5762001bbb8038038091620000228285620004d3565b8339810190606081830312620004ce5780516001600160401b039290838111620004ce5781620000549184016200050d565b60209182840151858111620004ce578691620000729186016200050d565b93015160008054336001600160a01b03198216811783559296919591926001600160a01b03929183167f8be0079c531659141344cd1fd0a4f28419497f9722a3daafe3b4186f6b6457e08880a3835193838511620004ba576001948554918683811c93168015620004af575b88841014620003b9578190601f938481116200045c575b508890848311600114620003f8578a92620003ec575b5050600019600383901b1c191690861b1785555b815191848311620003d8576002548681811c91168015620003cd575b88821014620003b9579081838594931162000363575b5087918311600114620002fd578892620002f1575b5050600019600383901b1c191690841b176002555b3380865260098552878620805460ff19168517905515620002e05784835b62000230575b505050507fddf252ad1be2c89b69c2b068fc378daa952ba7f163c4a11628f55a4df523b3ef90620001d38460035462000584565b60035533835260058152848320620001ed85825462000584565b90553383526008815260ff858420541662000219575b84519384523393a3516116129081620005a98239f35b620002278460045462000584565b60045562000203565b60078054821015620002d95786528181868820015416803b15620002d55786895191635fd6196560e01b8352818360049233848301528160249586925af18015620002cb57620002a5575b5050506000198114620002915783018362000199565b634e487b7160e01b86526011600452602486fd5b858311620002ba57505088523880806200027b565b634e487b7160e01b89526041905287fd5b8b513d8b823e3d90fd5b8680fd5b506200019f565b865163d92e233d60e01b8152600490fd5b01519050388062000166565b600289528789208794509190601f1984168a5b8a8282106200034c575050841162000332575b505050811b016002556200017b565b015160001960f88460031b161c1916905538808062000323565b8385015186558a9790950194938401930162000310565b90919250600289528789208380860160051c8201928a8710620003af575b9186958a929594930160051c01915b828110620003a057505062000151565b8b815586955089910162000390565b9250819262000381565b634e487b7160e01b89526022600452602489fd5b90607f16906200013b565b634e487b7160e01b88526041600452602488fd5b0151905038806200010b565b888b52898b208994509190601f1984168c5b8c8282106200044557505084116200042b575b505050811b0185556200011f565b015160001960f88460031b161c191690553880806200041d565b8385015186558c979095019493840193016200040a565b909150878a52888a208480850160051c8201928b8610620004a5575b918a91869594930160051c01915b82811062000496575050620000f5565b8c81558594508a910162000486565b9250819262000478565b92607f1692620000de565b634e487b7160e01b87526041600452602487fd5b600080fd5b601f909101601f19168101906001600160401b03821190821017620004f757604052565b634e487b7160e01b600052604160045260246000fd5b919080601f84011215620004ce578251906001600160401b038211620004f7576040519160209162000549601f8301601f1916840185620004d3565b818452828287010111620004ce5760005b8181106200057057508260009394955001015290565b85810183015184820184015282016200055a565b919082018092116200059257565b634e487b7160e01b600052601160045260246000fdfe60406080815260048036101561001457600080fd5b600091823560e01c806301e3366714610ea25780630589e58b14610e6457806306fdde0314610ddd578063095ea7b314610db35780631785f53c14610d7357806318160ddd14610d545780631e83409a14610c9457806323b872dd14610c21578063276eab4e14610ae557806327e235e3146108a4578063293d698714610ac1578063313ce56714610aa5578063429b62e514610a675780634cb5bbe314610a3057806352cd38d9146109d457806355b6ed5c146102df57806360217267146109ae578063622890771461091f57806370480275146108dc57806370a08231146108a4578063715018a61461085c578063817b1cd21461082e5780638da5cb5b146108065780639554381a146107c857806395d89b41146106eb578063996f11ee14610609578063a9059cbb146105d8578063a923fc40146103a0578063c93be63614610382578063d92fc87e1461032c578063dd62ed3e146102df578063f2fde38b1461022e5763fb30d9161461018b57600080fd5b3461022a57602036600319011261022a576101a4611062565b338452600960205260ff82852054161561021c576001600160a01b03811680855260086020528285205490919060ff161561020d57906101e76102089392611502565b8452600860205280842060ff198154169055600560205283205482546112e5565b905580f35b50505163701382a760e01b8152fd5b5051634755657960e01b8152fd5b8280fd5b50903461022a57602036600319011261022a57610249611062565b90610252611217565b6001600160a01b0391821692831561028d57505082546001600160a01b0319811683178455166000805160206115bd8339815191528380a380f35b906020608492519162461bcd60e51b8352820152602660248201527f4f776e61626c653a206e6577206f776e657220697320746865207a65726f206160448201526564647265737360d01b6064820152fd5b838234610328578060031936011261032857806020926102fd611062565b61030561107d565b6001600160a01b0391821683526006865283832091168252845220549051908152f35b5080fd5b838234610328578060031936011261032857610346611062565b906024359182151580930361037e5761035d611217565b60018060a01b03168352600b60205282209060ff8019835416911617905580f35b8380fd5b50903461022a578260031936011261022a5760209250549051908152f35b503461022a57366003190112610328576001600160401b03813581811161037e576103ce90369084016111d0565b6024358281116105d4576103e590369085016111d0565b6103ed611217565b815193838511610529576001948061040587546110c8565b94601f958681116105a6575b5060209086831160011461054757899261053c575b5050600019600383901b1c191690861b1785555b8151938411610529575061044f6002546110c8565b8281116104f0575b506020918311600114610491579282939183928694610486575b50501b916000199060031b1c19161760025580f35b015192503880610471565b60028552818520919083601f198116875b878282106104d7575050106104be575b505050811b0160025580f35b015160001960f88460031b161c191690553880806104b2565b84860151875590950194602094850194879350016104a2565b61051a9060028752602087208480870160051c82019260208810610520575b0160051c019061126f565b38610457565b9250819261050f565b634e487b7160e01b865260419052602485fd5b015190503880610426565b888a52818a208994509190601f1984168b5b81811061058e57508411610575575b505050811b01855561043a565b015160001960f88460031b161c19169055388080610568565b8284015185558b969094019360209384019301610559565b6105ce90898b5260208b208880860160051c82019260208710610520570160051c019061126f565b38610411565b8480fd5b8382346103285780600319360112610328576020906106026105f8611062565b602435903361134d565b5160018152f35b50903461022a578160031936011261022a57610623611062565b9061062c61107d565b923385526020926009845260ff82872054161561021c57855b6007548110156106e75761067e8587898561065f86611184565b929054928a8a51978896879586936310e059a160e11b85528401611301565b039360039190911b1c6001600160a01b03165af180156106dd579086916106b0575b50506106ab906112f2565b610645565b813d83116106d6575b6106c38183611102565b810103126106d25784386106a0565b8680fd5b503d6106b9565b84513d8a823e3d90fd5b8680f35b8382346103285781600319360112610328578051908260025461070d816110c8565b808552906001908181169081156107a05750600114610747575b50505061073982610743940383611102565b519182918261113b565b0390f35b60028352602095507f405787fa12a823e0f2b7631cc41b3ba8828b3321ca811111fa75cd3aa3bb5ace5b82841061078d5750505082610743946107399282010194610727565b8054868501880152928601928101610771565b61074397506107399450602092508693915060ff191682840152151560051b82010194610727565b8382346103285760203660031901126103285760209160ff9082906001600160a01b036107f3611062565b1681526008855220541690519015158152f35b838234610328578160031936011261032857905490516001600160a01b039091168152602090f35b508234610859578060031936011261085957506108526020926003549054906112e5565b9051908152f35b80fd5b8334610859578060031936011261085957610875611217565b80546001600160a01b03198116825581906001600160a01b03166000805160206115bd8339815191528280a380f35b8382346103285760203660031901126103285760209181906001600160a01b036108cc611062565b1681526005845220549051908152f35b838234610328576020366003190112610328576108f7611062565b6108ff611217565b6001600160a01b0316825260096020528120805460ff1916600117905580f35b503461022a57602036600319011261022a57610939611062565b338452600960205260ff82852054161561021c576001600160a01b03811680855260086020528285205490919060ff1661099f579061097b6102089392611502565b84526008602052808420600160ff19825416179055600560205283205482546112c2565b50505163b539f46760e01b8152fd5b838234610328576020366003190112610328576020906108526109cf611062565b61131b565b50903461022a57602036600319011261022a573560075481101561022a5760079092527fa66cc928b5edb82af9bd49922954155ab7b0942694bea4ce44661d9a8736c6889091015490516001600160a01b039091168152602090f35b505034610328576020366003190112610328573580151580910361032857610a56611217565b60ff8019600a5416911617600a5580f35b8382346103285760203660031901126103285760209160ff9082906001600160a01b03610a92611062565b1681526009855220541690519015158152f35b8382346103285781600319360112610328576020905160128152f35b83823461032857816003193601126103285760209060ff600a541690519015158152f35b503461022a576020908160031936011261037e576001600160401b03928035848111610c1d5736602382011215610c1d578082013590858211610c0a578160051b935191610b3586860184611102565b82528482016024819583010191368311610c0657602401905b828210610be357505050610b60611217565b51938411610bd057600160401b8411610bd0575060075483600755808410610bb5575b50906007845280842090845b848110610b9a578580f35b83516001600160a01b03168382015592810192600101610b8f565b60078552828520610bca91810190850161126f565b38610b83565b634e487b7160e01b855260419052602484fd5b81356001600160a01b0381168103610c02578152908601908601610b4e565b8980fd5b8880fd5b634e487b7160e01b875260418352602487fd5b8580fd5b50903461022a57610c3136611093565b94909260018060a01b038316908183526006602052858320338452602052868684205410610c86575091610c818686846020999661060298965260068a528181203382528a522054033383611492565b61134d565b85516313be252b60e01b8152fd5b503461022a57826020918260031936011261032857610cb1611062565b93825b600754811015610d5057610ceb85610ccb83611184565b929054898888519586809581946310e059a160e11b8352338c8401611301565b039360039190911b1c6001600160a01b03165af18015610d4657908691610d1d575b5050610d18906112f2565b610cb4565b813d8311610d3f575b610d308183611102565b8101031261037e578438610d0d565b503d610d26565b84513d87823e3d90fd5b8380f35b8382346103285781600319360112610328576020906003549051908152f35b83823461032857602036600319011261032857610d8e611062565b610d96611217565b6001600160a01b0316825260096020528120805460ff1916905580f35b838234610328578060031936011261032857602090610602610dd3611062565b6024359033611492565b838234610328578160031936011261032857805190826001805490610e01826110c8565b808652918181169081156107a05750600114610e295750505061073982610743940383611102565b80955082526020948583205b828410610e515750505082610743946107399282010194610727565b8054868501880152928601928101610e35565b8382346103285760203660031901126103285760209160ff9082906001600160a01b03610e8f611062565b168152600b855220541690519015158152f35b503461022a57610eb136611093565b90610ebd939293611217565b825163a9059cbb60e01b60208083019182526001600160a01b03938416602484015260448084019590955293825292946080820193921691906001600160401b038085118286101761104f5760c082019081118582101761104f5785528584527f5361666545524332303a206c6f772d6c6576656c2063616c6c206661696c656460a0820152823b1561100c57610f839392889283809351925af13d15611004573d90610f69826111b5565b91610f7686519384611102565b82523d888784013e611286565b805180610f8e578580f35b818491810103126105d4578201518015908115036105d457610fb05780808580f35b5162461bcd60e51b815291820152602a60248201527f5361666545524332303a204552433230206f7065726174696f6e20646964206e6044820152691bdd081cdd58d8d9595960b21b606482015260849150fd5b606090611286565b845162461bcd60e51b8152808801879052601d60248201527f416464726573733a2063616c6c20746f206e6f6e2d636f6e74726163740000006044820152606490fd5b634e487b7160e01b895260418852602489fd5b600435906001600160a01b038216820361107857565b600080fd5b602435906001600160a01b038216820361107857565b6060906003190112611078576001600160a01b0390600435828116810361107857916024359081168103611078579060443590565b90600182811c921680156110f8575b60208310146110e257565b634e487b7160e01b600052602260045260246000fd5b91607f16916110d7565b601f909101601f19168101906001600160401b0382119082101761112557604052565b634e487b7160e01b600052604160045260246000fd5b6020808252825181830181905290939260005b82811061117057505060409293506000838284010152601f8019910116010190565b81810186015184820160400152850161114e565b60075481101561119f57600760005260206000200190600090565b634e487b7160e01b600052603260045260246000fd5b6001600160401b03811161112557601f01601f191660200190565b81601f82011215611078578035906111e7826111b5565b926111f56040519485611102565b8284526020838301011161107857816000926020809301838601378301015290565b6000546001600160a01b0316330361122b57565b606460405162461bcd60e51b815260206004820152602060248201527f4f776e61626c653a2063616c6c6572206973206e6f7420746865206f776e65726044820152fd5b81811061127a575050565b6000815560010161126f565b90919015611292575090565b8151156112a25750805190602001fd5b60405162461bcd60e51b81529081906112be906004830161113b565b0390fd5b919082018092116112cf57565b634e487b7160e01b600052601160045260246000fd5b919082039182116112cf57565b60001981146112cf5760010190565b6001600160a01b0391821681529116602082015260400190565b6001600160a01b031660009081526008602052604090205460ff1661134857600560205260406000205490565b600090565b6001600160a01b039283821692909183158015611488575b6114765760ff600a541661144e575b61137d90611502565b61138681611502565b600093838552600560205260409183838720541061143d579160ff817fddf252ad1be2c89b69c2b068fc378daa952ba7f163c4a11628f55a4df523b3ef9593602095888a5260058752828a2086815403905516978881528181206113eb8682546112c2565b905587815260088652828282205416611429575b88815260088652205416611415575b51908152a3565b611421826004546112c2565b60045561140e565b611435856004546112e5565b6004556113ff565b8251631e9acf1760e31b8152600490fd5b33600052600b60205260ff6040600020541661137457604051630b094f2760e31b8152600490fd5b60405163d92e233d60e01b8152600490fd5b5084821615611365565b90916001600160a01b0391821691821580156114f8575b611476577f8c5be1e5ebec7d5bd14f71427d1e84f3dd0314c0f7b2291e5b200ac8c7c3b925916020918460005260068352604060002095169485600052825280604060002055604051908152a3565b50808416156114a9565b6000915b6007548310156115b75761151983611184565b90546001600160a01b03949160031b1c8416803b15611078576000946040908682518094635fd6196560e01b82526004938916848301528160249a8b925af180156115ac57611579575b505050611572919293506112f2565b9190611506565b6001600160401b03831161159857505291925082916115723880611563565b60418791634e487b7160e01b600052526000fd5b82513d6000823e3d90fd5b91505056fe8be0079c531659141344cd1fd0a4f28419497f9722a3daafe3b4186f6b6457e0a2646970667358221220d009f2b8423a0bf4f3547a863d9622d82c7f162321649b5d1f648db8448cff0164736f6c63430008110033",
  "linkReferences": {},
  "deployedLinkReferences": {}
}